:100000000C94FF2D0C941C2E0C941C2E0C941C2E66
:100010000C941C2E0C941C2E0C941C2E0C941C2E38
:100020000C941C2E0C941C2E0C941C2E0C941C2E28
:100030000C941C2E0C941C2E0C941C2E0C941C2E18
:100040000C941C2E0C947B2F0C941C2E0C941C2EA8
:100050000C941C2E0C941C2E0C941C2E0C941C2EF8
:100060000C941C2E0C940F340C941C2E0C94A53361
:100070000C941C2E0C941C2E0C941C2E0C941C2ED8
:100080000C941C2E0C941C2E0C941C2E0C941C2EC8
:100090000C941C2E0C941C2E0C941C2E0C941C2EB8
:1000A0000C941C2E0C941C2E0C941C2E0C941C2EA8
:1000B0000C941C2E0C941C2E0C941C2E0C941C2E98
:1000C0000C941C2E0C941C2E0C941C2E0C941C2E88
:1000D0000C941C2E0C941C2E0C941C2E0C941C2E78
:1000E0000C941C2E00000000000000000000000026
:1000F0000000000000000000000000000000000000
:1001000000000000000002020202023E3E00000069
:1001100000000000000000000000000000000000DF
:1001200000000000000002023E3E023E3E000000D1
:1001300000000000000000000000000000000000BF
:100140000000000000003E3E202020202000000093
:10015000000000000000000000000000000000009F
:100160000000000000003E3E222222222200000069
:10017000000000000000000000000000000000007F
:100180000000000000003E3E223E3E222200000011
:10019000000000000000000000000000000000005F
:1001A0000000000000003A3A2A2A2A2E2E00000001
:1001B000000000000000000000000000000000003F
:1001C0000000000000003E3E2222223E3E000000D1
:1001D000000000000000000000000000000000001F
:1001E0000000000000003E3E2828283E3E0000009F
:1001F00000000000000000000000000000000000FF
:1002000000000000003E3E283E3E283E3E0000002A
:1002100000000000000000000000000000000000DE
:1002200000000000002030180E0E183020000000E2
:1002300000000000000000000000000000000000BE
:10024000000000000020301E2E381E1E302000004E
:10025000000000000000000000000000000000009E
:10026000000000000000081C3622361C08000000B8
:10027000000000000000000000000000000000007E
:10028000000000000022321A0E0E1A322200000076
:10029000000000000000000000000000000000005E
:1002A000000000000022321E3E321E1E32200000DE
:1002B000000000000000000000000000000000003E
:1002C000000000000024341C0E0E1C34240000002A
:1002D000000000000000000000000000000000001E
:1002E0000000000000000A0A0A0A0A3E3E00000060
:1002F00000000000000000000000000000000000FE
:100300000000000000003E3E2A2A2A2A22000000A7
:1003100000000000000000000000000000000000DD
:10032000000000000000223E3E223E3E220000006F
:1003300000000000000000000000000000000000BD
:100340000000000000143C6C46466C3C14000000A9
:10035000000000000000000000000000000000009D
:10036000000000000000000000000000000000008D
:10037000000000000000000000000000000000007D
:1003800000000000000000000202020202023E3EE5
:10039000000000000000000000000000000000005D
:1003A000000000000000000202023E3E02023E3E4B
:1003B000000000000000000000000000000000003D
:1003C00000000000000000003E3E202020202020F1
:1003D000000000000000000000000000000000001D
:1003E00000000000000000003E3E222222222222C5
:1003F00000000000000000000000000000000000FD
:10040000000000000000003E3E22223E3E2222224A
:1004100000000000000000000000000000000000DC
:1004200000000000000000003A3A2A2A2A2A2E2E54
:1004300000000000000000000000000000000000BC
:1004400000000000000000003E3E222222223E3E2C
:10045000000000000000000000000000000000009C
:1004600000000000000000003E3E282828283E3EF4
:10047000000000000000000000000000000000007C
:10048000000000000000003E3E28283E3E28283E96
:100490003E0000000000000000000000000000001E
:1004A00000000000000000202030180E0E18302040
:1004B000200000000000000000000000000000001C
:1004C00000000000000020301E1E3020301E1E30B4
:1004D00020000000000000000000000000000000FC
:1004E00000000000000000081C36222222361C08F2
:1004F00000000000000000000000000000000000FC
:10050000000000000000002222321A0E0E1A3222D1
:1005100022000000000000000000000000000000B9
:100520000000000000000022321E1E32321E1E3269
:100530002200000000000000000000000000000099
:10054000000000000000002424341C0E0E1C342483
:100550002400000000000000000000000000000077
:1005600000000000000000000A0A0A0A0A0A3E3ED3
:10057000000000000000000000000000000000007B
:1005800000000000000000003E3E2A2A2A2A2A2AF3
:10059000000000000000000000000000000000005B
:1005A00000000000000000223E3E2222223E3E22A9
:1005B000000000000000000000000000000000003B
:1005C00000000000000000143C6C444646446C3CB3
:1005D0001400000000000000000000000000000007
:1005E000000000000000000000000000000000000B
:1005F00000000000000000000000000000000000FB
:1006000000000000000000000202020202023E3E62
:1006100000000000000000000000000000000000DA
:10062000000000000000000202023E3E02023E3EC8
:1006300000000000000000000000000000000000BA
:1006400000000000000000003E3E2020202020206E
:10065000000000000000000000000000000000009A
:1006600000000000000000003E3E22222222222242
:10067000000000000000000000000000000000007A
:10068000000000000000003E3E22223E3E222222C8
:10069000000000000000000000000000000000005A
:1006A00000000000000000003A3A2A2A2A2A2E2ED2
:1006B000000000000000000000000000000000003A
:1006C00000000000000000003E3E222222223E3EAA
:1006D000000000000000000000000000000000001A
:1006E00000000000000000003E3E282828283E3E72
:1006F00000000000000000000000000000000000FA
:10070000000000000000003E3E28283E3E28283E13
:100710003E0000000000000000000000000000009B
:1007200000000000000000202030180E0E183020BD
:100730002000000000000000000000000000000099
:1007400000000000000020301E1E3020301E1E3031
:100750002000000000000000000000000000000079
:1007600000000000000000081C36222222361C086F
:100770000000000000000000000000000000000079
:10078000000000000000002222321A0E0E1A32224F
:100790002200000000000000000000000000000037
:1007A0000000000000000022321E1E32321E1E32E7
:1007B0002200000000000000000000000000000017
:1007C000000000000000002424341C0E0E1C342401
:1007D00024000000000000000000000000000000F5
:1007E00000000000000000000A0A0A0A0A0A3E3E51
:1007F00000000000000000000000000000000000F9
:1008000000000000000000003E3E2A2A2A2A2A2A70
:1008100000000000000000000000000000000000D8
:1008200000000000000000223E3E2222223E3E2226
:1008300000000000000000000000000000000000B8
:1008400000000000000000143C6C444646446C3C30
:100850001400000000000000000000000000000084
:100860000000000000000000000000000000000088
:100870000000000000000000000000000000000078
:10088000000000000002020202023E3E00000000E2
:100890000000000000000000000000000000000058
:1008A0000000000000000002023E3E023E3E00004A
:1008B0000000000000000000000000000000000038
:1008C0000000000000003E3E20202020200000000C
:1008D0000000000000000000000000000000000018
:1008E0000000000000003E3E2222222222000000E2
:1008F00000000000000000000000000000000000F8
:100900000000000000003E3E223E3E222200000089
:1009100000000000000000000000000000000000D7
:100920000000000000003A3A2A2A2A2E2E00000079
:1009300000000000000000000000000000000000B7
:100940000000000000003E3E2222223E3E00000049
:100950000000000000000000000000000000000097
:100960000000000000003E3E2828283E3E00000017
:100970000000000000000000000000000000000077
:1009800000000000003E3E283E3E283E3E000000A3
:100990000000000000000000000000000000000057
:1009A00000000000002030180E0E1830200000005B
:1009B0000000000000000000000000000000000037
:1009C000000000000020301E2E381E1E30200000C7
:1009D0000000000000000000000000000000000017
:1009E000000000000000081C3622361C0800000031
:1009F00000000000000000000000000000000000F7
:100A0000000000000022321A0E0E1A3222000000EE
:100A100000000000000000000000000000000000D6
:100A2000000000000022321E3E321E1E3220000056
:100A300000000000000000000000000000000000B6
:100A4000000000000024341C0E0E1C3424000000A2
:100A50000000000000000000000000000000000096
:100A60000000000000000A0A0A0A0A3E3E000000D8
:100A70000000000000000000000000000000000076
:100A80000000000000003E3E2A2A2A2A2200000020
:100A90000000000000000000000000000000000056
:100AA000000000000000223E3E223E3E22000000E8
:100AB0000000000000000000000000000000000036
:100AC0000000000000143C6C46466C3C1400000022
:100AD0000000000000000000000000000000000016
:100AE0000000000000000000000000000000000006
:100AF00000000000000000000000000000000000F6
:100B0000000000000002020202023E3E000000005F
:100B100000000000000000000000000000000000D5
:100B20000000000000000002023E3E023E3E0000C7
:100B300000000000000000000000000000000000B5
:100B40000000000000003E3E202020202000000089
:100B50000000000000000000000000000000000095
:100B60000000000000003E3E22222222220000005F
:100B70000000000000000000000000000000000075
:100B80000000000000003E3E223E3E222200000007
:100B90000000000000000000000000000000000055
:100BA0000000000000003A3A2A2A2A2E2E000000F7
:100BB0000000000000000000000000000000000035
:100BC0000000000000003E3E2222223E3E000000C7
:100BD0000000000000000000000000000000000015
:100BE0000000000000003E3E2828283E3E00000095
:100BF00000000000000000000000000000000000F5
:100C000000000000003E3E283E3E283E3E00000020
:100C100000000000000000000000000000000000D4
:100C200000000000002030180E0E183020000000D8
:100C300000000000000000000000000000000000B4
:100C4000000000000020301E2E381E1E3020000044
:100C50000000000000000000000000000000000094
:100C6000000000000000081C3622361C08000000AE
:100C70000000000000000000000000000000000074
:100C8000000000000022321A0E0E1A32220000006C
:100C90000000000000000000000000000000000054
:100CA0000000000022321E3E321E1E3220000000D4
:100CB0000000000000000000000000000000000034
:100CC0000000000000000024341C0E0E1C34240020
:100CD0000000000000000000000000000000000014
:100CE00000000000000A0A0A0A0A3E3E0000000056
:100CF00000000000000000000000000000000000F4
:100D00000000000000003E3E2A2A2A2A220000009D
:100D100000000000000000000000000000000000D3
:100D2000000000000000223E3E223E3E2200000065
:100D300000000000000000000000000000000000B3
:100D40000000000000143C6C46466C3C140000009F
:100D50000000000000000000000000000000000093
:100D60000000000000000000000000000000000083
:100D70000000000000000000000000000000000073
:100D800000000000000002020202023E3E000000DD
:100D90000000000000000000000000000000000053
:100DA00000000000000002023E3E023E3E00000045
:100DB0000000000000000000000000000000000033
:100DC0000000000000003E3E202020202000000007
:100DD0000000000000000000000000000000000013
:100DE0000000000000003E3E2222222222000000DD
:100DF00000000000000000000000000000000000F3
:100E00000000000000003E3E223E3E222200000084
:100E100000000000000000000000000000000000D2
:100E20000000000000003A3A2A2A2A2E2E00000074
:100E300000000000000000000000000000000000B2
:100E40000000000000003E3E2222223E3E00000044
:100E50000000000000000000000000000000000092
:100E60000000000000003E3E2828283E3E00000012
:100E70000000000000000000000000000000000072
:100E800000000000003E3E283E3E283E3E0000009E
:100E90000000000000000000000000000000000052
:100EA00000000000002030180E0E18302000000056
:100EB0000000000000000000000000000000000032
:100EC000000000000020301E2E381E1E30200000C2
:100ED0000000000000000000000000000000000012
:100EE000000000000000081C3622361C080000002C
:100EF00000000000000000000000000000000000F2
:100F0000000000000022321A0E0E1A3222000000E9
:100F100000000000000000000000000000000000D1
:100F2000000000000022321E3E321E1E3220000051
:100F300000000000000000000000000000000000B1
:100F4000000000000024341C0E0E1C34240000009D
:100F50000000000000000000000000000000000091
:100F60000000000000000A0A0A0A0A3E3E000000D3
:100F70000000000000000000000000000000000071
:100F80000000000000003E3E2A2A2A2A220000001B
:100F90000000000000000000000000000000000051
:100FA000000000000000223E3E223E3E22000000E3
:100FB0000000000000000000000000000000000031
:100FC0000000000000143C6C46466C3C140000001D
:100FD0000000000000000000000000000000000011
:100FE0000000000000000000000000000000000001
:100FF00000000000000000000000000000000000F1
:10100000000000000000000002020202023E3E005A
:1010100000000000000000000000000000000000D0
:10102000000000000000000002023E3E023E3E00C2
:1010300000000000000000000000000000000000B0
:1010400000000000000000003E3E20202020200084
:101050000000000000000000000000000000000090
:1010600000000000000000003E3E2222222222005A
:101070000000000000000000000000000000000070
:1010800000000000000000003E3E223E3E22220002
:101090000000000000000000000000000000000050
:1010A00000000000000000003A3A2A2A2A2E2E00F2
:1010B0000000000000000000000000000000000030
:1010C00000000000000000003E3E2222223E3E00C2
:1010D0000000000000000000000000000000000010
:1010E00000000000000000003E3E2828283E3E0090
:1010F00000000000000000000000000000000000F0
:1011000000000000000000003E3E283E3E283E3E1B
:1011100000000000000000000000000000000000CF
:1011200000000000000000002030180E0E183020D3
:1011300000000000000000000000000000000000AF
:101140000000000000000020301E2E381E1E30203F
:10115000000000000000000000000000000000008F
:101160000000000000000000081C3622361C0800A9
:10117000000000000000000000000000000000006F
:10118000000000000000000022321A0E0E1A322267
:10119000000000000000000000000000000000004F
:1011A000000000000000000022321E3E321E1E32EF
:1011B000200000000000000000000000000000000F
:1011C000000000000000000024341C0E0E1C34241B
:1011D000000000000000000000000000000000000F
:1011E00000000000000000000A0A0A0A0A3E3E0051
:1011F00000000000000000000000000000000000EF
:1012000000000000000000003E3E2A2A2A2A220098
:1012100000000000000000000000000000000000CE
:101220000000000000000000223E3E223E3E220060
:1012300000000000000000000000000000000000AE
:101240000000000000000000143C6C46466C3C149A
:10125000000000000000000000000000000000008E
:10126000000000000000000000000000000000007E
:10127000000000000000000000000000000000006E
:1012800000000000000002020202023E3E000000D8
:10129000000000000000000000000000000000004E
:1012A00000000000000002023E3E023E3E00000040
:1012B000000000000000000000000000000000002E
:1012C0000000000000003E3E202020202000000002
:1012D000000000000000000000000000000000000E
:1012E0000000000000003E3E2222222222000000D8
:1012F00000000000000000000000000000000000EE
:101300000000000000003E3E223E3E22220000007F
:1013100000000000000000000000000000000000CD
:101320000000000000003A3A2A2A2A2E2E0000006F
:1013300000000000000000000000000000000000AD
:101340000000000000003E3E2222223E3E0000003F
:10135000000000000000000000000000000000008D
:101360000000000000003E3E2828283E3E0000000D
:10137000000000000000000000000000000000006D
:1013800000000000003E3E283E3E283E3E00000099
:10139000000000000000000000000000000000004D
:1013A00000000000002030180E0E18302000000051
:1013B000000000000000000000000000000000002D
:1013C000000000000020301E2E381E1E30200000BD
:1013D000000000000000000000000000000000000D
:1013E000000000000000081C3622361C0800000027
:1013F00000000000000000000000000000000000ED
:10140000000000000022321A0E0E1A3222000000E4
:1014100000000000000000000000000000000000CC
:10142000000000000022321E3E321E1E322000004C
:1014300000000000000000000000000000000000AC
:10144000000000000024341C0E0E1C342400000098
:10145000000000000000000000000000000000008C
:101460000000000000000A0A0A0A0A3E3E000000CE
:10147000000000000000000000000000000000006C
:101480000000000000003E3E2A2A2A2A2200000016
:10149000000000000000000000000000000000004C
:1014A000000000000000223E3E223E3E22000000DE
:1014B000000000000000000000000000000000002C
:1014C0000000000000143C6C46466C3C1400000018
:1014D000000000000000000000000000000000000C
:1014E00000000000000000000000000000000000FC
:1014F00000000000000000000000000000000000EC
:10150000000000000000000000000000000000FEDD
:10151000FE10100000000000000000000000003F6E
:101520003F00000000000000000000000000FEFE80
:1015300010FEFE00000000000000000000003F3F21
:10154000003F3F000000000000000000000000FE1F
:10155000FE28280000000000000000000000003FFE
:101560003F00000000000000000000000000FEFE40
:1015700028FEFE00000000000000000000003F3FC9
:10158000003F3F000000000000000000080808FEC7
:10159000FE00000000000000000000000000003F0E
:1015A0003F00000000000000000000000808FEFEF0
:1015B00000FEFE00000000000000000000003F3FB1
:1015C000003F3F000000000000000000282828FE27
:1015D000FE00000000000000000000000000003FCE
:1015E0003F00000000000000000000002828FEFE70
:1015F00000FEFE00000000000000000000003F3F71
:10160000003F3F000000000000008080000000005C
:1016100000000000000202020202030302020202B2
:10162000020200000000000000808000000000FEB8
:10163000FE40400000020202020303020202023FD7
:101640003F00000000000000008080000000FEFE5F
:1016500040FEFE00000202020203030202023F3FBC
:10166000003F3F000000000000808000000000FEFE
:10167000FE00000000020202020303020202023F17
:101680003F0000000000000000808000808000001B
:101690000000000000020202020303020303020230
:1016A0000202000000008080808080808080808036
:1016B0008080000000000000000000030300000024
:1016C000000000000080808080808080808888FE0C
:1016D000FE00000000000000030300000000003FC7
:1016E0003F00000000808080808080808888FEFE2F
:1016F00000FEFE00000000000303000000003F3F6A
:10170000003F3F000080808080808080808080FE5D
:10171000FE00000000000000030300000000003F86
:101720003F0000000000808080808080808080807A
:10173000808000000000000000030300030300009D
:101740000000000000000000000000000000000099
:10175000000000000000010101010101010101017F
:10176000010100000080808080808080808080FE79
:10177000FE00000000000000000000000000003F2C
:101780003F0000000000000000000000000000FE1C
:10179000FE00000000000000000000000000003F0C
:1017A0003F000000000000000000000000000000FA
:1017B0000000000000000000000000000000000029
:1017C000000000000000000000000000000000FE1B
:1017D000FE10100000000000000000000000003FAC
:1017E0003F00000000000000000000000000FEFEBE
:1017F00010FEFE00000000000000000000003F3F5F
:10180000003F3F000000000000000000000000FE5C
:10181000FE28280000000000000000000000003F3B
:101820003F00000000000000000000000000FEFE7D
:1018300028FEFE00000000000000000000003F3F06
:10184000003F3F000000000000000000080808FE04
:10185000FE00000000000000000000000000003F4B
:101860003F00000000000000000000000808FEFE2D
:1018700000FEFE00000000000000000000003F3FEE
:10188000003F3F000000000000000000282828FE64
:10189000FE00000000000000000000000000003F0B
:1018A0003F00000000000000000000002828FEFEAD
:1018B00000FEFE00000000000000000000003F3FAE
:1018C000003F3F000000000000008080000000009A
:1018D00000000000000202020202030302020202F0
:1018E000020200000000000000808000000000FEF6
:1018F000FE40400000020202020303020202023F15
:101900003F00000000000000008080000000FEFE9C
:1019100040FEFE00000202020203030202023F3FF9
:10192000003F3F000000000000808000000000FE3B
:10193000FE00000000020202020303020202023F54
:101940003F00000000000000008080008080000058
:10195000000000000002020202030302030302026D
:101960000202000000008080808080808080808073
:101970008080000000000000000000030300000061
:10198000000000000080808080808080808888FE49
:10199000FE00000000000000030300000000003F04
:1019A0003F00000000808080808080808888FEFE6C
:1019B00000FEFE00000000000303000000003F3FA7
:1019C000003F3F000080808080808080808080FE9B
:1019D000FE00000000000000030300000000003FC4
:1019E0003F000000000080808080808080808080B8
:1019F00080800000000000000003030003030000DB
:101A000000000000000000000000000000000000D6
:101A100000000000000001010101010101010101BC
:101A2000010100000080808080808080808080FEB6
:101A3000FE00000000000000000000000000003F69
:101A40003F0000000000000000000000000000FE59
:101A5000FE00000000000000000000000000003F49
:101A60003F00000000000000000000000000000037
:101A70000000000000000000000000000000000066
:101A8000000000000000000000000000000000FE58
:101A9000FE10100000000000000000000000000028
:101AA0000000000000000000000000000000FEFE3A
:101AB00010FEFE000000000000000000000000001A
:101AC000000000000000000000000000000000FE18
:101AD000FE282800000000000000000000000000B8
:101AE0000000000000000000000000000000FEFEFA
:101AF00028FEFE00000000000000000000000000C2
:101B0000000000000000000000000000101010FEA7
:101B1000FE000000000000000000000000000000C7
:101B20000000000000000000000000001010FEFE99
:101B300000FEFE00000000000000000000000000A9
:101B4000000000000000000000000000282828FE1F
:101B5000FE00000000000000000000000000000087
:101B60000000000000000000000000002828FEFE29
:101B700000FEFE0000000000000000000000000069
:101B800000000000000000808080C0C08080808055
:101B90000000000000000000000000000000000045
:101BA0000000000000808080C0C08080808080FEB7
:101BB000FE10100000000000000000000000000106
:101BC0000100000000808080C0C080808080FEFE18
:101BD00010FEFE00000000000000000000000101F7
:101BE0000001010000808080C0C08080808080FE75
:101BF000FE000000000000000000000000000001E6
:101C0000010000000000008080C0C080C0C0808053
:101C100000000000000000000000000000000000C4
:101C20000000000000000080808080808080808034
:101C300000000000000000000000000101000000A2
:101C4000000000000080808080808080808888FE86
:101C5000FE00000000000000010100000000000183
:101C60000100000000808080808080808888FEFEE7
:101C700000FEFE0000000000010100000000010164
:101C8000000101000080808080808080808080FE54
:101C9000FE00000000000000010100000000000143
:101CA00001000000000000808080808080808080B3
:101CB0000000000000000000000101000101000020
:101CC0000000000000000080808080808080808094
:101CD0000000000000000000000000000000000004
:101CE000000000000080808080808080808080FEF6
:101CF000FE000000000000000000000000000001E5
:101D0000010000000000000000000000000000FED4
:101D1000FE000000000000000000000000000000C5
:101D200000000000000000000000000000000000B3
:101D300000000000000000000000000000000000A3
:101D4000000000000000000000000000000000FE95
:101D5000FE10100000000000000000000000000065
:101D60000000000000000000000000000000FEFE77
:101D700010FEFE0000000000000000000000000057
:101D8000000000000000000000000000000000FE55
:101D9000FE282800000000000000000000000000F5
:101DA0000000000000000000000000000000FEFE37
:101DB00028FEFE00000000000000000000000000FF
:101DC000000000000000000000000000101010FEE5
:101DD000FE00000000000000000000000000000005
:101DE0000000000000000000000000001010FEFED7
:101DF00000FEFE00000000000000000000000000E7
:101E0000000000000000000000000000282828FE5C
:101E1000FE000000000000000000000000000000C4
:101E20000000000000000000000000002828FEFE66
:101E300000FEFE00000000000000000000000000A6
:101E400000000000000000808080C0C08080808092
:101E50000000000000000000000000000000000082
:101E60000000000000808080C0C08080808080FEF4
:101E7000FE10100000000000000000000000000143
:101E80000100000000808080C0C080808080FEFE55
:101E900010FEFE0000000000000000000000010134
:101EA0000001010000808080C0C08080808080FEB2
:101EB000FE00000000000000000000000000000123
:101EC000010000000000008080C0C080C0C0808091
:101ED0000000000000000000000000000000000002
:101EE0000000000000000080808080808080808072
:101EF00000000000000000000000000101000000E0
:101F0000000000000080808080808080808888FEC3
:101F1000FE000000000000000101000000000001C0
:101F20000100000000808080808080808888FEFE24
:101F300000FEFE00000000000101000000000101A1
:101F4000000101000080808080808080808080FE91
:101F5000FE00000000000000010100000000000180
:101F600001000000000000808080808080808080F0
:101F7000000000000000000000010100010100005D
:101F800000000000000000808080808080808080D1
:101F90000000000000000000000000000000000041
:101FA000000000000080808080808080808080FE33
:101FB000FE00000000000000000000000000000122
:101FC000010000000000000000000000000000FE12
:101FD000FE00000000000000000000000000000003
:101FE00000000000000000000000000000000000F1
:101FF00000000000000000000000000000000000E1
:1020000000000000000000000000000000000000D0
:102010000000000000000000000002020202023E78
:102020003E00000000000000000000000000000072
:102030000000000000000000000002023E3E023EE0
:102040003E00000000000000000000000000000052
:102050000000000000000202023E3E20301E1E3042
:102060002000000000000000000000000000000050
:10207000000000000000000000003E3E2020202064
:102080002000000000000000000000000000000030
:10209000000000000000003E3E202022321E1E32C2
:1020A000220000000000000000000000000000000E
:1020B000000000000000003E3E2020143C2E2E3C7C
:1020C00014000000000000000000000000000000FC
:1020D000000000000000000000003E3E22222222FC
:1020E00022000000000000000000000000000000CE
:1020F000000000000000000000003A3A2A2A2A2EC0
:102100002E000000000000000000000000000000A1
:10211000000000000000003A3A2A2E2E0202023E81
:102120003E00000000000000000000000000000071
:102130000000000000003A3A2A2E2E3E3E223E3E8B
:10214000000000000000000000000000000000008F
:10215000000000000000003A3A2E2E3E3E28283EA5
:102160003E00000000000000000000000000000031
:10217000000000000000003A3A2E2E20301E1E30D3
:10218000200000000000000000000000000000002F
:10219000000000000000003A3A2A2E2E3E3E2A2A75
:1021A0002A00000000000000000000000000000005
:1021B0000000000000003A3A2E2E223E3E223E3E13
:1021C00022000000000000000000000000000000ED
:1021D000000000000000003A3A2E2E143C2E2E3C47
:1021E00014000000000000000000000000000000DB
:1021F0000000000000000000003E3E222222223E9D
:102200003E00000000000000000000000000000090
:102210000000000000000000003E3E282828283E64
:102220003E00000000000000000000000000000070
:10223000000000000000003E3E283E3E20301E1EF2
:10224000302000000000000000000000000000003E
:102250000000000000000000002030180E0E1830B2
:10226000200000000000000000000000000000004E
:102270000000000000000020301E1E30301E1E3006
:10228000200000000000000000000000000000002E
:10229000000000000000000000183C664242663C5E
:1022A0001800000000000000000000000000000016
:1022B00000000000000000000022321A0E0E1A3248
:1022C00022000000000000000000000000000000EC
:1022D00000000000000000000024341C0E0E1C341E
:1022E00024000000000000000000000000000000CA
:1022F0000000000000000000000A0A0A0A0A0A3E64
:102300003E0000000000000000000000000000008F
:102310000000000000000000003E3E2A2A2A2A2A6F
:102320002A00000000000000000000000000000083
:10233000000000000000000000223E3E22223E3E3F
:10234000220000000000000000000000000000006B
:10235000000000000000000000143C6C46466C3C8D
:102360001400000000000000000000000000000059
:10237000000000000000000000000000000000005D
:10238000000000000000000000000000000000004D
:102390000000000000000000000002020202023EF5
:1023A0003E000000000000000000000000000000EF
:1023B0000000000000000000000002023E3E023E5D
:1023C0003E000000000000000000000000000000CF
:1023D0000000000000000202023E3E20301E1E30BF
:1023E00020000000000000000000000000000000CD
:1023F000000000000000000000003E3E20202020E1
:1024000020000000000000000000000000000000AC
:10241000000000000000003E3E202022321E1E323E
:10242000220000000000000000000000000000008A
:10243000000000000000003E3E2020143C2E2E3CF8
:102440001400000000000000000000000000000078
:10245000000000000000000000003E3E2222222278
:10246000220000000000000000000000000000004A
:10247000000000000000000000003A3A2A2A2A2E3C
:102480002E0000000000000000000000000000001E
:10249000000000000000003A3A2A2E2E0202023EFE
:1024A0003E000000000000000000000000000000EE
:1024B0000000000000003A3A2A2E2E3E3E223E3E08
:1024C000000000000000000000000000000000000C
:1024D000000000000000003A3A2E2E3E3E28283E22
:1024E0003E000000000000000000000000000000AE
:1024F000000000000000003A3A2E2E20301E1E3050
:1025000020000000000000000000000000000000AB
:10251000000000000000003A3A2A2E2E3E3E2A2AF1
:102520002A00000000000000000000000000000081
:102530000000000000003A3A2E2E223E3E223E3E8F
:102540002200000000000000000000000000000069
:10255000000000000000003A3A2E2E143C2E2E3CC3
:102560001400000000000000000000000000000057
:102570000000000000000000003E3E222222223E19
:102580003E0000000000000000000000000000000D
:102590000000000000000000003E3E282828283EE1
:1025A0003E000000000000000000000000000000ED
:1025B000000000000000003E3E283E3E20301E1E6F
:1025C00030200000000000000000000000000000BB
:1025D0000000000000000000002030180E0E18302F
:1025E00020000000000000000000000000000000CB
:1025F0000000000000000020301E1E30301E1E3083
:1026000020000000000000000000000000000000AA
:10261000000000000000000000183C664242663CDA
:102620001800000000000000000000000000000092
:1026300000000000000000000022321A0E0E1A32C4
:102640002200000000000000000000000000000068
:1026500000000000000000000024341C0E0E1C349A
:102660002400000000000000000000000000000046
:102670000000000000000000000A0A0A0A0A0A3EE0
:102680003E0000000000000000000000000000000C
:102690000000000000000000003E3E2A2A2A2A2AEC
:1026A0002A00000000000000000000000000000000
:1026B000000000000000000000223E3E22223E3EBC
:1026C00022000000000000000000000000000000E8
:1026D000000000000000000000143C6C46466C3C0A
:1026E00014000000000000000000000000000000D6
:1026F00000000000000000000000000000000000DA
:1027000000000000000000000000000000000000C9
:1027100000000000000000000000000002020202B1
:10272000023E3E000000000000000000000000002B
:1027300000000000000000000000000002023E3E19
:10274000023E3E000000000000000000000000000B
:1027500000000000000000000202023E3E20301E89
:102760001E302000000000000000000000000000FB
:102770000000000000000000000000003E3E20209D
:1027800020202000000000000000000000000000E9
:102790000000000000000000003E3E202022321E0B
:1027A0001E322200000000000000000000000000B7
:1027B0000000000000000000003E3E2020143C2EDF
:1027C0002E3C14000000000000000000000000008B
:1027D0000000000000000000000000003E3E222239
:1027E0002222220000000000000000000000000083
:1027F0000000000000000000000000003A3A2A2A11
:102800002A2E2E0000000000000000000000000042
:102810000000000000000000003A3A2A2E2E0202BA
:10282000023E3E000000000000000000000000002A
:102830000000000000000000003A3A2A2E2E3E3E22
:10284000223E3E00000000000000000000000000EA
:102850000000000000000000003A3A2E2E3E3E2804
:10286000283E3E00000000000000000000000000C4
:102870000000000000000000003A3A2E2E20301E1A
:102880001E302000000000000000000000000000DA
:102890000000000000000000003A3A2A2E2E3E3EC2
:1028A0002A2A2A00000000000000000000000000AA
:1028B00000000000000000003A3A2E2E223E3E2288
:1028C0003E3E22000000000000000000000000006A
:1028D0000000000000000000003A3A2E2E143C2EAA
:1028E0002E3C14000000000000000000000000006A
:1028F00000000000000000000000003E3E222222F6
:10290000223E3E0000000000000000000000000029
:1029100000000000000000000000003E3E282828C3
:10292000283E3E0000000000000000000000000003
:102930000000000000000000003E3E283E3E203027
:102940001E1E3020000000000000000000000000FB
:1029500000000000000000000000002030180E0EF3
:1029600018302000000000000000000000000000FF
:1029700000000000000000000020301E1E30301E4D
:102980001E302000000000000000000000000000D9
:102990000000000000000000000000183C664242F9
:1029A000663C18000000000000000000000000006D
:1029B000000000000000000000000022321A0E0E8D
:1029C0001A32220000000000000000000000000099
:1029D000000000000000000000000024341C0E0E67
:1029E0001C34240000000000000000000000000073
:1029F00000000000000000000000000A0A0A0A0AA5
:102A00000A3E3E0000000000000000000000000040
:102A100000000000000000000000003E3E2A2A2ABC
:102A20002A2A2A0000000000000000000000000028
:102A30000000000000000000000000223E3E2222B4
:102A40003E3E2200000000000000000000000000E8
:102A50000000000000000000000000143C6C46462E
:102A60006C3C1400000000000000000000000000AA
:102A70000000000000000000000000000000000056
:102A80000000000000000000000000000000000046
:102A9000000000000000000002020202023E3E00B0
:102AA0000000000000000000000000000000000026
:102AB000000000000000000002023E3E02023E3E16
:102AC0000000000000000000000000000000000006
:102AD000000000000000000202023E3E20301E1EE8
:102AE0003020000000000000000000000000000096
:102AF00000000000000000003E3E202020202000BA
:102B000000000000000000000000000000000000C5
:102B100000000000000000003E3E202022321E1E69
:102B20003222000000000000000000000000000051
:102B300000000000000000003E3E2020143C2E2E2D
:102B40003C14000000000000000000000000000035
:102B50000000000000000000003E3E22222222224F
:102B60000000000000000000000000000000000065
:102B70000000000000000000003A3A2A2A2A2E2E07
:102B80000000000000000000000000000000000045
:102B900000000000000000003A3A2A2E2E02020235
:102BA0003E3E0000000000000000000000000000A9
:102BB00000000000000000003A3A2A2E2E3E3E227D
:102BC0003E3E000000000000000000000000000089
:102BD00000000000000000003A3A2E2E3E3E282859
:102BE0003E3E000000000000000000000000000069
:102BF00000000000000000003A3A2E2E20301E1E79
:102C00003020000000000000000000000000000074
:102C100000000000000000003A3A2A2E2E3E3E2A14
:102C20002A2A000000000000000000000000000050
:102C3000000000000000003A3A2E2E223E3E223EC6
:102C40003E22000000000000000000000000000024
:102C500000000000000000003A3A2E2E143C2E2EF8
:102C60003C14000000000000000000000000000014
:102C70000000000000000000003E3E2222223E3EF6
:102C80000000000000000000000000000000000044
:102C90000000000000000000003E3E2828283E3EC4
:102CA0000000000000000000000000000000000024
:102CB00000000000000000003E3E283E3E20301E86
:102CC0001E30200000000000000000000000000096
:102CD00000000000000000002030180E0E18302008
:102CE00000000000000000000000000000000000E4
:102CF000000000000000000020301E1E30301E1EAC
:102D00003020000000000000000000000000000073
:102D10000000000000000000183C664242663C18BB
:102D200000000000000000000000000000000000A3
:102D3000000000000000000022321A0E0E1A32229B
:102D40000000000000000000000000000000000083
:102D5000000000000000000024341C0E0E1C34246F
:102D60000000000000000000000000000000000063
:102D70000000000000000000000A0A0A0A0A3E3EA5
:102D80000000000000000000000000000000000043
:102D90000000000000000000003E3E2A2A2A2A2AE5
:102DA0000000000000000000000000000000000023
:102DB000000000000000000000223E3E223E3E22B5
:102DC0000000000000000000000000000000000003
:102DD0000000000000000000143C6C46466C3C14EF
:102DE00000000000000000000000000000000000E3
:102DF00000000000F0082808082808F00708090B60
:102E00000B090807F0F8D8F8F8D8F8F0070F0E0CFF
:102E10000C0E0F0700F0F8F8F0F8F8F000000307C8
:102E20000F0703000080C0E0F0E0C0800000010355
:102E30000703010000C0C0F8F8F8C0C000030B0988
:102E40000F090B0300C0E0F0F8F0E0C000010B0B2D
:102E50000F0B0B01000080C0C080000000000103C8
:102E600003010000FEFE7E3E3E7EFEFE7F7F7E7CF6
:102E70007C7E7F7F00C060202060C00000030604CD
:102E800004060300FE3E9EDEDE9E3EFE7F7C797BD6
:102E90007B797C7F000080C0E8B8187800070F08B5
:102EA000080F07000070F88888F870000002020F11
:102EB0000F020200000000F8F830E0C000060F0F1B
:102EC000070001000000F8F82828F8F800070703B9
:102ED000000E0F0798F0E03838E0F0980C07030E6A
:102EE0000E03070C00F8F0E0C0C08080000F07035D
:102EF00001010000008080C0C0E0F0F80000000187
:102F00000103070F002030F8F83020000002060F00
:102F10000F06020000F8F80000F8F800000D0D00A0
:102F2000000D0D0070F888F8F808F8F80000000FA0
:102F30000F000F0F00D8FC242464CC88000819135C
:102F400012121F0D0000000000000000000F0F0F04
:102F50000F0F0F0F002030F8F83020000012161F5E
:102F60001F161200002030F8F83020000000000F7B
:102F70000F000000000000F8F80000000002060F3B
:102F80000F0602000080808080E0C080000000000A
:102F9000000301000080C0E0808080800000010309
:102FA0000000000000C0C000000000000003030299
:102FB0000202020280C0E08080E0C08000010300C5
:102FC00000030100000000C0F8C00000000C0F0F5B
:102FD0000F0F0F0C001878F8F8F8781800000001AF
:102FE0000F010000000000000000000000000000D1
:102FF00000000000000070F8F87000000000000DF4
:103000000D00000000203C1C203C1C0000000000C3
:10301000000000000020F8F820F8F82000020F0F50
:10302000020F0F020060F0909C9CB020000206048A
:103030001C1C07030070700080C06030000C060389
:1030400001000E0E0000B0F8C878B08000070F082D
:1030500009070F080000203C1C00000000000000D1
:10306000000000000000E0F0180800000000030766
:103070000C08000000000818F0E000000000080C38
:103080000703000080A0E0C0C0E0A08000020301B0
:1030900001030200808080F0F08080800000000743
:1030A0000700000000000000000000000000101EEB
:1030B0000E00000000808080808080800000000082
:1030C0000000000000000000000000000000000CF4
:1030D0000C0000000000000080C06030000C0603FF
:1030E0000100000000F0F888C868F8F000070F0938
:1030F00008080F07002030F8F80000000008080F4B
:103100000F0808000010180888C87830000C0E0B53
:1031100009080C0C001018888888F87000040C0846
:1031200008080F070080C06030F8F80000010101B6
:10313000090F0F0900F8F8888888880800040C082F
:1031400008080F0700E0F0988888880000070F083B
:1031500008080F070018180888C878380000000F02
:103160000F0000000070F8888888F87000070F08CA
:1031700008080F070070F8888888F8F00000080831
:10318000080C0703000000303000000000000006BB
:103190000600000000000030300000000000101E9B
:1031A0000E0000000080C06030180800000001031D
:1031B000060C08000040404040404040000202022F
:1031C000020202020008183060C0800000080C06ED
:1031D0000301000000101888C84878300000000D76
:1031E0000D00000000F0F808C8C8F8F000070F084C
:1031F0000B0B0B0000C0E0301830E0C0000F0F01D7
:1032000001010F0F0008F8F88888F87000080F0F08
:1032100008080F0700E0F018080818300003070C32
:1032200008080C060008F8F80818F0E000080F0F6E
:10323000080C07030008F8F888C8183800080F0FB2
:1032400008090C0E0008F8F888C8183800080F0F95
:103250000801000000E0F018080818300003070C0F
:103260000909070F00F8F8808080F8F8000F0F00B8
:1032700000000F0F000008F8F80800000000080F19
:103280000F0800000000000808F8F80800040C0807
:10329000080F07000008F8F880E0781800080F0F02
:1032A00000030F0C0008F8F80800000000080F0FDA
:1032B00008080C0E00F8F870E070F8F8000F0F0026
:1032C00000000F0F00F8F870E0C0F8F8000F0F00D2
:1032D00000010F0F00E0F0180818F0E00003070CE1
:1032E000080C07030008F8F88888F87000080F0F2A
:1032F0000800000000E0F0180818F0E00003171CB8
:10330000181C37230008F8F88888F87000080F0F99
:1033100000010F0E003078C88888383000060E088B
:1033200008090F06180808F8F80808180000080F20
:103330000F08000000F8F8000000F8F800070F0878
:1033400008080F0700F8F8000000F8F8000103066D
:103350000C06030100F8F8008000F8F8000F0F07D2
:1033600003070F0F003878C080C07838000E0F01B7
:1033700000010F0E183860C0C06038180000080F38
:103380000F08000000389888C8E8B818000C0E0B29
:1033900009080C0E0000F8F80808000000000F0FE4
:1033A00008080000003060C080000000000000003D
:1033B0000103060C00000808F8F8000000000808E7
:1033C0000F0F00000010180C060C18100000000071
:1033D000000000000000000000000000202020206D
:1033E000202020200000001C3C20000000000000E5
:1033F000000000000000404040C0800000060F09AF
:1034000009070F080008F8F840C0800000080F07FF
:1034100008080F070080C0404040C08000070F0828
:1034200008080C04000080C048F8F80000070F08E6
:1034300008070F080080C0404040C08000070F0907
:1034400009090D050080F0F88898100000080F0F9A
:10345000080000000080C0404080C04000133724B6
:10346000243F1F000008F8F8C040C08000080F0F7C
:1034700000000F0F000040D8D80000000000080F27
:103480000F0800000000000040D8D80000103020D5
:10349000203F1F000008F8F80080C04000080F0F10
:1034A00003070C08000008F8F80000000000080FEF
:1034B0000F08000000C0C0C080C0C080000F0F0017
:1034C00007000F0F0040C0804040C08000000F0F79
:1034D00000000F0F0080C0404040C08000070F0870
:1034E00008080F070040C0804040C08000203F3FD8
:1034F000240407030080C0404080C040000307044C
:10350000243F3F200040C080C040C08000080F0F13
:10351000080000000080C0404040C08000040D0949
:103520000B0A0E040040F0F8404040000000070F76
:10353000080C040000C0C00000C0C00000070F0855
:1035400008070F0800C0C0000000C0C0000103064B
:103550000C06030100C0C0000000C0C000070F0C33
:10356000070C0F070040C0800080C04000080C0717
:1035700003070C080040C0800000C0C000202137B5
:103580001E0F030000C0C04040C0C04000090C0E28
:103590000B090C0E008080F078080800000000077E
:1035A0000F08080000000078780000000000000FFD
:1035B0000F00000000080878F08080000008080F65
:1035C000070000000010180818101808000000007C
:1035D00000000000000080C060C0800000070704F9
:1035E000040407070000000080C0C0C0C0C0C08045
:1035F0000000000000F8FE7F070301000001030740
:103600007FFEF80000FFFFF0000000000000000057
:10361000F0FFFF00000003070F1E1C18181C1E0FF0
:10362000070300000000000000000000C0C0000010
:10363000000000000000000006060707FFFF000072
:10364000000000000000000000000000FFFF00007C
:103650000000000000000000000000001F1F00002C
:10366000000000000000000080C0C0C0C0C0C0C09A
:103670008000000000003E3F0701010000000183C0
:10368000E7FFFE00000080C0E070381C1C0E07073A
:1036900003010000001F1F1F181818181818181809
:1036A0001818181800000080C0C0C0C0C0C0C0C03A
:1036B00080000000001E1F070301010000818183BC
:1036C000E7FF3E0000E0E08000000303030307077C
:1036D0009FFEF8000003070F1E1C1C18181C1C1E60
:1036E0000F07030000000000000000000000C0C041
:1036F000C00000000000000080E0F0783E0F07FFEF
:10370000FF000000E0F8FCDFC7C3C0C0C0C0C0FFBE
:10371000FFC0C0C000000000000000000000001F4B
:103720001F000000000000C0C0C0C0C0C0C0C0C0BA
:10373000C0C000000000F8FFFFC0C0C0C0C0C0C0D3
:1037400080000000000007070301010000010103E1
:103750008FFFFE0000070F1E1C1C1818181C1C1ED3
:103760000F0703000000000080C0C0C0C0C0C0C080
:10377000C080000000F0FCFF8FC3C1C1C0C0C1C148
:103780008307070000FFFF8F030101000001010311
:103790008FFFFE000001070F1E1C1C18181C1C1EAA
:1037A0000F07030000C0C0C0C0C0C0C0C0C0C0C0C0
:1037B000C0C0C0C0000000000000000000C0F0F861
:1037C0003E0F0301000000000000E0FCFF0F0300BB
:1037D0000000000000000000001F1F1F000000008C
:1037E0000000000000000080C0C0C0C0C0C0C0C059
:1037F00080000000007EFFE7C3818100008181C35B
:10380000E7FF7E0000F8FCBF0F070703030307076D
:103810000FBEFCF80003070F1E1C1C1818181C1CF8
:103820001E0F070300000080C0C0C0C0C0C0C0C0E1
:103830008000000000FEFF8F030101000001010372
:103840008FFFFC000003070F1E1C1C18181C1C0E09
:10385000FFFFFF0000070F1E1C1C18181C1C1E0F6A
:1038600007030000000000000000004F00000007F8
:10387000000700147F147F14242A7F2A12231308C0
:10388000646236495522500005030000001C2241A5
:10389000000041221C0014083E081408083E0808D5
:1038A0000050300000080808080800606000002090
:1038B000100804023E5149453E00427F40004261EB
:1038C0005149462141454B311814127F1027454577
:1038D00045393C4A4949300171090503364949498E
:1038E00036064949291E00363600000056360000CB
:1038F0000814224100141414141400412214080264
:1039000001510906324979413E7E1111117E7F49EC
:103910004949363E414141227F4141221C7F49496C
:1039200049417F090909013E4149497A7F08080850
:103930007F00417F41002040413F017F0814224128
:103940007F404040407F020C027F7F0408107F3E92
:103950004141413E7F090909063E4151215E7F09EF
:10396000192946264949493201017F01013F40405A
:10397000403F1F2040201F3F4038403F6314081441
:103980006307087008076151494543007F414100C2
:1039900002040810200041417F000402010204409B
:1039A00040404040000102040020545454787F48B5
:1039B0004444383844444420384444487F385454BC
:1039C0005418087E0901020C5252523E7F0804042A
:1039D0007800047D00002040443D007F1028440012
:1039E00000417F40007C0418047C7C080404783883
:1039F000444444387C14141408081414187C7C08BB
:103A00000404084854545420043F4440203C40409F
:103A1000207C1C2040201C3C4030403C4428102886
:103A2000440C5050503C4464544C4400083641000F
:103A30000000770000004136080008040810080064
:103A40000000000000000102030405060708090A3F
:103A50000B0C0D0E0F1011121300000001020304D5
:103A6000050000060708090A0B00000C0D0E0F10D8
:103A700011000012131415000001020304050607CB
:103A800008090A0B0C0D0E0F100011121314151655
:103A90001718191A1B0000000000000000000103A5
:103AA00003030102040404020103000005050505E7
:103AB00005050505060707070606070707060607A3
:103AC00005000002000201020102030002010303DB
:103AD00001020103030101886188628865886888A2
:103AE00069886A886B887188738874887588768815
:103AF0007788788879887B887C887D8881888288A7
:103B00008588898891889388958896889788A188E0
:103B1000A288A588A988B588B788C188C588C988BA
:103B2000E188E288E588E888E988EB88F188F3880D
:103B3000F588F688F788F888FB88FC88FD89418934
:103B40004589498951895389558956895789618998
:103B500062896389658968896989718973897589C9
:103B6000768977897B8981898589898993899589EE
:103B7000A189A289A589A889A989AB89AD89B089BC
:103B8000B189B389B589B789B889C189C289C5891D
:103B9000C989CB89D189D389D589D789E189E58933
:103BA000E989F389F689F78A418A428A458A498AEE
:103BB000518A538A558A578A618A658A698A738AC3
:103BC000758A818A828A858A888A898A8A8A8B8A82
:103BD000908A918A938A958A978A988AA18AA28ADA
:103BE000A58AA98AB68AB78AC18AD58AE18AE28A71
:103BF000E58AE98AF18AF38AF58B418B458B498BFB
:103C0000618B628B658B688B698B6A8B718B738B15
:103C1000758B778B818BA18BA28BA58BA88BA98BA6
:103C2000AB8BB18BB38BB58BB78BB88BBC8C618CEA
:103C3000628C638C658C698C6B8C718C738C758CCD
:103C4000768C778C7B8C818C828C858C898C918C0A
:103C5000938C958C968C978CA18CA28CA98CE18CE2
:103C6000E28CE38CE58CE98CF18CF38CF58CF68C92
:103C7000F78D418D428D458D518D558D578D618DBF
:103C8000658D698D758D768D7B8D818DA18DA28DD4
:103C9000A58DA78DA98DB18DB38DB58DB78DB88D3F
:103CA000B98DC18DC28DC98DD68DD78DE18DE28D37
:103CB000F78E418E458E498E518E538E578E618E72
:103CC000818E828E858E898E908E918E938E958E2A
:103CD000978E988EA18EA98EB68EB78EC18EC28E0B
:103CE000C58EC98ED18ED38ED68EE18EE58EE98EAD
:103CF000F18EF38F418F618F628F658F678F698F30
:103D00006B8F708F718F738F758F778F7B8FA18F74
:103D1000A28FA58FA98FB18FB38FB58FB790619008
:103D2000629063906590689069906A906B907190D2
:103D30007390759076907790789079907B907D9045
:103D40008190829085908990919093909590969093
:103D50009790A190A290A590A990B190B790E19072
:103D6000E290E490E590E990EB90EC90F190F39084
:103D7000F590F690F790FD914191429145914991CE
:103D800051915391559156915791619162916591DD
:103D9000699171917391769177917A9181918591E1
:103DA000A191A291A591A991AB91B191B391B59136
:103DB000B791BC91BD91C191C591C991D6924192E3
:103DC00045924992519253925592619262926592B4
:103DD000699273927592779281928292859288927B
:103DE00089929192939295929792A192B692C19252
:103DF000E192E592E992F192F393419342934993D0
:103E000051935393579361936293659369936A9324
:103E10006B93719373937593779378937C9381935A
:103E200085938993A193A293A593A993AB93B193FF
:103E3000B393B593B793BC9461946294639465947F
:103E4000689469946A946B946C947094719473946C
:103E5000759476947794789479947D9481948294EF
:103E60008594899491949394959496949794A1941D
:103E7000E194E294E394E594E894E994EB94EC946F
:103E8000F194F394F594F794F994FC954195429547
:103E900045954995519553955595569557956195E5
:103EA000659569957695779581958595A195A29566
:103EB000A595A895A995AB95AD95B195B395B595F3
:103EC000B795B995BB95C195C595C995E195F696F8
:103ED0004196459649965196539655966196819688
:103EE0008296859689969196939695969796A196A1
:103EF000B696C196D796E196E596E996F396F5962D
:103F0000F7974197459749975197579761976297C8
:103F10006597689769976B97719773977597779778
:103F20008197A197A297A597A897A997B197B397BB
:103F3000B597B697B797B898619862986598699859
:103F4000719873987598769877987D9881988298EB
:103F50008598899891989398959896989798E198CC
:103F6000E298E598E998EB98EC98F198F398F59831
:103F7000F698F798FD99419942994599499951992F
:103F8000539955995699579961997699A199A299FA
:103F9000A599A999B799C199C999E19A419A459A60
:103FA000819A829A859A899A909A919A979AC19AB7
:103FB000E19AE59AE99AF19AF39AF79B619B629BE1
:103FC000659B689B699B719B739B759B819B859B84
:103FD000899B919B939BA19BA59BA99BB19BB39B09
:103FE000B59BB79C619C629C659C699C719C739C11
:103FF000759C769C779C789C7C9C7D9C819C829C0B
:10400000859C899C919C939C959C969C979CA19C3B
:10401000A29CA59CB59CB79CE19CE29CE59CE99C7C
:10402000F19CF39CF59CF69CF79CFD9D419D429D67
:10403000459D499D519D539D559D579D619D629DF7
:10404000659D699D719D739D759D769D779D819DF3
:10405000859D939D959DA19DA29DA59DA99DB19D89
:10406000B39DB59DB79DC19DC59DD79DF69E419EB3
:10407000459E499E519E539E559E579E619E659EAC
:10408000699E739E759E779E819E829E859E899E67
:10409000919E939E959E979EA19EB69EC19EE19EE7
:1040A000E29EE59EE99EF19EF59EF79F419F429F0D
:1040B000459F499F519F539F559F579F619F629F67
:1040C000659F699F719F739F759F779F789F7B9F67
:1040D0007C9FA19FA29FA59FA99FB19FB39FB59FC2
:1040E000B7A061A062A065A067A068A069A06AA04F
:1040F0006BA071A073A075A077A078A07BA07DA015
:1041000081A082A085A089A091A093A095A096A04F
:1041100097A098A0A1A0A2A0A9A0B7A0E1A0E2A00A
:10412000E5A0E9A0EBA0F1A0F3A0F5A0F7A0F8A00E
:10413000FDA141A142A145A149A151A153A155A170
:1041400056A157A161A162A165A169A175A176A13E
:1041500077A179A181A1A1A1A2A1A4A1A5A1A9A1B1
:10416000ABA1B1A1B3A1B5A1B7A1C1A1C5A1D6A170
:10417000D7A241A245A249A253A255A257A261A229
:1041800065A269A273A275A281A282A283A285A25E
:1041900088A289A28AA28BA291A293A295A297A299
:1041A0009BA29DA2A1A2A5A2A9A2B3A2B5A2C1A2AF
:1041B000E1A2E5A2E9A341A345A349A351A355A3C5
:1041C00061A365A369A371A375A3A1A3A2A3A5A3DA
:1041D000A8A3A9A3ABA3B1A3B3A3B5A3B6A3B7A345
:1041E000B9A3BBA461A462A463A464A465A468A4E5
:1041F00069A46AA46BA46CA471A473A475A477A425
:104200007BA481A482A485A489A491A493A495A449
:1042100096A497A49BA4A1A4A2A4A5A4B3A4E1A43A
:10422000E2A4E5A4E8A4E9A4EBA4F1A4F3A4F5A412
:10423000F7A4F8A541A542A545A548A549A551A5BE
:1042400053A555A556A557A561A562A565A569A560
:1042500073A575A576A577A57BA581A585A5A1A53F
:10426000A2A5A3A5A5A5A9A5B1A5B3A5B5A5B7A5C3
:10427000C1A5C5A5D6A5E1A5F6A641A642A645A617
:1042800049A651A653A661A665A681A682A685A6C3
:1042900088A689A68AA68BA691A693A695A697A678
:1042A0009BA69CA6A1A6A9A6B6A6C1A6E1A6E2A623
:1042B000E5A6E9A6F7A741A745A749A751A755A78E
:1042C00057A761A762A765A769A771A773A775A775
:1042D000A1A7A2A7A5A7A9A7ABA7B1A7B3A7B5A751
:1042E000B7A7B8A7B9A861A862A865A869A86BA86C
:1042F00071A873A875A876A877A87DA881A882A8B8
:1043000085A889A891A893A895A896A897A8A1A8D8
:10431000A2A8B1A8E1A8E2A8E5A8E8A8E9A8F1A8A0
:10432000F5A8F6A8F7A941A957A961A962A971A999
:1043300073A975A976A977A9A1A9A2A9A5A9A9A9CF
:10434000B1A9B3A9B7AA41AA61AA77AA81AA82AAE8
:1043500085AA89AA91AA95AA97AB41AB57AB61AB45
:1043600065AB69AB71AB73ABA1ABA2ABA5ABA9ABB2
:10437000B1ABB3ABB5ABB7AC61AC62AC64AC65AC84
:1043800068AC69AC6AAC6BAC71AC73AC75AC76AC58
:1043900077AC7BAC81AC82AC85AC89AC91AC93AC96
:1043A00095AC96AC97ACA1ACA2ACA5ACA9ACB1ACA9
:1043B000B3ACB5ACB7ACC1ACC5ACC9ACD1ACD7AC87
:1043C000E1ACE2ACE3ACE4ACE5ACE8ACE9ACEBAC62
:1043D000ECACF1ACF3ACF5ACF6ACF7ACFCAD41AD8C
:1043E00042AD45AD49AD51AD53AD55AD56AD57ADEF
:1043F00061AD62AD65AD69AD71AD73AD75AD76ADF5
:1044000077AD81AD85AD89AD97ADA1ADA2ADA3ADC1
:10441000A5ADA9ADABADB1ADB3ADB5ADB7ADBBADB0
:10442000C1ADC2ADC5ADC9ADD7ADE1ADE5ADE9AD8D
:10443000F1ADF5ADF6AE41AE45AE49AE51AE53AEBF
:1044400055AE61AE62AE65AE69AE71AE73AE75AEBD
:1044500077AE81AE82AE85AE88AE89AE91AE93AEB8
:1044600095AE97AE99AE9BAE9CAEA1AEB6AEC1AEC8
:10447000C2AEC5AEC9AED1AED7AEE1AEE2AEE5AE2C
:10448000E9AEF1AEF3AEF5AEF7AF41AF42AF49AF33
:1044900051AF55AF57AF61AF62AF65AF69AF6AAFAC
:1044A00071AF73AF75AF77AFA1AFA2AFA5AFA8AF34
:1044B000A9AFB0AFB1AFB3AFB5AFB7AFBCB061B03C
:1044C00062B064B065B069B071B073B076B077B007
:1044D0007DB081B082B085B089B091B093B096B014
:1044E00097B0B7B0E1B0E2B0E5B0E9B0EBB0F1B091
:1044F000F3B0F6B0F7B141B145B149B157B1A1B18F
:10450000A2B1A5B1A8B1A9B1ABB1B1B1B3B1B7B1C5
:10451000C1B1C2B1C5B1D6B1E1B1F6B241B245B295
:1045200049B251B253B261B281B282B285B289B29C
:1045300091B293B297B2A1B2B6B2C1B2E1B2E5B351
:1045400057B361B362B365B369B36BB370B371B39F
:1045500073B381B385B389B391B3A1B3A2B3A5B348
:10456000A9B3B1B3B3B3B5B3B7B461B462B465B40E
:1045700066B467B469B46AB46BB470B471B473B43C
:1045800075B476B477B47BB47CB481B482B485B4AA
:1045900089B491B493B495B496B497B4A1B4A2B4C9
:1045A000A5B4A9B4ACB4B1B4B3B4B5B4B7B4BBB4E6
:1045B000BDB4C1B4C5B4C9B4D3B4E1B4E2B4E5B4D4
:1045C000E6B4E8B4E9B4EAB4EBB4F1B4F3B4F4B4E7
:1045D000F5B4F6B4F7B4F8B4FAB4FCB541B542B5E5
:1045E00045B549B551B553B555B557B561B562B582
:1045F00063B565B569B56BB56CB571B573B574B5B3
:1046000075B576B577B57BB57CB57DB581B585B526
:1046100089B591B593B595B596B5A1B5A2B5A5B532
:10462000A9B5AAB5ABB5ADB5B0B5B1B5B3B5B5B56E
:10463000B7B5B9B5C1B5C2B5C5B5C9B5D1B5D3B5AD
:10464000D5B5D6B5D7B5E1B5E2B5E5B5F1B5F5B5B2
:10465000F7B641B642B645B649B651B653B655B6A9
:1046600057B661B662B665B669B671B673B675B659
:1046700077B681B682B685B689B68AB68BB691B65C
:1046800093B695B697B6A1B6A2B6A5B6A9B6B1B679
:10469000B3B6B6B6B7B6C1B6C2B6C5B6C9B6D1B668
:1046A000D3B6D7B6E1B6E2B6E5B6E9B6F1B6F3B63B
:1046B000F5B6F7B741B742B745B749B751B753B7A2
:1046C00055B757B759B761B762B765B769B76FB72D
:1046D00071B773B775B777B778B779B77AB77BB76C
:1046E0007CB77DB781B785B789B791B795B7A1B7C3
:1046F000A2B7A5B7A9B7AAB7ABB7B0B7B1B7B3B7A9
:10470000B5B7B6B7B7B7B8B7BCB861B862B865B82F
:1047100067B868B869B86BB871B873B875B876B867
:1047200077B878B881B882B885B889B891B893B8A5
:1047300095B896B897B8A1B8A2B8A5B8A7B8A9B8BF
:10474000B1B8B7B8C1B8C5B8C9B8E1B8E2B8E5B84A
:10475000E9B8EBB8F1B8F3B8F5B8F7B8F8B941B9BA
:1047600042B945B949B951B953B955B957B961B900
:1047700065B969B971B973B976B977B981B9A1B9B0
:10478000A2B9A5B9A9B9ABB9B1B9B3B9B5B9B7B9F6
:10479000B8B9B9B9BDB9C1B9C2B9C9B9D3B9D5B92F
:1047A000D7B9E1B9F6B9F7BA41BA45BA49BA51BA77
:1047B00053BA55BA57BA61BA62BA65BA77BA81BA0A
:1047C00082BA85BA89BA8ABA8BBA91BA93BA95BABB
:1047D00097BAA1BAB6BAC1BAE1BAE2BAE5BAE9BAC9
:1047E000F1BAF3BAF5BB41BB45BB49BB51BB61BB99
:1047F00062BB65BB69BB71BB73BB75BB77BBA1BB40
:10480000A2BBA5BBA8BBA9BBABBBB1BBB3BBB5BB74
:10481000B7BBB8BBBBBBBCBC61BC62BC65BC67BC46
:1048200069BC6CBC71BC73BC75BC76BC77BC81BC0C
:1048300082BC85BC89BC91BC93BC95BC96BC97BC22
:10484000A1BCA5BCB7BCE1BCE2BCE5BCE9BCF1BC09
:10485000F3BCF5BCF6BCF7BD41BD57BD61BD76BD2F
:10486000A1BDA2BDA5BDA9BDB1BDB3BDB5BDB7BDFF
:10487000B9BDC1BDC2BDC9BDD6BDE1BDF6BE41BE5B
:1048800045BE49BE51BE53BE77BE81BE82BE85BE07
:1048900089BE91BE93BE97BEA1BEB6BEB7BEE1BFF4
:1048A00041BF61BF71BF75BF77BFA1BFA2BFA5BF29
:1048B000A9BFB1BFB3BFB7BFB8BFBDC061C062C001
:1048C00065C067C069C071C073C075C076C077C06D
:1048D00078C081C082C085C089C091C093C095C096
:1048E00096C097C0A1C0A5C0A7C0A9C0B1C0B7C09D
:1048F000E1C0E2C0E5C0E9C0F1C0F3C0F5C0F6C058
:10490000F7C141C142C145C149C151C153C155C19E
:1049100057C161C165C176C181C185C197C1A1C1BE
:10492000A2C1A5C1A9C1B1C1B3C1B5C1B7C1C1C1FE
:10493000C5C1C9C1D7C241C245C249C251C253C291
:1049400055C257C261C271C281C282C285C289C2C8
:1049500091C293C295C297C2A1C2B6C2C1C2C5C21A
:10496000E1C2E5C2E9C2F1C2F3C2F5C2F7C341C375
:1049700045C349C351C357C361C362C365C369C358
:1049800071C373C375C377C3A1C3A2C3A5C3A8C3AF
:10499000A9C3AAC3B1C3B3C3B5C3B7C461C462C416
:1049A00065C469C471C473C475C477C481C482C446
:1049B00085C489C491C493C495C496C497C4A1C442
:1049C000A2C4B7C4E1C4E2C4E5C4E8C4E9C4F1C404
:1049D000F3C4F5C4F6C4F7C541C542C545C549C5CC
:1049E00051C553C555C557C561C565C569C571C5AF
:1049F00073C575C576C577C581C5A1C5A2C5A5C551
:104A0000A9C5B1C5B3C5B5C5B7C5C1C5C2C5C5C5BD
:104A1000C9C5D1C5D7C5E1C5F7C641C649C661C636
:104A200081C682C685C689C691C693C695C697C6F5
:104A3000A1C6A5C6A9C6B7C6C1C6D7C6E1C6E2C645
:104A4000E5C6E9C6F1C6F3C6F5C6F7C741C745C70F
:104A500049C751C761C762C765C769C771C773C70F
:104A600077C7A1C7A2C7A5C7A9C7B1C7B3C7B5C7ED
:104A7000B7C861C862C865C869C86AC871C873C860
:104A800075C876C877C881C882C885C889C891C8E2
:104A900093C895C896C897C8A1C8B7C8E1C8E2C866
:104AA000E5C8E9C8EBC8F1C8F3C8F5C8F6C8F7C946
:104AB00041C942C945C949C951C953C955C957C94D
:104AC00061C965C976C981C985C9A1C9A2C9A5C974
:104AD000A9C9B1C9B3C9B5C9B7C9BCC9C1C9C5C9D3
:104AE000E1CA41CA45CA55CA57CA61CA81CA82CAFF
:104AF00085CA89CA91CA93CA95CA97CAA1CAB6CAB1
:104B0000C1CAE1CAE2CAE5CAE9CAF1CAF3CAF7CB27
:104B100041CB45CB49CB51CB57CB61CB62CB65CB9E
:104B200068CB69CB6BCB71CB73CB75CB81CB85CB92
:104B300089CB91CB93CBA1CBA2CBA5CBA9CBB1CB2E
:104B4000B3CBB5CBB7CC61CC62CC63CC65CC69CCF4
:104B50006BCC71CC73CC75CC76CC77CC7BCC81CC48
:104B600082CC85CC89CC91CC93CC95CC96CC97CC6F
:104B7000A1CCA2CCE1CCE2CCE5CCE9CCF1CCF3CC1D
:104B8000F5CCF6CCF7CD41CD42CD45CD49CD51CD7B
:104B900053CD55CD57CD61CD65CD69CD71CD73CD9B
:104BA00076CD77CD81CD89CD93CD95CDA1CDA2CD3B
:104BB000A5CDA9CDB1CDB3CDB5CDB7CDC1CDD7CED6
:104BC00041CE45CE61CE65CE69CE73CE75CE81CE57
:104BD00082CE85CE88CE89CE8BCE91CE93CE95CE09
:104BE00097CEA1CEB7CEE1CEE5CEE9CEF1CEF5CFD0
:104BF00041CF45CF49CF51CF55CF57CF61CF65CFAB
:104C000069CF71CF73CF75CFA1CFA2CFA5CFA9CFD9
:104C1000B1CFB3CFB5CFB7D061D062D065D069D0B6
:104C20006ED071D073D075D077D081D082D085D03E
:104C300089D091D093D095D096D097D0A1D0B7D02D
:104C4000E1D0E2D0E5D0E9D0EBD0F1D0F3D0F5D08F
:104C5000F7D141D142D145D149D151D153D155D1CB
:104C600057D161D162D165D169D171D173D175D17B
:104C700076D177D181D185D189D193D1A1D1A2D15A
:104C8000A5D1A9D1AED1B1D1B3D1B5D1B7D1BBD115
:104C9000C1D1C2D1C5D1C9D1D5D1D7D1E1D1E2D10C
:104CA000E5D1F5D1F7D241D242D245D249D253D241
:104CB00055D257D261D265D269D273D275D281D220
:104CC00082D285D289D28ED291D295D297D2A1D2D8
:104CD000A5D2A9D2B1D2B7D2C1D2C2D2C5D2C9D27D
:104CE000D7D2E1D2E2D2E5D2E9D2F1D2F3D2F5D2F3
:104CF000F7D341D342D345D349D351D355D357D317
:104D000061D362D365D367D368D369D36AD371D3D0
:104D100073D375D377D37BD381D385D389D391D301
:104D200093D397D3A1D3A2D3A5D3A9D3B1D3B3D3CC
:104D3000B5D3B70000000000000000000000000034
:104D40000000000000000000000000000000000063
:104D50000000000000000000000000000000000053
:104D6000E010101010101010101010101010101073
:104D70001010101010101010101010101010101033
:104D80001010101010141202020212141010101041
:104D90001010101010101010101010101010101013
:104DA000101010101010101010E000000000000093
:104DB00000000000000000000000000000000000F3
:104DC00000000000000000000000000000000000E3
:104DD00000000000000000000000000000000000D3
:104DE000FF000000000000000000000000000000C4
:104DF00000000000000000000000000000000000B3
:104E000000000000000000C0800000000000000062
:104E10000000000000000000000000000000000092
:104E2000000000000000000000FF00000000000083
:104E3000000000000000000000E010101010101032
:104E40001010101010101010101010101010101062
:104E50001010101010101010101010101010101052
:104E60000F1010101010101010101010101412024B
:104E70000202121410101010101010101010101048
:104E8000101010107C8282DFEFF782827C101010ED
:104E900010101010101010E00000000000000000C2
:104EA000000000000000000000FF00000000000003
:104EB000000000000000000000FF000000000000F3
:104EC00000000000000000000000000000000000E2
:104ED00000000000000000000000000000000000D2
:104EE00000000000000000000000000000000000C2
:104EF00000000000000000000000000000000000B2
:104F000000000000000000C1830700000000000056
:104F100000000000000000FF000000000000000092
:104F2000000000000000000000FF00000000000082
:104F30000000000010101010100F101010101010B2
:104F4000141202020212141010101010101010107F
:104F500000003C4242000010101010101010101001
:104F6000E01010101010101010101010100000425F
:104F70007E420000101010101010101010101010B1
:104F8000101010107C8282DFEFF782827C101010EC
:104F9000101010101010100F10101010101014120C
:104FA0000202021214101010100F10101010101026
:104FB00010100000000000000000000000000000D1
:104FC00000000000000000000000000000000000E1
:104FD00000000000000000000000000000140814A1
:104FE000FF14081400000000000000000000000092
:104FF00000000000000000000000000000000000B1
:105000000000000000000001030700000000000095
:105010000000000000000000000000000000000090
:105020000000000000000000000000000000000080
:105030000000000000000000000000000000000070
:105040000000000000000000000000000000000060
:105050000000000000000000000000000000000050
:105060000F10101010101010101010101014120249
:105070000202121410101010101010101000000076
:1050800000003C7E81BDBD81BDBD81BDBD817E0076
:105090000000000000000000000000000000000010
:1050A0000000000000000000000000000000000000
:1050B00000000000000000000000000000000000F0
:1050C00000000000000000000000000000000000E0
:1050D00000000000000000000000000000000000D0
:1050E00000000000000000000000000000000000C0
:1050F00000000000000000000000000000000000B0
:10510000000000000000000000000000000000009F
:10511000000000000000000000000000000000008F
:10512000000000000000000000000000000000007F
:105130000000002D2D4D4F4455532D31303030207F
:105140005550532D2D000000312E53595354454DC9
:10515000204D4541535552450000000000322E536A
:10516000595354454D204F5045524154494F4E00DC
:105170000000332E53595354454D20484953544F42
:1051800052590000000000342E504152414D455408
:1051900045522053455454494E4700002D2D535934
:1051A0005354454D204F5045524154494F4E2D2D9B
:1051B00000312E434F4E56204D616E75616C204F6D
:1051C000500000000000322E494E56204D616E7591
:1051D000616C204F50000000000000332E417574B8
:1051E0006F204F7065726174696F6E00000000007F
:1051F000342E5472616E7366657220746F2042594A
:105200005000000000352E5472616E736665722086
:10521000746F20494E56000000002D2D5041524120
:105220004D455445522053455454494E472D2D3138
:105230002E5345542056494E204C494D49540000A8
:1052400000000000322E53455420564F555420562E
:10525000414C55450000000000332E534554204278
:105260004154542056414C55452000000000342E36
:10527000534554204153594E432046524551000056
:10528000000000352E534554204741494E2F4F46CC
:105290004653455400000000362E534554205041DB
:1052A0005353574F52442F54494D4500002D2D5311
:1052B000455420564F55542056414C55452D2D00F0
:1052C0000000312E53455420564F5554204C494D23
:1052D00049540000000000322E53455420564F55CB
:1052E0005400000000000000000000002D2D534578
:1052F0005420424154542056414C55452D2D000018
:1053000000312E5345542043555252454E54204CA3
:10531000494D49540000322E53455420564F4C54A9
:10532000414745204C494D49540000332E534554C4
:1053300020455155414C20564F4C544147450000A3
:10534000342E53455420464C4F415420564F4C5414
:105350004147450000352E53455420455155414C99
:105360002043555252454E5400004D4F4442555330
:10537000204F4E0000000000000000000000000070
:10538000000000000000000000000000000000001D
:10539000000042617474657279204F430000000080
:1053A00000000000000000000000000000000000FD
:1053B000000000000000000000004F75747075745C
:1053C000204F43000000000000000000000000002B
:1053D00000000000000000000000000000000000CD
:1053E0000000496E707574204F43000000000000FB
:1053F00000000000000000000000000000000000AD
:10540000000000000000000000004443204C494E12
:105410004B204F560000000000000000000000007C
:10542000000000000000000000000000000000007C
:1054300000004443204C494E4B20555600000000CC
:10544000000000000000000000000000000000005C
:1054500000000000000000000000426174746572EA
:1054600079204F56000000000000000000000000FE
:10547000000000000000000000000000000000002C
:105480000000426174746572792055560000000076
:10549000000000000000000000000000000000000C
:1054A000000000000000000000004F75747075746B
:1054B000204F560000000000000000000000000027
:1054C00000000000000000000000000000000000DC
:1054D00000004F7574707574205556000000000070
:1054E00000000000000000000000000000000000BC
:1054F00000000000000000000000496E707574207C
:105500004F560000000000000000000000000000F6
:10551000000000000000000000000000000000008B
:105520000000496E707574205556000000000000A0
:10553000000000000000000000000000000000006B
:105540000000000000000000000048656174205366
:10555000696E6B204F540000000000000000000046
:10556000000000000000000000000000000000003B
:10557000000046616E204661756C740000000000FA
:10558000000000000000000000000000000000001B
:105590000000000000000000000042617420467519
:1055A0007365204661756C74000000000000000007
:1055B00000000000000000000000000000000000EB
:1055C00000004F75747075742046757365204661D0
:1055D000756C740000000000000000000000000076
:1055E00000000000000000000000496E707574208B
:1055F00046757365204661756C74000000000000FC
:10560000000000000000000000000000000000009A
:10561000000044435F444320474455204661756C75
:105620007400000000000000000000000000000006
:1056300000000000000000000000494E56204744D2
:1056400055204661756C74000000000000000000E9
:10565000000000000000000000000000000000004A
:105660000000434F4E5620474455204661756C74E8
:10567000000000000000000000000000000000002A
:1056800000000000000000000000506F77657220ED
:10569000537461636B204661756C740000000000F8
:1056A00000000000000000000000000000000000FA
:1056B0000000494E562046726571204661756C7433
:1056C00000000000000000000000000000000000DA
:1056D00000000000000000000000496E707574209A
:1056E00046726571204661756C7400000000000010
:1056F00000000000000000000000000000000000AA
:105700000000436861726765204D6F646520466CD8
:105710006F61740000000000000000000000000045
:10572000000000000000000000004368617267652F
:10573000204D6F646520457175616C0000000000AC
:105740000000000000000000000000000000000059
:1057500000004173796E630000000000000000004B
:105760000000000000000000000000000000000039
:105770000000000000000000000053796E6300008C
:105780000000000000000000000000000000000019
:105790000000000000000000000000000000000009
:1057A0000000496E766572746572204F46460000AF
:1057B00000000000000000000000000000000000E9
:1057C00000000000000000000000496E7665727461
:1057D0006572204F4E000000000000000000000035
:1057E00000000000000000000000000000000000B9
:1057F0000000436F6E766572746572204F464600F6
:105800000000000000000000000000000000000098
:1058100000000000000000000000436F6E7665721B
:10582000746572204F4E0000000000000000000070
:105830000000000000000000000000000000000068
:105840000000426174746572792044697363686111
:10585000726765000000000000000000000000000A
:1058600000000000000000000000426174746572D6
:105870007920436861726765000000000000000045
:105880000000000000000000000000000000000018
:1058900000005574696C697479204F75746167658F
:1058A00000000000000000000000000000000000F8
:1058B000000000000000000000005574696C69746D
:1058C00079204F4E000000000000000000000000A2
:1058D00000000000000000000000000000000000C8
:1058E0000000496E7665727465722046656564696C
:1058F0006E670000000000000000000000000000D3
:105900000000000000000000000042797061737325
:105910002046656564696E670000000000000000B5
:105920000000000000000000000000000000000077
:105930000000426174204E4642205472697000009B
:105940000000000000000000000000000000000057
:1059500000000000000000000000496E7075742017
:105960004E464220547269700000000000000000A2
:105970000000000000000000000000000000000027
:105980000000426174204D43204661756C74000034
:105990000000000000000000000000000000000007
:1059A00000000000000000000000496E70757420C7
:1059B0004D43204661756C7400000000000000003B
:1059C00000000000000000000000000000000000D7
:1059D0000000456D657267656E6379204E46422012
:1059E0004F4E00000000000000000000000000001A
:1059F00000000000000000000000456D6572676552
:105A00006E6379204E4642204F464600000000005B
:105A10000000000000000000000000000000000086
:105A200000004F7574707574204E4642204F4E0032
:105A30000000000000000000000000000000000066
:105A4000000000000000000000004F7574707574C5
:105A5000204E4642204F4646000000000000000055
:105A60000000000000000000000000000000000036
:105A700000004279706173732046656564696E67E2
:105A8000204E4642204F4E00000000000000000063
:105A90000000000000000000000042797061737394
:105AA0002046656564696E67204E4642204F464633
:105AB00000000000000000000000000000000000E6
:105AC0000000426174746572792052454C4159203E
:105AD0004F4E000000000000000000000000000029
