:020000020000FC
:100000000C94E6111895189518951895189518954B
:100010001895189518951895189518951895189578
:100020001895189518951895189518951895189568
:100030001895189518951895189518951895189558
:10004000189518950C9432A118951895189518952F
:100050001895189518951895189518951895189538
:10006000189518950C9425A2189518950C94A8A588
:100070001895189518951895189518951895189518
:100080001895189518951895189518951895189508
:1000900018951895189518951895189518951895F8
:1000A00018951895189518951895189518951895E8
:1000B00018951895189518951895189518951895D8
:1000C00018951895189518951895189518951895C8
:1000D00018951895189518951895189518951895B8
:1000E000189518952020204D61696E20204D656E71
:1000F00075202020004D30204F7065726174696F4B
:100100006E20202020004D31204472697665204DFC
:100110006F6E69746F72004D3220506172616D654F
:1001200074657245646974004D33204175746F20A5
:1001300054756E696E672020004D34204661756CE1
:1001400074205265636F726420004D3520496E69DA
:100150007469616C697A65202020004D36205061F9
:100160007373776F72642020202020005B305D2045
:100170004C6F63616C2F52656D6F7465005B315D10
:10018000204469725F4368616E67652020005B32BE
:100190005D205370656564205365745F5074005B27
:1001A000335D2046726571205365745F5074200082
:1001B0005B345D20546F727175655F5365742020E8
:1001C000005B355D20504944205365745F507420B6
:1001D00020002030204F7065726174696F6E20209E
:1001E0002020002031205465726D696E616C2049B9
:1001F0004F202000203220447269766520496E66C7
:100200006F726D20002030204D6F746F722053701C
:100210006565642020002031204F7574707574204E
:100220004672657120200020322044435F4C696E85
:100230006B20566F6C7420002033204D6F746F72EA
:100240002043757272656E74002034204F7574708F
:10025000757420566F6C7420200020352041637423
:1002600075616C20546F7271202000203620546F0D
:1002700072712043757272656E74200020372046BB
:100280006C75782043757272656E7420002038207A
:10029000496E70757420506F776572202000203988
:1002A000204F757470757420506F7765722000311F
:1002B0003020504944205265666572656E63650062
:1002C00031312050494420466565644261636B20AA
:1002D0000020313220504944204572726F72202034
:1002E00020002031332054656D7065726174757221
:1002F00065200030205664635F496E707574205627
:100300006F6C74003120496E7075745F44432043F4
:10031000757272200032204F7574707574202056EB
:100320006F6C742020003320412050686173652079
:10033000437572722020003420422050686173653A
:10034000204375727220200035204320506861736D
:10035000652043757272202000362043757272202A
:100360005265666572656E6365003720566463206A
:100370004572726F722020202020003820496E7054
:10038000757420506F7765722020200039204F75DA
:100390007470757420506F776572202000313020A2
:1003A0004964635F4572726F725F41202000313192
:1003B000204964635F4572726F725F422020003192
:1003C00032204964635F4572726F725F4320200080
:1003D00031332054656D70657261747572652020CB
:1003E0000020302044495B382E2E2E2E2E2E315DDB
:1003F0002000203120444F5B332E315D202020200F
:100400002020003220416E616C6F6720496E70754C
:10041000743120003320416E616C6F6720496E702B
:1004200075743220003420416E616C6F67204F7507
:100430007470757420002030204D6F746F722053DB
:10044000656C20202020003120436F6E74726F6C29
:10045000204D6574686F640020322052554E2F5332
:10046000544F502053726320002033205265662081
:100470004D6574686F642020200020342044726928
:10048000766520506F7765722020002035204472F9
:1004900069766520566F6C74616765002036204F61
:1004A0007074696F6E2043617264202000203720D1
:1004B000536F66747761726520566572200020382C
:1004C00020536F667477617265204F70742000301E
:1004D00020444320746F204443202020202020000B
:1004E0003120436F6E74726F6C204D6574686F6459
:1004F00000322052554E2F53544F502053726320D8
:1005000020003320526566204D6574686F6420209A
:100510002020003420436F6E7620506F7765722064
:10052000202020003520436F6E7620566F6C74615A
:100530006765202000362044657669636520496E32
:10054000666F202020003720536F667477617265D4
:100550002056657220200020302050726F67726133
:100560006D204374726C200031204374726C2053F0
:10057000657475705B4D315D0032204374726C2080
:1005800053657475705B4D325D0033205265662093
:1005900053657475705B4D315D2000342052656683
:1005A0002053657475705B4D325D200020352050FE
:1005B000726F74656374696F6E202020002036208E
:1005C000416E616C6F6720496E7075742000203732
:1005D0002050494420436F6E74726F6C20200038A5
:1005E000204469676974616C20496E7075742000DD
:1005F0003920204D756C7469537465705B4D315DA5
:10060000003130204D756C7469537465705B4D32E8
:100610005D00313120416E616C6F67204F757470E1
:100620007574003132204469676974616C4F757468
:10063000707574003133204D6F746F722042726197
:100640006B652020003134204175746F2054756E25
:10065000696E67202000313520562F462043747282
:100660006C5B4D315D2000313620562F462043749F
:10067000726C5B4D325D2000313720534C20566543
:1006800063746F725B4D315D00313820534C2056DE
:100690006563746F725B4D325D00203139205665A1
:1006A00063746F725B4D315D202000203230205624
:1006B0006563746F725B4D325D2020002032312003
:1006C0004D3120436F6E7374616E7420002032329E
:1006D000204D3220436F6E7374616E74200032338C
:1006E00020436F6D6D20436F6E74726F6C2000320B
:1006F00034204D6F6E69746F72205365747570008D
:1007000050302E3020496E692E20466C61672020C3
:100710000050302E312050726F672E4B657920319A
:10072000200050302E322050726F672E4B6579209A
:1007300032200050302E332050726F672E4B657977
:100740002033200050302E342050574420284C3184
:10075000292020200050302E352050574420284C8E
:1007600032292020200050302E3620505744202897
:100770004C33292020200050302E37205057442061
:10078000284C34292020200050302E382050574447
:1007900020284C35292020200050302E392050723E
:1007A0006F675F4B65792034200050302E31302048
:1007B00050726F675F4B657920350050302E3131B4
:1007C0002050726F675F4B657920360050302E31B4
:1007D00032205061726C6E695F4B65790050302E2B
:1007E000313320566F6C745F436C6173200050305E
:1007F0002E313420467265715F436C617373005013
:10080000302E313520546865726D616C4D6F6E000D
:1008100050312E30204D315F5274645F507772201A
:100820000050312E31204D315F5274645F566F6C31
:10083000740050312E32204D315F5274645F437525
:1008400072720050312E33204D315F5274645F4616
:100850007265710050312E34204D315F506F6C65E0
:10086000202020200050312E35204D315F527464FD
:100870005F537064200050312E36204D315F436F3E
:100880006E74726F6C200050312E37204D315F50E6
:10089000574D5F467265710050312E38204D315FE3
:1008A00041545F46726571200050312E39205375D6
:1008B00070706C795F566F6C740050322E30204D22
:1008C000325F5274645F507772200050322E3120B4
:1008D0004D325F5274645F566F6C740050322E322A
:1008E000204D325F5274645F437572720050322E35
:1008F00033204D325F5274645F467265710050322E
:100900002E34204D325F506F6C6520202020005027
:10091000322E35204D325F5274645F537064200074
:1009200050322E36204D325F436F6E74726F6C20E2
:100930000050322E37204D325F50574D5F46726562
:10094000710050322E38204D325F41545F4672653F
:1009500071200050322E3920537570706C795F56BB
:100960006F6C740050332E302052554E2F53544F1D
:10097000502020200050332E312052616D705F498D
:100980006E707574200050332E322053544F502017
:100990004465746563740050332E332053544F50B4
:1009A000204D6F646520200050332E342053746F27
:1009B00070486F6C645F546D0050332E35204F7556
:1009C000745F4F66665F546D200050332E36204FA3
:1009D00075745F4F66665F5265660050332E372030
:1009E0004163632F4465635F456E200050332E38AA
:1009F00020416363546D5F52616E67650050332E12
:100A00003920416363537720312D32202000503349
:100A10002E313020416363537720322D3320005034
:100A2000332E313120416363537720332D3420003E
:100A300050332E313220416363537720342D3520DB
:100A40000050332E313320416363537720352D36E8
:100A5000200050332E313420416363537720362DEC
:100A600037200050332E31352041636353772037D0
:100A70002D38200050332E3136204163635F546D92
:100A800020492E310050332E3137204163635F54AB
:100A90006D20492E320050332E3138204163635F80
:100AA000546D20492E330050332E31392041636379
:100AB0005F546D20492E340050332E323020416374
:100AC000635F546D20492E350050332E3231204162
:100AD00063635F546D20492E360050332E3232202E
:100AE0004163635F546D20492E370050332E3233FB
:100AF000204163635F546D20492E380050332E32FD
:100B000034204163635F546D204949200050332EE7
:100B1000323520446563546D5F526E672000503358
:100B20002E323620446563537720312D3220005019
:100B3000332E323720446563537720322D33200023
:100B400050332E323820446563537720332D3420C0
:100B50000050332E323920446563537720342D35CD
:100B6000200050332E333020446563537720352DD9
:100B700036200050332E33312044656353772036BE
:100B80002D37200050332E333220446563537720B5
:100B9000372D38200050332E3333204465635F54A3
:100BA0006D20492E310050332E3334204465635F6D
:100BB000546D20492E320050332E33352044656366
:100BC0005F546D20492E330050332E333620446558
:100BD000635F546D20492E340050332E3337204448
:100BE00065635F546D20492E350050332E33382015
:100BF0004465635F546D20492E360050332E3339DF
:100C0000204465635F546D20492E370050332E34E5
:100C100030204465635F546D20492E380050332ED8
:100C20003431204465635F546D20494920005033BE
:100C30002E343220435F446563656C5F456E00501F
:100C4000332E343320435F446563656C5F546D001D
:100C500050332E343420532D43757276655F456EC4
:100C60000050332E343520532D4372764163635F39
:100C7000530050332E343620532D43727641636334
:100C80005F450050332E343720532D437276446530
:100C9000635F530050332E343820532D4372764413
:100CA00065635F450050332E34392045535F4D6FE7
:100CB00064652020200050332E35302045535F449A
:100CC000656354696D650050332E353120434F4EB6
:100CD00054494E555F4F500050332E3532205265E7
:100CE000765F4449525F456E0050352E3020495F93
:100CF0004C696D69745B4D315D0050352E31204972
:100D00005F4C696D69745B4D325D0050352E322049
:100D100052657365727665642020200050352E334D
:100D2000204F4C3320526566202020200050352E65
:100D300034204F4C332054696D65202020005035FD
:100D40002E35204F4C322052656620202020005046
:100D5000352E36204F4C322054696D6520202000FE
:100D600050352E37204D6178436F6E5F4375727238
:100D70000050352E38204F7665725F4C6F616420CD
:100D8000200050352E39204F4C5F54696D654F76E9
:100D900065720050352E3130204F4C5F41637469CD
:100DA0006F6E200050352E3131204F435F547269F1
:100DB000705F4D310050352E3132205A435F5472EE
:100DC00069702020200050352E3133204F565F4C63
:100DD00074645F466E200050352E3134204F56200B
:100DE0004C696D697420200050352E3135204F56E6
:100DF00020547269702020200050352E3136205545
:100E0000565F436F6D705F466E0050352E31372050
:100E100055565F436F6D705F56200050352E313848
:100E20002055565F547269702020200050352E31B5
:100E300039204F505F50685F547269700050352EF2
:100E4000323020496E7075745F467265710050359E
:100E50002E323120426C742D696E5F444220005066
:100E6000352E32322044425F4672657120202000C8
:100E700050352E32332044425F53746172745F5692
:100E80000050352E32342044425F46756C6C5F56FC
:100E9000200050352E3235204F545F416374696F06
:100EA0006E200050352E323620484F565F50726FFC
:100EB0007465630050352E323720484F435F5072BF
:100EC0006F7465630050352E323820485A435F50A6
:100ED000726F7465630050352E3239204472765F2C
:100EE0004F4C5F466E200050352E333020526573D4
:100EF00074617274436E740050352E333120526524
:100F00007472795F446C79200050352E3332204161
:100F10002E5273745F4F4320200050352E33332000
:100F2000412E5273745F4F5620200050352E3334BB
:100F300020412E5273745F555620200050352E33B9
:100F40003520412E5273745F484F56200050352E85
:100F5000333620412E5273745F484F432000503582
:100F60002E333720412E5273745F436E457200500A
:100F7000352E3338204374726C4572725F546D00A5
:100F800050352E3339204374726C5F4572725F495D
:100F90000050352E3430204F7665725F54656D7089
:100FA000200050352E3431204F435F547269705FFA
:100FB0004D320050352E3432204C6E5F5556202075
:100FC0002020200050352E3433205273745F4C6E35
:100FD0005F5556200050352E3434205273745F4CC8
:100FE0006E5F5542200050362E302041495F5265D9
:100FF000665F537263200050362E31204149312004
:1010000046756E632020200050362E322041493133
:1010100020547970652020200050362E332041491D
:101020003120546D5F437420200050362E3420410F
:101030004931204F6666736574200050362E352086
:10104000414931204D696E56616C200050362E3674
:1010500020414931204D617856616C200050362E78
:101060003720414931204D696E53636C2000503662
:101070002E3820414931204D617853636C20005057
:10108000362E392041493120496E7620202020001B
:1010900050362E31302041493120445F5374657001
:1010A0000050362E31312041493120555F53656C57
:1010B000200050362E3132204149322046756E6371
:1010C0002E200050362E3133204149322054797081
:1010D0006520200050362E31342041493220546D95
:1010E0005F4374200050362E313520414932204F65
:1010F00066667365740050362E31362041493220C1
:101100004D696E56616C0050362E313720414932A0
:10111000204D617856616C0050362E31382041499F
:1011200032204D696E53636C0050362E31392041A8
:101130004932204D617853636C0050362E32302096
:1011400041493220496E762020200050362E32311F
:101150002041493220445F537465700050362E326E
:10116000322041493220555F53656C200050362EA5
:10117000323320414932204D61785F56200050368D
:101180002E323420414932204D785F6D412000508D
:10119000362E323520414932204D61782E202000F4
:1011A00050362E32362041493220496E762E20208C
:1011B0000050362E32372041493220445F53746547
:1011C000700050362E323820414932204465616427
:1011D0002D5A0050362E3239204149332046756E43
:1011E000632E200050362E3330204149332054796D
:1011F000706520200050362E33312041493320467F
:10120000696C7465720050362E33322041493320A8
:10121000546D5F4374200050362E333320414933E0
:10122000204F66667365740050362E333420414972
:1012300033204D696E5F56200050362E33352041E5
:101240004933204D696E5F6D410050362E33362094
:10125000414933204D696E2E20200050362E333701
:1012600020414933204D61785F56200050362E339F
:101270003820414933204D785F6D41200050362E93
:10128000333920414933204D61782E2020005036DB
:101290002E34302041493320496E762E20200050D4
:1012A000362E34312041493320445F537465700039
:1012B00050362E34322041493320446561642D5A22
:1012C0000050362E3433204149342046756E632E4B
:1012D000200050362E343420414934205479706532
:1012E00020200050362E3435204149342046696C88
:1012F0007465720050362E34362041493420546DC6
:101300005F4374200050362E343720414934204F3B
:1013100066667365740050362E3438204149342097
:101320004D696E5F56200050362E343920414934C5
:10133000204D696E5F6D410050362E353020414999
:1013400034204D696E2E20200050362E353120413C
:101350004934204D61785F56200050362E353220BA
:10136000414934204D785F6D41200050362E353391
:1013700020414934204D61782E20200050362E35F2
:10138000342041493420496E762E20200050362EDC
:1013900035352041493420445F5374657000503620
:1013A0002E35362041493420446561642D5A005061
:1013B000362E3537204149352046756E632E200084
:1013C00050362E353820414935205479706520201B
:1013D0000050362E3539204149352046696C7465F8
:1013E000720050362E36302041493520546D5F430F
:1013F00074200050362E363120414935204F666624
:101400007365740050362E363220414935204D69BF
:101410006E5F56200050362E363320414935204D20
:10142000696E5F6D410050362E36342041493520BB
:101430004D696E2E20200050362E3635204149351C
:10144000204D61785F56200050362E3636204149B7
:1014500035204D785F6D41200050362E36372041C3
:101460004935204D61782E20200050362E36382008
:1014700041493520496E762E20200050362E3639CF
:101480002041493520445F537465700050362E3733
:10149000302041493520446561642D5A0050382E72
:1014A000302052554E2F53544F502020200050389A
:1014B0002E312044492E332046756E632E20005075
:1014C000382E322044492E342046756E632E20007B
:1014D00050382E332044492E352046756E632E2019
:1014E0000050382E342044492E362046756E632E27
:1014F000200050382E352044492E372046756E6323
:101500002E200050382E362044492E382046756E45
:10151000632E200050382E372044492E392046753E
:101520006E632E200050382E382044492E31302052
:1015300046756E632E0050382E392044492E3131C5
:101540002046756E632E0050382E31302044492ECF
:1015500031322046756E630050382E3131204449B7
:101560002E31332046756E630050382E31322044C0
:10157000492E31342046756E630050382E313320A9
:1015800044492E31352046756E630050382E313473
:101590002044492E31362046756E630050382E3176
:1015A00035204D2E432E20426C616E6B0050382E3C
:1015B0003136205265665F55502F444E200050381A
:1015C0002E313720466C795F5354415254200050DD
:1015D000382E31382052554E5F44656C61792000B9
:1015E00050382E313920496E6368696E675F546DDB
:1015F0000050392E30204A4F475F52656620202028
:10160000200050392E31204D5F53746570203120F9
:1016100020200050392E32204D5F537465702032E7
:101620002020200050392E33204D5F5374657020E8
:10163000332020200050392E34204D5F53746570C4
:1016400020342020200050392E35204D5F53746502
:101650007020352020200050392E36204D5F5374E5
:10166000657020362020200050392E37204D5F53E2
:1016700074657020372020200050392E38204D5FAF
:101680005374657020382020200050392E39204DA9
:101690005F5374657020392020200050392E31307E
:1016A000204D5F53746570203130200050392E3149
:1016B00031204D5F53746570203131200050392E38
:1016C0003132204D5F537465702031322000503923
:1016D0002E3133204D5F537465702031332000501C
:1016E000392E3134204D5F53746570203134200021
:1016F00050392E3135204D5F5374657020313520BF
:101700000050392E313620556E69745B252F487A8A
:101710005D005031312E3020414F312053656C2017
:101720002020005031312E3120414F31205479702A
:10173000652020005031312E3220414F3120305F62
:1017400041646A20005031312E3320414F31203422
:101750005F41646A20005031312E3420414F3120E6
:1017600032305F41646A005031312E3520414F31B3
:10177000204D61784F7574005031312E3620414F25
:101780003120496E762E2020005031322E302044F8
:101790004F2E312046756E6320005031322E31209D
:1017A000444F2E322046756E6320005031322E3267
:1017B00020444F2E332046756E6320005031322E68
:1017C0003320444F2E342046756E63200050313252
:1017D0002E3420444F2E352046756E632000503144
:1017E000322E3520444F2E362046756E6320005031
:1017F00031322E3620444F2E372046756E6320003E
:101800005031322E3720444F2E382046756E6320DB
:10181000005031332E30204D315F4F505F5265669E
:1018200055005031332E31204D315F4F505F52659E
:101830006644005031332E32204D315F4F505F43AC
:10184000757272005031332E33204D315F4F505F2F
:1018500054696D65005031332E34204D315F434C57
:101860005F53706420005031332E35204D315F546A
:1018700072715F546D20005031332E36204D325F2F
:101880004F505F52656655005031332E37204D3230
:101890005F4F505F52656644005031332E38204D03
:1018A000325F4F505F49202020005031332E3920C5
:1018B0004D325F4F505F54696D65005031332E31AA
:1018C00030204D325F434C5F537064005031332EF3
:1018D0003131204D325F5472715F546D0050313997
:1018E0002E30204E5F50475F50756C73650050314D
:1018F000392E312050475F4449525F496E7600507F
:1019000031392E32205370645F4465745F746D000A
:101910005031392E33204D696E5F537065656420F8
:10192000005031392E34204D61785F537065656405
:1019300020005031392E35204F535F4C696D69744A
:101940002020005031392E36205273765F303620F9
:10195000202020005031392E372053746172745F7B
:10196000466C7578005031392E3820426173655FBE
:10197000466C757820005031392E392053465F452A
:101980005F5370642020005031392E3130204246A0
:101990005F53745F537064005031392E31312046EB
:1019A000575F566F6C742020005031392E31322031
:1019B00046575F546D5F436F6E005031392E31339F
:1019C00020434320502D4761696E005031392E313C
:1019D0003420434320492D4761696E005031392E30
:1019E0003135204343205A65726F5F5300503139BF
:1019F0002E31362046435F502D4761696E005031CD
:101A0000392E31372046435F492D4761696E0050BA
:101A100031392E3138204D784669656C645F490054
:101A20005031392E3139205370645F4761696E201F
:101A3000005031392E3230204C6F61645F436F6D3E
:101A400070005031392E3231204C435F546D5F436A
:101A50006F6E005031392E323220534320502D47C3
:101A600061696E005031392E323320534320492DA5
:101A70004761696E005031392E3234205343205A69
:101A800065726F5F53005031392E32352053435FFA
:101A9000475F41646A20005031392E32362054723B
:101AA000715F525F537263005031392E32372054C8
:101AB00072715F4F735F5363005031392E3238209B
:101AC0005472715F4C5F537263005031392E32395A
:101AD000205370645F4C696D6974005031392E3346
:101AE0003020535F4C74645F416374005031392E71
:101AF000333120535F4C74645F4F66660050313958
:101B00002E3332205370645F4C74645F4700503151
:101B1000392E3333205472715F436F6D7020005043
:101B200031392E3334205472715F465F5372630033
:101B30005031392E33352054435F505F4761696E11
:101B4000005031392E33362054435F495F54696D5C
:101B500065005031392E33372054435F4F75744C34
:101B60006D74005031392E333820496E65725F54E0
:101B7000727120005031392E333920496E6572441C
:101B800069665F54005031392E34302041646170F1
:101B90005F4374726C005031392E343120416461DE
:101BA00070745F537064005032312E302053746172
:101BB000746F725F526573005032312E3120507253
:101BC000695F526573203120005032312E3220522D
:101BD0006F746F725F52657320005032312E332064
:101BE000537461746F725F496E64005032312E34E9
:101BF00020526F746F725F496E6420005032312E34
:101C000035204C6B675F496E6420202000503231D4
:101C10002E3620496E65727469615F546D005032D2
:101C2000312E372049726F6E5F4C6F7373200050F6
:101C300032312E38204269735F44616D702020007C
:101C40005032312E3920537461746F72205220202B
:101C5000005032312E313020445F61786973204C5E
:101C600020005032312E313120515F61786973206C
:101C70004C20005032312E3132204261636B2045BE
:101C80004D4620005032312E313320496E7465723A
:101C900069612020005032312E3134204672696350
:101CA00074696F6E20005032312E313520426173DD
:101CB000655F53706420005032332E3020446561DC
:101CC000645F54696D6520005032332E31204C69B9
:101CD0006E5F526174696F20005032332E3220568D
:101CE0005F53656E735F53636C005032332E332045
:101CF000495F5363616C655F4120005032332E347D
:101D000020495F5363616C655F4220005032332E7F
:101D10003520495F5363616C655F43200050323367
:101D20002E3620495F4F6666735F41312000503286
:101D3000332E3720495F4F6666735F423120005073
:101D400032332E3820495F4F6666735F433120007F
:101D50005032332E3920495F4F6666735F4132201F
:101D6000005032332E313020495F4F6666735F4238
:101D700032005032332E313120495F4F6666735F37
:101D80004332005032392E302050574D5F46726535
:101D9000712020005032392E31205664635F4F7518
:101DA00074536574005032392E32205274645F4986
:101DB0006E566F6C74005032392E33205274645F4B
:101DC0004F7574507772005032392E34205265614D
:101DD00063746F72526573005032392E352052652C
:101DE0006163746F72496E64005032392E3620562A
:101DF0002053656E7354696D65005032392E37205B
:101E0000564320502D4761696E20005032392E38DC
:101E100020564320492D4761696E20005032392EEB
:101E20003920434320502D4761696E2000503239DC
:101E30002E313020434320492D4761696E005032D6
:101E4000392E313120564379636C65436E740050EE
:101E500032392E313220496E707574204361700022
:101E60005032392E3133204F757470757443617060
:101E7000005032392E31342056432046726571208D
:101E800020005032392E313520434320467265718F
:101E90002020005032392E3136204F7574204F5695
:101EA000536574005032392E3137204F75742055E8
:101EB00056536574005032392E313820496E204F08
:101EC000562D536574005032392E313920496E2019
:101ED00055562D536574005032392E323020496EDC
:101EE00052746443757272005032392E3231204F71
:101EF000432053657456616C005032392E323220C3
:101F00004D78436F6E74437572005032392E323300
:101F1000204F4C2D43757256616C005032392E3271
:101F200034204F4C2054696D652020005032392EEA
:101F30003235204F562054696D65202000503239CB
:101F40002E3236204F542D53657456616C0030206C
:101F500044726976655F43616C6962726120003129
:101F6000204D6F746F722054756E696E672020006B
:101F7000322053706565642054756E696E67202049
:101F8000002050726F63657373696E672E2E2E206A
:101F9000200020436F6D706C657465642E2E5B4568
:101FA00053435D4661696C65642E2E2E20202020EF
:101FB000202020005B305D436C72204661756C749C
:101FC0004C697374202020205B315D5379737465F4
:101FD0006D20526573657420000000005B325D5017
:101FE0006172616D65746572202020200000000020
:101FF00052657365742D3E5B456E7465725D20009D
:10200000000000002020436F6D706C6574652E2EFB
:102010002E20202000000000496E697469616C69FF
:102020007A696E672E2E2E00000000004552522065
:102030005B5761726E696E675D0000000000000012
:102040005731332044726976652043616C2E00005D
:10205000000000005B305D4163636573733D4C2598
:1020600064202020200000005B315D41646D6973B5
:1020700073696F6E20202020000000005B325D50ED
:102080007764204368616E676520202000000000AF
:102090002020456E7465723A2025642564256425E8
:1020A000642020202020436F6D706C6574652E2E97
:1020B0002E20202000000000202050617373776FD5
:1020C00072645B4C25645D20200000002041646D3B
:1020D00069747465642E5B4C25645D20000000000B
:1020E0004E65772050617373776F72645B4C256423
:1020F0005D0000004631204F7665725F4C6F616471
:1021000020202020004632204F7665725F43757292
:1021100072656E7420004633204F7665725F43759A
:102120007272205B485D004634205A65726F5F53BF
:1021300065715F49202020004635205A65726F5F27
:102140005365715F495B485D00463620556E646596
:10215000725F43757272656E74004637204F766504
:10216000725F4275735F566F6C74004638204F760D
:1021700065725F566F6C74205B485D004639204C79
:102180006F775F4275735F566F6C74200046313015
:10219000204F7665725F537065656420200046317C
:1021A00031204F75745F6F665F4374726C20004618
:1021B000313220552D436170204F562020202000C1
:1021C00046313320552D43617020565F53656E7341
:1021D0000046313420552D436170204F5620202079
:1021E000200046313520552D436170204F5420206A
:1021F000202000463136204F435F41202020202000
:1022000020202000463137204F435F4220202020ED
:102210002020202000463138204F435F43202020DB
:10222000202020202000463139204F7665725F56ED
:102230006F6C745F494E00463230204C6F775F56AA
:102240006F6C745F494E2000463231204F766572C4
:102250005F54656D70202020004632322044657640
:102260006963655F53686F72740046323320436858
:10227000617267696E675F4572720046323420474B
:102280006174654472765F50777220004632352063
:102290004578745F4661756C7420202000463236A4
:1022A000204E6F5F43757272656E74202000463257
:1022B00037204F70656E205068617365202000469E
:1022C0003238204D6F746F72204C6F636B2020008A
:1022D000463239204B65797061645F4572726F7266
:1022E000004633302053796E63436F6D6D5F4572E6
:1022F0007200463331204C696E655F5556202020B0
:10230000202000463332204C696E655F4F50454EA9
:1023100020202000463333204C696E655F4F5620E5
:102320002020202000463334204C696E655F5365C1
:10233000715F45727200463335204C696E655F559A
:102340006E62616C2020004633362050726F6669E1
:102350006275735F4572720046333720465F4C6F7B
:1023600067696320312020200046333820465F4CC7
:102370006F676963203220202000463339204D6189
:10238000737465725F4661756C7400463430204921
:10239000696E69745F43686172676500FEFF01D012
:1023A0009F00CE9F0080C09F0040CC9F0020C29F16
:1023B0000010CA9F0008C49F0004C89F0002BE9F6F
:1023C0000001C69F00FB00008895FECF0CE800933B
:1023D00074000BE20DBF08E00EBFC0E0D7E00E9422
:1023E000DDA5002311F00E94EFA50E9444A10E94E8
:1023F000E3110C94E311149F102D059F100D049F01
:10240000002D110D089500241124EFE0001F111F6D
:10241000001C111C0416150610F0041A150AEA9582
:10242000AAF7001F111FA00100951095089551955E
:10243000419550400895FF27552312F4F160F7DFCE
:10244000112312F4F09507D00E940312F0FD03D07F
:10245000F1FDEDCF089511950195104008954A952D
:102460002AF03695279517950795F9CF08950024FA
:1024700011241001E0E2EA9592F0001F111F221FC3
:10248000331F001C111C221C331C041615062606C3
:10249000370688F3041A150A260A370AECCF001FFC
:1024A000111F221F331FA001B10100951095209527
:1024B000309508957791679157914791179011FA48
:1024C0002790379007900CBE0895F7DF041B10E0AB
:1024D00003C0F2DF041B150B20E030E005C0EADF8B
:1024E000041B150B260B370B28F110FC25C0479158
:1024F0000790E00FF11F0417100540E02407340790
:10250000C8F486F412FE05C0E00FF11F0791069093
:1025100002C006910024F101E01BF0090CB7004055
:102520000CBF1994E00FF11FE00FF11F27903790B7
:1025300007900CBEF101199411F4C6F7E3CF319660
:1025400012FC31960EF0329650E060E070E0479158
:102550004B3F48F079F34F3F29F04E3F11F0779110
:10256000679157914791041B150B260B370B29F3E5
:1025700008F3E5CFFA92EA92DA92CA92BA92AA9254
:102580009A928A927A926A925A924A92BA93AA93A9
:102590009A938A930895FF84EE84DD84CC84BB846F
:1025A000AA84998488847F806E805D804C80BB8102
:1025B000AA8199818881F0E0EC0FFD1FEF01089559
:1025C0001BB110741BB9009302010BB100740062BF
:1025D0000BB90F920F900BB100740BB902E30E947C
:1025E000BCA508951BB1107410611BB900930201C2
:1025F0000BB1007400630BB90F920F900BB1007414
:1026000000610BB902E30E94BCA50895012BD8DF3D
:102610000FE0D6DF08950CE0D3DF0FEF00930080CA
:102620000895BA93AA93D901CBDF03C00C91DADFE6
:1026300011960C910023D1F7A991B991089508E35F
:10264000BFDF0CE0BDDF06E0BBDF01E0B9DF02E089
:1026500010E00E94C8A50895002311F05E9A089525
:102660005E9808950AE917E320E0EDE9FBE90083AD
:102670001183228300E000939B9A00E00093008086
:1026800000E010E00093959A1093969A00E010E015
:102690000093939A1093949A0895002349F500911A
:1026A0009B9A002391F40091939A1091949A1A9313
:1026B0000A930CE218E00E944C9A2296980100ECD2
:1026C0000E9411130E940B1308950091959A109186
:1026D000969A1A930A930CE218E00E944C9A22965A
:1026E000980100EC0E94111301E00E946F360895DA
:1026F000013009F079C000919B9A0023D1F5009137
:10270000939A1091949A012B31F42CE338E000EC69
:102710000E9411132BC00091939A1091949A01304A
:1027200020E0120731F42DE438E000EC0E94111390
:102730001DC00091939A1091949A023020E01207E4
:1027400031F42EE538E000EC0E9411130FC0009127
:10275000939A1091949A1A930A930FE618E00E94A4
:102760004C9A2296980100EC0E9411130E940B13C0
:1027700008950091959A1091969A012B31F42CE3CB
:1027800038E000EC0E9411132BC00091959A109133
:10279000969A013020E0120731F42DE438E000EC85
:1027A0000E9411131DC00091959A1091969A0230C3
:1027B00020E0120731F42EE538E000EC0E941113FE
:1027C0000FC00091959A1091969A1A930A9300E877
:1027D00018E00E944C9A2296980100EC0E94111376
:1027E00004E00E946F360895023009F05DC0009148
:1027F0009B9A002361F50091939A1091949A012B72
:1028000031F42FE838E000EC0E9411131DC0009154
:10281000939A1091949A013020E0120731F420EA43
:1028200038E000EC0E9411130FC00091939A1091B0
:10283000949A1A930A9300E818E00E944C9A229600
:10284000980100EC0E9411130E940B13089500914F
:10285000959A1091969A012B31F42FE838E000EC0C
:102860000E9411131DC00091959A1091969A013003
:1028700020E0120731F42FEA38E000EC0E94111337
:102880000FC00091959A1091969A1A930A9300E8B6
:1028900018E00E944C9A2296980100EC0E941113B5
:1028A00004E00E946F360895033009F05DC0009186
:1028B0009B9A002361F50091939A1091949A012BB1
:1028C00031F420EC38E000EC0E9411131DC000919F
:1028D000939A1091949A013020E0120731F421ED7F
:1028E00038E000EC0E9411130FC00091939A1091F0
:1028F000949A1A930A930FE618E00E944C9A229633
:10290000980100EC0E9411130E940B13089500918E
:10291000959A1091969A012B31F420EC38E000EC56
:102920000E9411131DC00091959A1091969A013042
:1029300020E0120731F421ED38E000EC0E94111381
:102940000FC00091959A1091969A1A930A9300E8F5
:1029500018E00E944C9A2296980100EC0E941113F4
:1029600004E00E946F360895043009F05DC00091C4
:102970009B9A002361F50091939A1091949A012BF0
:1029800031F422EE38E000EC0E9411131DC00091DA
:10299000939A1091949A013020E0120731F423EFBA
:1029A00038E000EC0E9411130FC00091939A10912F
:1029B000949A1A930A9300E818E00E944C9A22967F
:1029C000980100EC0E9411130E940B1308950091CE
:1029D000959A1091969A012B31F424E039E000EC9D
:1029E0000E9411131DC00091959A1091969A013082
:1029F00020E0120731F425E139E000EC0E941113C8
:102A00000FC00091959A1091969A1A930A930FE627
:102A100018E00E944C9A2296980100EC0E94111333
:102A200004E00E946F360895053009F045C000911A
:102A30009B9A002301F54AE050E00091939A10918F
:102A4000949A0E941B125A934A934AE050E00091D4
:102A5000939A1091949A0E941B121A930A9306E279
:102A600019E00E944C9A2496980100EC0E941113E0
:102A70000E940B1308954AE050E00091959A10913E
:102A8000969A0E941B125A934A934AE050E0009192
:102A9000959A1091969A0E941B121A930A9306E235
:102AA00019E00E944C9A2496980100EC0E941113A0
:102AB00006E00E946F360895063009F045C0009187
:102AC0009B9A002301F54AE050E00091939A1091FF
:102AD000949A0E941B125A934A934AE050E0009144
:102AE000939A1091949A0E941B121A930A930BE3E3
:102AF00019E00E944C9A2496980100EC0E94111350
:102B00000E940B1308954AE050E00091959A1091AD
:102B1000969A0E941B125A934A934AE050E0009101
:102B2000959A1091969A0E941B121A930A930BE39E
:102B300019E00E944C9A2496980100EC0E9411130F
:102B400006E00E946F360895073009F045C00091F5
:102B50009B9A002301F54AE050E00091939A10916E
:102B6000949A0E941B125A934A934AE050E00091B3
:102B7000939A1091949A0E941B121A930A9301E55A
:102B800019E00E944C9A2496980100EC0E941113BF
:102B90000E940B1308954AE050E00091959A10911D
:102BA000969A0E941B125A934A934AE050E0009171
:102BB000959A1091969A0E941B121A930A9301E516
:102BC00019E00E944C9A2496980100EC0E9411137F
:102BD00006E00E946F360895083009F045C0009164
:102BE0009B9A002301F54AE050E00091939A1091DE
:102BF000949A0E941B125A934A934AE050E0009123
:102C0000939A1091949A0E941B121A930A9307E6C2
:102C100019E00E944C9A2496980100EC0E9411132E
:102C20000E940B1308954AE050E00091959A10918C
:102C3000969A0E941B125A934A934AE050E00091E0
:102C4000959A1091969A0E941B121A930A9307E67E
:102C500019E00E944C9A2496980100EC0E941113EE
:102C600006E00E946F360895093049F500919B9A5D
:102C7000002391F40091939A1091949A1A930A93D5
:102C80000DE719E00E944C9A2296980100EC0E94F0
:102C900011130E940B1308950091959A1091969A22
:102CA0001A930A930DE719E00E944C9A2296980114
:102CB00000EC0E94111301E00E946F3608950A3063
:102CC00049F500919B9A002391F40091939A1091F9
:102CD000949A1A930A930EE819E00E944C9A22964D
:102CE000980100EC0E9411130E940B1308950091AB
:102CF000959A1091969A1A930A930EE819E00E94F9
:102D00004C9A2296980100EC0E94111301E00E9457
:102D10006F3608950B3009F096C000919B9A0023FE
:102D200009F048C00091939A1091949A012B31F4C4
:102D30002FE939E000EC0E94111339C00091939AF9
:102D40001091949A013020E0120731F42EEA39E014
:102D500000EC0E9411132BC00091939A1091949A49
:102D6000023020E0120731F42FEB39E000EC0E9432
:102D700011131DC00091939A1091949A033020E092
:102D8000120731F420ED39E000EC0E9411130FC05E
:102D90000091939A1091949A1A930A9300E818E07C
:102DA0000E944C9A2296980100EC0E9411130E94F6
:102DB0000B1308950091959A1091969A012B31F476
:102DC0002FE939E000EC0E94111339C00091959A67
:102DD0001091969A013020E0120731F42EEA39E082
:102DE00000EC0E9411132BC00091959A1091969AB5
:102DF000023020E0120731F42FEB39E000EC0E94A2
:102E000011131DC00091959A1091969A033020E0FD
:102E1000120731F420ED39E000EC0E9411130FC0CD
:102E20000091959A1091969A1A930A9300E818E0E7
:102E30000E944C9A2296980100EC0E94111304E023
:102E40000E946F3608950C3009F045C000919B9A9E
:102E5000002301F54AE050E00091939A1091949A72
:102E60000E941B125A934A934AE050E00091939AB1
:102E70001091949A0E941B121A930A9301EE19E082
:102E80000E944C9A2496980100EC0E9411130E9413
:102E90000B1308954AE050E00091959A1091969A8C
:102EA0000E941B125A934A934AE050E00091959A6F
:102EB0001091969A0E941B121A930A9301EE19E040
:102EC0000E944C9A2496980100EC0E94111306E08F
:102ED0000E946F3608950D3009F0B2C000919B9AA0
:102EE000002309F056C00091939A1091949A012BF7
:102EF00031F427EF39E000EC0E94111347C0009134
:102F0000939A1091949A013020E0120731F428E04E
:102F10003AE000EC0E94111339C00091939A10918D
:102F2000949A023020E0120731F429E13AE000ECF3
:102F30000E9411132BC00091939A1091949A033020
:102F400020E0120731F42AE23AE000EC0E9411136B
:102F50001DC00091939A1091949A043020E01207BA
:102F600031F42BE33AE000EC0E9411130FC0009102
:102F7000939A1091949A1A930A9300E818E00E9489
:102F80004C9A2296980100EC0E9411130E940B1398
:102F900008950091959A1091969A012B31F427EF9C
:102FA00039E000EC0E94111347C00091959A1091EE
:102FB000969A013020E0120731F428E03AE000EC64
:102FC0000E94111339C00091959A1091969A02307F
:102FD00020E0120731F429E13AE000EC0E941113DD
:102FE0002BC00091959A1091969A033020E0120719
:102FF00031F42AE23AE000EC0E9411131DC0009166
:10300000959A1091969A043020E0120731F42BE340
:103010003AE000EC0E9411130FC00091959A1091B4
:10302000969A1A930A9300E818E00E944C9A229606
:10303000980100EC0E94111304E00E946F3608957D
:103040000E3009F045C000919B9A002301F54AE03B
:1030500050E00091939A1091949A0E941B125A93F7
:103060004A934AE050E00091939A1091949A0E94FA
:103070001B121A930A930CE41AE00E944C9A2496AD
:10308000980100EC0E9411130E940B1308954AE06E
:1030900050E00091959A1091969A0E941B125A93B3
:1030A0004A934AE050E00091959A1091969A0E94B6
:1030B0001B121A930A930CE41AE00E944C9A24966D
:1030C000980100EC0E94111306E00E946F360895EB
:1030D0000F3009F079C000919B9A0023D1F500913F
:1030E000939A1091949A012B31F422E63AE000EC85
:1030F0000E9411132BC00091939A1091949A013061
:1031000020E0120731F423E73AE000EC0E941113AB
:103110001DC00091939A1091949A023020E01207FA
:1031200031F422E83AE000EC0E9411130FC0009144
:10313000939A1091949A1A930A9300E818E00E94C7
:103140004C9A2296980100EC0E9411130E940B13D6
:1031500008950091959A1091969A012B31F422E6E8
:103160003AE000EC0E9411132BC00091959A109147
:10317000969A013020E0120731F423E73AE000ECA0
:103180000E9411131DC00091959A1091969A0230D9
:1031900020E0120731F422E83AE000EC0E9411131B
:1031A0000FC00091959A1091969A1A930A9300E88D
:1031B00018E00E944C9A2296980100EC0E9411138C
:1031C00004E00E946F360895003109F045C0009177
:1031D0009B9A002301F54AE050E00091939A1091E8
:1031E000949A0E941B125A934A934AE050E000912D
:1031F000939A1091949A0E941B121A930A9303E9CE
:103200001AE00E944C9A2496980100EC0E94111337
:103210000E940B1308954AE050E00091959A109196
:10322000969A0E941B125A934A934AE050E00091EA
:10323000959A1091969A0E941B121A930A9303E989
:103240001AE00E944C9A2496980100EC0E941113F7
:1032500006E00E946F360895013109F05DC00091CB
:103260009B9A002361F50091939A1091949A012BF7
:1032700031F42AEA3AE000EC0E9411131DC00091DB
:10328000939A1091949A013020E0120731F42CEBBC
:103290003AE000EC0E9411130FC00091939A109134
:1032A000949A1A930A9300E818E00E944C9A229686
:1032B000980100EC0E9411130E940B1308950091D5
:1032C000959A1091969A012B31F42EEC3AE000EC8D
:1032D0000E9411131DC00091959A1091969A013089
:1032E00020E0120731F42FED3AE000EC0E941113B8
:1032F0000FC00091959A1091969A1A930A9300E83C
:1033000018E00E944C9A2296980100EC0E9411133A
:1033100004E00E946F360895023109F05DC000910B
:103320009B9A002361F50091939A1091949A012B36
:1033300031F420EF3AE000EC0E9411131DC000911F
:10334000939A1091949A013020E0120731F421E011
:103350003BE000EC0E9411130FC00091939A109172
:10336000949A1A930A9300E818E00E944C9A2296C5
:10337000980100EC0E9411130E940B130895009114
:10338000959A1091969A012B31F420EF3AE000ECD7
:103390000E9411131DC00091959A1091969A0130C8
:1033A00020E0120731F421E03BE000EC0E94111311
:1033B0000FC00091959A1091969A1A930A9300E87B
:1033C00018E00E944C9A2296980100EC0E9411137A
:1033D00004E00E946F360895033149F500919B9AED
:1033E000002391F40091939A1091949A1A930A935E
:1033F00002E11BE00E944C9A2296980100EC0E9488
:1034000011130E940B1308950091959A1091969AAA
:103410001A930A9302E11BE00E944C9A22969801AB
:1034200000EC0E94111301E00E946F3608950431F0
:1034300049F500919B9A002391F40091939A109181
:10344000949A1A930A9303E21BE00E944C9A2296E4
:10345000980100EC0E9411130E940B130895009133
:10346000959A1091969A1A930A9303E21BE00E9490
:103470004C9A2296980100EC0E94111301E00E94E0
:103480006F360895053149F500919B9A002391F418
:103490000091939A1091949A1A930A9304E31BE073
:1034A0000E944C9A2296980100EC0E9411130E94EF
:1034B0000B1308950091959A1091969A1A930A9376
:1034C00004E31BE00E944C9A2296980100EC0E94B3
:1034D000111301E00E946F360895063109F096C07D
:1034E00000919B9A002309F048C00091939A109193
:1034F000949A012B31F425E43BE000EC0E94111377
:1035000039C00091939A1091949A013020E01207EB
:1035100031F426E53BE000EC0E9411132BC0009132
:10352000939A1091949A023020E0120731F427E622
:103530003BE000EC0E9411131DC00091939A109182
:10354000949A033020E0120731F428E73BE000ECC6
:103550000E9411130FC00091939A1091949A1A939C
:103560000A9300E818E00E944C9A2296980100EC19
:103570000E9411130E940B1308950091959A1091C7
:10358000969A012B31F425E43BE000EC0E941113E4
:1035900039C00091959A1091969A013020E0120757
:1035A00031F426E53BE000EC0E9411132BC00091A2
:1035B000959A1091969A023020E0120731F427E68E
:1035C0003BE000EC0E9411131DC00091959A1091F0
:1035D000969A033020E0120731F428E73BE000EC34
:1035E0000E9411130FC00091959A1091969A1A9308
:1035F0000A9300E818E00E944C9A2296980100EC89
:103600000E94111304E00E946F360895073109F0FB
:1036100045C000919B9A002301F54AE050E00091DB
:10362000939A1091949A0E941B125A934A934AE0DB
:1036300050E00091939A1091949A0E941B121A9351
:103640000A9309E81BE00E944C9A2496980100EC2A
:103650000E9411130E940B1308954AE050E000915C
:10366000959A1091969A0E941B125A934A934AE097
:1036700050E00091959A1091969A0E941B121A930D
:103680000A9309E81BE00E944C9A2496980100ECEA
:103690000E94111306E00E946F360895083109F068
:1036A00079C000919B9A0023D1F50091939A1091D3
:1036B000949A012B31F42EEC3AE000EC0E941113A5
:1036C0002BC00091939A1091949A013020E0120738
:1036D00031F42FE93BE000EC0E9411131DC0009172
:1036E000939A1091949A023020E0120731F420EB63
:1036F0003BE000EC0E9411130FC00091939A1091CF
:10370000949A1A930A9300E818E00E944C9A229621
:10371000980100EC0E9411130E940B130895009170
:10372000959A1091969A012B31F42EEC3AE000EC28
:103730000E9411132BC00091959A1091969A013016
:1037400020E0120731F42FE93BE000EC0E94111356
:103750001DC00091959A1091969A023020E01207B0
:1037600031F420EB3BE000EC0E9411130FC00091FC
:10377000959A1091969A1A930A9300E818E00E947D
:103780004C9A2296980100EC0E94111304E00E94CA
:103790006F360895093109F096C000919B9A002375
:1037A00009F048C00091939A1091949A012B31F43A
:1037B00025E43BE000EC0E94111339C00091939A7C
:1037C0001091949A013020E0120731F426E53BE095
:1037D00000EC0E9411132BC00091939A1091949ABF
:1037E000023020E0120731F421EC3BE000EC0E94B3
:1037F00011131DC00091939A1091949A033020E008
:10380000120731F428E73BE000EC0E9411130FC0CF
:103810000091939A1091949A1A930A9300E818E0F1
:103820000E944C9A2296980100EC0E9411130E946B
:103830000B1308950091959A1091969A012B31F4EB
:1038400025E43BE000EC0E94111339C00091959AE9
:103850001091969A013020E0120731F426E53BE002
:1038600000EC0E9411132BC00091959A1091969A2A
:10387000023020E0120731F421EC3BE000EC0E9422
:1038800011131DC00091959A1091969A033020E073
:10389000120731F428E73BE000EC0E9411130FC03F
:1038A0000091959A1091969A1A930A9300E818E05D
:1038B0000E944C9A2296980100EC0E94111304E099
:1038C0000E946F3608950A3109F045C000919B9A15
:1038D000002301F54AE050E00091939A1091949AE8
:1038E0000E941B125A934A934AE050E00091939A27
:1038F0001091949A0E941B121A930A9302ED1BE0F6
:103900000E944C9A2496980100EC0E9411130E9488
:103910000B1308954AE050E00091959A1091969A01
:103920000E941B125A934A934AE050E00091959AE4
:103930001091969A0E941B121A930A9302ED1BE0B3
:103940000E944C9A2496980100EC0E94111306E004
:103950000E946F3608950B3109F079C000919B9A4F
:103960000023D1F50091939A1091949A012B31F490
:103970002EEC3AE000EC0E9411132BC00091939AB8
:103980001091949A013020E0120731F428EE3BE0C8
:1039900000EC0E9411131DC00091939A1091949A0B
:1039A000023020E0120731F429EF3BE000EC0E94E6
:1039B00011130FC00091939A1091949A1A930A933D
:1039C00000E818E00E944C9A2296980100EC0E94B0
:1039D00011130E940B1308950091959A1091969AD5
:1039E000012B31F42EEC3AE000EC0E9411132BC0B5
:1039F0000091959A1091969A013020E0120731F4C7
:103A000028EE3BE000EC0E9411131DC00091959A36
:103A10001091969A023020E0120731F429EF3BE032
:103A200000EC0E9411130FC00091959A1091969A84
:103A30001A930A9300E818E00E944C9A2296980183
:103A400000EC0E94111304E00E946F3608950C31BF
:103A500009F05DC000919B9A002361F50091939A53
:103A60001091949A012B31F42EEC3AE000EC0E9474
:103A700011131DC00091939A1091949A013020E087
:103A8000120731F42AE03CE000EC0E9411130FC051
:103A90000091939A1091949A1A930A9300E818E06F
:103AA0000E944C9A2296980100EC0E9411130E94E9
:103AB0000B1308950091959A1091969A012B31F469
:103AC0002EEC3AE000EC0E9411131DC00091959A73
:103AD0001091969A013020E0120731F42AE03CE080
:103AE00000EC0E9411130FC00091959A1091969AC4
:103AF0001A930A9300E818E00E944C9A22969801C3
:103B000000EC0E94111304E00E946F3608950D31FD
:103B100009F096C000919B9A002309F048C00091DB
:103B2000939A1091949A012B31F42BE13CE000EC34
:103B30000E94111339C00091939A1091949A013008
:103B400020E0120731F42EE23CE000EC0E94111359
:103B50002BC00091939A1091949A023020E01207A2
:103B600031F421E43CE000EC0E9411131DC00091EF
:103B7000939A1091949A033020E0120731F424E5CF
:103B80003CE000EC0E9411130FC00091939A109139
:103B9000949A1A930A9300E818E00E944C9A22968D
:103BA000980100EC0E9411130E940B1308950091DC
:103BB000959A1091969A012B31F42BE13CE000ECA0
:103BC0000E94111339C00091959A1091969A013074
:103BD00020E0120731F42EE23CE000EC0E941113C9
:103BE0002BC00091959A1091969A023020E012070E
:103BF00031F421E43CE000EC0E9411131DC000915F
:103C0000959A1091969A033020E0120731F424E53A
:103C10003CE000EC0E9411130FC00091959A1091A6
:103C2000969A1A930A9300E818E00E944C9A2296FA
:103C3000980100EC0E94111304E00E946F36089571
:103C40000E3109F045C000919B9A002301F54AE02E
:103C500050E00091939A1091949A0E941B125A93EB
:103C60004A934AE050E00091939A1091949A0E94EE
:103C70001B121A930A9307E61CE00E944C9A2496A2
:103C8000980100EC0E9411130E940B1308954AE062
:103C900050E00091959A1091969A0E941B125A93A7
:103CA0004A934AE050E00091959A1091969A0E94AA
:103CB0001B121A930A9307E61CE00E944C9A249662
:103CC000980100EC0E94111306E00E946F360895DF
:103CD000013209F045C000919B9A002301F54AE0AA
:103CE00050E00091939A1091949A0E941B125A935B
:103CF0004A934AE050E00091939A1091949A0E945E
:103D00001B121A930A930DE71CE00E944C9A24960A
:103D1000980100EC0E9411130E940B1308954AE0D1
:103D200050E00091959A1091969A0E941B125A9316
:103D30004A934AE050E00091959A1091969A0E9419
:103D40001B121A930A930DE71CE00E944C9A2496CA
:103D5000980100EC0E94111306E00E946F3608954E
:103D6000003249F500919B9A002391F40091939AB7
:103D70001091949A1A930A9303E91CE00E944C9ABA
:103D80002296980100EC0E9411130E940B130895D3
:103D90000091959A1091969A1A930A9303E91CE060
:103DA0000E944C9A2296980100EC0E94111301E0A7
:103DB0000E946F360895013209F045C000919B9A28
:103DC000002301F54AE050E00091939A1091949AF3
:103DD0000E941B125A934A934AE050E00091939A32
:103DE0001091949A0E941B121A930A930DE71CE0FB
:103DF0000E944C9A2496980100EC0E9411130E9494
:103E00000B1308954AE050E00091959A1091969A0C
:103E10000E941B125A934A934AE050E00091959AEF
:103E20001091969A0E941B121A930A930DE71CE0B8
:103E30000E944C9A2496980100EC0E94111306E00F
:103E40000E946F360895023209F045C000919B9A96
:103E5000002301F54AE050E00091939A1091949A62
:103E60000E941B125A934A934AE050E00091939AA1
:103E70001091949A0E941B121A930A9304EA1CE070
:103E80000E944C9A2496980100EC0E9411130E9403
:103E90000B1308954AE050E00091959A1091969A7C
:103EA0000E941B125A934A934AE050E00091959A5F
:103EB0001091969A0E941B121A930A9304EA1CE02E
:103EC0000E944C9A2496980100EC0E94111306E07F
:103ED0000E946F360895033209F096C000919B9AB4
:103EE000002309F048C00091939A1091949A012BF5
:103EF00031F42EEC3AE000EC0E94111339C000912D
:103F0000939A1091949A013020E0120731F42AEB31
:103F10003CE000EC0E9411132BC00091939A109189
:103F2000949A023020E0120731F42BEC3CE000ECD4
:103F30000E9411131DC00091939A1091949A03301E
:103F400020E0120731F42CED3CE000EC0E9411134C
:103F50000FC00091939A1091949A1A930A9300E8D3
:103F600018E00E944C9A2296980100EC0E941113CE
:103F70000E940B1308950091959A1091969A012B27
:103F800031F42EEC3AE000EC0E94111339C000919C
:103F9000959A1091969A013020E0120731F42AEB9D
:103FA0003CE000EC0E9411132BC00091959A1091F7
:103FB000969A023020E0120731F42BEC3CE000EC42
:103FC0000E9411131DC00091959A1091969A03308A
:103FD00020E0120731F42CED3CE000EC0E941113BC
:103FE0000FC00091959A1091969A1A930A9300E83F
:103FF00018E00E944C9A2296980100EC0E9411133E
:1040000004E00E946F360895043209F096C00091D2
:104010009B9A002309F048C00091939A1091949ABA
:10402000012B31F42DEE3CE000EC0E94111339C05D
:104030000091939A1091949A013020E0120731F484
:104040002EEF3CE000EC0E9411132BC00091939ADC
:104050001091949A023020E0120731F42FE03DE0F5
:1040600000EC0E9411131DC00091939A1091949A34
:10407000033020E0120731F420E23DE000EC0E9422
:1040800011130FC00091939A1091949A1A930A9366
:1040900000E818E00E944C9A2296980100EC0E94D9
:1040A00011130E940B1308950091959A1091969AFE
:1040B000012B31F42DEE3CE000EC0E94111339C0CD
:1040C0000091959A1091969A013020E0120731F4F0
:1040D0002EEF3CE000EC0E9411132BC00091959A4A
:1040E0001091969A023020E0120731F42FE03DE063
:1040F00000EC0E9411131DC00091959A1091969AA0
:10410000033020E0120731F420E23DE000EC0E9491
:1041100011130FC00091959A1091969A1A930A93D1
:1041200000E818E00E944C9A2296980100EC0E9448
:10413000111304E00E946F360895053209F079C02A
:1041400000919B9A0023D1F50091939A1091949A33
:10415000012B31F421E33DE000EC0E9411132BC050
:104160000091939A1091949A013020E0120731F453
:1041700022E43DE000EC0E9411131DC00091939ACF
:104180001091949A023020E0120731F423E53DE0CB
:1041900000EC0E9411130FC00091939A1091949A11
:1041A0001A930A9300E818E00E944C9A229698010C
:1041B00000EC0E9411130E940B1308950091959A30
:1041C0001091969A012B31F421E33DE000EC0E941E
:1041D00011132BC00091959A1091969A013020E00E
:1041E000120731F422E43DE000EC0E9411131DC0DF
:1041F0000091959A1091969A023020E0120731F4BE
:1042000023E53DE000EC0E9411130FC00091959A48
:104210001091969A1A930A9300E818E00E944C9A1B
:104220002296980100EC0E94111304E00E946F3660
:104230000895073209F05DC000919B9A002361F553
:104240000091939A1091949A012B31F424E63DE069
:1042500000EC0E9411131DC00091939A1091949A42
:10426000013020E0120731F425E73DE000EC0E9428
:1042700011130FC00091939A1091949A1A930A9374
:1042800000E818E00E944C9A2296980100EC0E94E7
:1042900011130E940B1308950091959A1091969A0C
:1042A000012B31F424E63DE000EC0E9411131DC007
:1042B0000091959A1091969A013020E0120731F4FE
:1042C00025E73DE000EC0E9411130FC00091959A84
:1042D0001091969A1A930A9300E818E00E944C9A5B
:1042E0002296980100EC0E94111304E00E946F36A0
:1042F0000895083209F06EC300919B9A002309F0DB
:10430000B4C10091939A1091949A012B31F426E84C
:104310003DE000EC0E941113A5C10091939A109109
:10432000949A013020E0120731F427E93DE000ECD7
:104330000E94111397C10091939A1091949A0230A0
:1043400020E0120731F428EA3DE000EC0E9411134E
:1043500089C10091939A1091949A033020E012073A
:1043600031F429EB3DE000EC0E9411137BC1009178
:10437000939A1091949A043020E0120731F42AECB9
:104380003DE000EC0E9411136DC10091939A1091D1
:10439000949A053020E0120731F42BED3DE000EC5B
:1043A0000E9411135FC10091939A1091949A063064
:1043B00020E0120731F42CEE3DE000EC0E941113D6
:1043C00051C10091939A1091949A073020E01207FE
:1043D00031F42DEF3DE000EC0E94111343C1009138
:1043E000939A1091949A083020E0120731F42EE04D
:1043F0003EE000EC0E94111335C10091939A109198
:10440000949A093020E0120731F42FE13EE000ECED
:104410000E94111327C10091939A1091949A0A3027
:1044200020E0120731F420E33EE000EC0E9411137B
:1044300019C10091939A1091949A0B3020E01207C1
:1044400031F421E43EE000EC0E9411130BC1009115
:10445000939A1091949A0C3020E0120731F422E5DF
:104460003EE000EC0E941113FDC00091939A109160
:10447000949A0D3020E0120731F423E63EE000EC80
:104480000E941113EFC00091939A1091949A0E30EC
:1044900020E0120731F424E73EE000EC0E94111303
:1044A000E1C00091939A1091949A0F3020E0120786
:1044B00031F425E83EE000EC0E941113D3C00091D6
:1044C000939A1091949A003120E0120731F426E972
:1044D0003EE000EC0E941113C5C00091939A109128
:1044E000949A013120E0120731F427EA3EE000EC13
:1044F0000E941113B7C00091939A1091949A0231BF
:1045000020E0120731F428EB3EE000EC0E9411138A
:10451000A9C00091939A1091949A033120E0120758
:1045200031F429EC3EE000EC0E9411139BC0009195
:10453000939A1091949A043120E0120731F42AEDF5
:104540003EE000EC0E9411138DC00091939A1091EF
:10455000949A053120E0120731F42BEE3EE000EC96
:104560000E9411137FC00091939A1091949A063182
:1045700020E0120731F42CEF3EE000EC0E94111312
:1045800071C00091939A1091949A073120E012071C
:1045900031F42DE03FE000EC0E94111363C0009164
:1045A000939A1091949A083120E0120731F42EE189
:1045B0003FE000EC0E94111355C00091939A1091B6
:1045C000949A093120E0120731F42FE23FE000EC29
:1045D0000E94111347C00091939A1091949A0A3146
:1045E00020E0120731F420E43FE000EC0E941113B8
:1045F00039C00091939A1091949A0B3120E01207E0
:1046000031F421E53FE000EC0E9411132BC0009132
:10461000939A1091949A0C3120E0120731F422E61B
:104620003FE000EC0E9411131DC00091939A10917D
:10463000949A0D3120E0120731F423E73FE000ECBB
:104640000E9411130FC00091939A1091949A1A939B
:104650000A9300E818E00E944C9A2296980100EC18
:104660000E9411130E940B1308950091959A1091C6
:10467000969A012B31F426E83DE000EC0E941113DC
:10468000A5C10091959A1091969A013020E01207E9
:1046900031F427E93DE000EC0E94111397C100912D
:1046A000959A1091969A023020E0120731F428EA88
:1046B0003DE000EC0E94111389C10091959A109180
:1046C000969A033020E0120731F429EB3DE000EC2C
:1046D0000E9411137BC10091959A1091969A043013
:1046E00020E0120731F42AEC3DE000EC0E941113A7
:1046F0006DC10091959A1091969A053020E01207AD
:1047000031F42BED3DE000EC0E9411135FC10091EC
:10471000959A1091969A063020E0120731F42CEE0B
:104720003DE000EC0E94111351C10091959A109147
:10473000969A073020E0120731F42DEF3DE000ECAF
:104740000E94111343C10091959A1091969A0830D6
:1047500020E0120731F42EE03EE000EC0E9411133D
:1047600035C10091959A1091969A093020E0120770
:1047700031F42FE13EE000EC0E94111327C10091BB
:10478000959A1091969A0A3020E0120731F420E3AE
:104790003EE000EC0E94111319C10091959A10910E
:1047A000969A0B3020E0120731F421E43EE000EC51
:1047B0000E9411130BC10091959A1091969A0C309A
:1047C00020E0120731F422E53EE000EC0E941113D4
:1047D000FDC00091959A1091969A0D3020E0120735
:1047E00031F423E63EE000EC0E941113EFC000918B
:1047F000959A1091969A0E3020E0120731F424E732
:104800003EE000EC0E941113E1C00091959A1091D6
:10481000969A0F3020E0120731F425E83EE000ECD4
:104820000E941113D3C00091959A1091969A00316D
:1048300020E0120731F426E93EE000EC0E9411135B
:10484000C5C00091959A1091969A013120E0120707
:1048500031F427EA3EE000EC0E941113B7C000914A
:10486000959A1091969A023120E0120731F428EBC4
:104870003EE000EC0E941113A9C00091959A10919E
:10488000969A033120E0120731F429EC3EE000EC67
:104890000E9411139BC00091959A1091969A043131
:1048A00020E0120731F42AED3EE000EC0E941113E3
:1048B0008DC00091959A1091969A053120E01207CB
:1048C00031F42BEE3EE000EC0E9411137FC000910A
:1048D000959A1091969A063120E0120731F42CEF48
:1048E0003EE000EC0E94111371C00091959A109166
:1048F000969A073120E0120731F42DE03FE000ECFA
:104900000E94111363C00091959A1091969A0831F4
:1049100020E0120731F42EE13FE000EC0E94111379
:1049200055C00091959A1091969A093120E012078E
:1049300031F42FE23FE000EC0E94111347C00091D8
:10494000959A1091969A0A3120E0120731F420E4EA
:104950003FE000EC0E94111339C00091959A10912C
:10496000969A0B3120E0120731F421E53FE000EC8C
:104970000E9411132BC00091959A1091969A0C31B8
:1049800020E0120731F422E63FE000EC0E94111310
:104990001DC00091959A1091969A0D3120E0120752
:1049A00031F423E73FE000EC0E9411130FC00091A7
:1049B000959A1091969A1A930A9300E818E00E942B
:1049C0004C9A2296980100EC0E94111304E00E9478
:1049D0006F360895093209F05DC000919B9A00235B
:1049E00061F50091939A1091949A012B31F424E887
:1049F0003FE000EC0E9411131DC00091939A1091AA
:104A0000949A013020E0120731F425E93FE000ECF0
:104A10000E9411130FC00091939A1091949A1A93C7
:104A20000A9300E818E00E944C9A2296980100EC44
:104A30000E9411130E940B1308950091959A1091F2
:104A4000969A012B31F424E83FE000EC0E94111308
:104A50001DC00091959A1091969A013020E012079E
:104A600031F425E93FE000EC0E9411130FC00091E2
:104A7000959A1091969A1A930A9300E818E00E946A
:104A80004C9A2296980100EC0E94111304E00E94B7
:104A90006F3608950A3209F05DC000919B9A002399
:104AA00061F50091939A1091949A012B31F426EAC2
:104AB0003FE000EC0E9411131DC00091939A1091E9
:104AC000949A013020E0120731F427EB3FE000EC2C
:104AD0000E9411130FC00091939A1091949A1A9307
:104AE0000A9300E818E00E944C9A2296980100EC84
:104AF0000E9411130E940B1308950091959A109132
:104B0000969A012B31F426EA3FE000EC0E94111343
:104B10001DC00091959A1091969A013020E01207DD
:104B200031F427EB3FE000EC0E9411130FC000911D
:104B3000959A1091969A1A930A9300E818E00E94A9
:104B40004C9A2296980100EC0E94111304E00E94F6
:104B50006F3608950B3209F05AC100919B9A0023D9
:104B600009F0AAC00091939A1091949A012B31F404
:104B700028EC3FE000EC0E9411139BC00091939A37
:104B80001091949A013020E0120731F429ED3FE0B2
:104B900000EC0E9411138DC00091939A1091949A89
:104BA000023020E0120731F42AEE3FE000EC0E94D0
:104BB00011137FC00091939A1091949A033020E0D2
:104BC000120731F42BEF3FE000EC0E94111371C08B
:104BD0000091939A1091949A043020E0120731F4D6
:104BE0002CE030E100EC0E94111363C00091939A15
:104BF0001091949A053020E0120731F42DE130E154
:104C000000EC0E94111355C00091939A1091949A50
:104C1000063020E0120731F42EE230E100EC0E9471
:104C2000111347C00091939A1091949A073020E095
:104C3000120731F42FE330E100EC0E94111339C068
:104C40000091939A1091949A083020E0120731F461
:104C500020E530E100EC0E9411132BC00091939AE3
:104C60001091949A093020E0120731F421E630E1E6
:104C700000EC0E9411131DC00091939A1091949A18
:104C80000A3020E0120731F422E730E100EC0E9404
:104C900011130FC00091939A1091949A1A930A934A
:104CA00000E818E00E944C9A2296980100EC0E94BD
:104CB00011130E940B1308950091959A1091969AE2
:104CC000012B31F428EC3FE000EC0E9411139BC053
:104CD0000091959A1091969A013020E0120731F4D4
:104CE00029ED3FE000EC0E9411138DC00091959AD0
:104CF0001091969A023020E0120731F42AEE3FE03C
:104D000000EC0E9411137FC00091959A1091969A21
:104D1000033020E0120731F42BEF3FE000EC0E945B
:104D2000111371C00091959A1091969A043020E069
:104D3000120731F42CE030E100EC0E94111363C043
:104D40000091959A1091969A053020E0120731F45F
:104D50002DE130E100EC0E94111355C00091959AAD
:104D60001091969A063020E0120731F42EE230E1DD
:104D700000EC0E94111347C00091959A1091969AE9
:104D8000073020E0120731F42FE330E100EC0E94FD
:104D9000111339C00091959A1091969A083020E02D
:104DA000120731F420E530E100EC0E9411132BC012
:104DB0000091959A1091969A093020E0120731F4EB
:104DC00021E630E100EC0E9411131DC00091959A7C
:104DD0001091969A0A3020E0120731F422E730E170
:104DE00000EC0E9411130FC00091959A1091969AB1
:104DF0001A930A9300E818E00E944C9A22969801B0
:104E000000EC0E94111304E00E946F3608950C32EA
:104E100009F045C000919B9A002301F540E157E25B
:104E20000091939A1091949A0E941B125A934A935C
:104E300040E157E20091939A1091949A0E941B12BC
:104E40001A930A9303E810E10E944C9A2496980161
:104E500000EC0E9411130E940B13089540E157E2E9
:104E60000091959A1091969A0E941B125A934A9318
:104E700040E157E20091959A1091969A0E941B1278
:104E80001A930A9303E810E10E944C9A2496980121
:104E900000EC0E94111308E00E946F3608950D3255
:104EA00009F01EC100919B9A002309F08CC000916B
:104EB000939A1091949A012B31F428E930E100EC97
:104EC0000E9411137DC00091939A1091949A013021
:104ED00020E0120731F429EA30E100EC0E941113BE
:104EE0006FC00091939A1091949A023020E01207BB
:104EF00031F42AEB30E100EC0E94111361C0009103
:104F0000939A1091949A033020E0120731F42BEC1D
:104F100030E100EC0E94111353C00091939A10915C
:104F2000949A043020E0120731F42CED30E100ECCB
:104F30000E94111345C00091939A1091949A0530E4
:104F400020E0120731F42DEE30E100EC0E94111345
:104F500037C00091939A1091949A063020E012077E
:104F600031F42EEF30E100EC0E94111329C00091C2
:104F7000939A1091949A073020E0120731F42FE0B1
:104F800031E100EC0E9411131BC00091939A109123
:104F9000949A083020E0120731F420E231E100EC6D
:104FA0000E9411130DC00091939A1091949A0930A8
:104FB00020E0120729F421E331E100EC0E941113F3
:104FC0000E940B1308950091959A1091969A012BC7
:104FD00031F428E930E100EC0E9411137DC000910A
:104FE000959A1091969A013020E0120731F429EA3F
:104FF00030E100EC0E9411136FC00091959A10915E
:10500000969A023020E0120731F42AEB30E100ECEE
:105010000E94111361C00091959A1091969A0330E5
:1050200020E0120731F42BEC30E100EC0E94111368
:1050300053C00091959A1091969A043020E012077F
:1050400031F42CED30E100EC0E94111345C00091C9
:10505000959A1091969A053020E0120731F42DEEC2
:1050600030E100EC0E94111337C00091959A109125
:10507000969A063020E0120731F42EEF30E100EC72
:105080000E94111329C00091959A1091969A0730A9
:1050900020E0120731F42FE031E100EC0E941113FF
:1050A0001BC00091959A1091969A083020E0120743
:1050B00031F420E231E100EC0E9411130DC00091A7
:1050C000959A1091969A093020E0120729F421E36D
:1050D00031E100EC0E94111304E00E946F36089544
:1050E0000E3209F045C000919B9A002301F54AE079
:1050F00050E00091939A1091949A0E941B125A9337
:105100004A934AE050E00091939A1091949A0E9439
:105110001B121A930A9302E411E10E944C9A2496FE
:10512000980100EC0E9411130E940B1308954AE0AD
:1051300050E00091959A1091969A0E941B125A93F2
:105140004A934AE050E00091959A1091969A0E94F5
:105150001B121A930A9302E411E10E944C9A2496BE
:10516000980100EC0E94111306E00E946F3608952A
:105170000F3209F05DC000919B9A002361F5009108
:10518000939A1091949A012B31F428E531E100ECC7
:105190000E9411131DC00091939A1091949A0130AE
:1051A00020E0120731F427E631E100EC0E941113F0
:1051B0000FC00091939A1091949A1A930A9300E861
:1051C00018E00E944C9A2296980100EC0E9411135C
:1051D0000E940B1308950091959A1091969A012BB5
:1051E00031F428E531E100EC0E9411131DC000915B
:1051F000959A1091969A013020E0120731F427E633
:1052000031E100EC0E9411130FC00091959A1091AA
:10521000969A1A930A9300E818E00E944C9A2296F4
:10522000980100EC0E94111304E00E946F3608956B
:10523000003309F05DC000919B9A002361F5009155
:10524000939A1091949A012B31F426E731E100EC06
:105250000E9411131DC00091939A1091949A0130ED
:1052600020E0120731F425E831E100EC0E9411132F
:105270000FC00091939A1091949A1A930A9300E8A0
:1052800018E00E944C9A2296980100EC0E9411139B
:105290000E940B1308950091959A1091969A012BF4
:1052A00031F426E731E100EC0E9411131DC000919A
:1052B000959A1091969A013020E0120731F425E872
:1052C00031E100EC0E9411130FC00091959A1091EA
:1052D000969A1A930A9300E818E00E944C9A229634
:1052E000980100EC0E94111304E00E946F360895AB
:1052F000013309F096C000919B9A002309F048C041
:105300000091939A1091949A012B31F422E931E1A2
:1053100000EC0E94111339C00091939A1091949A55
:10532000013020E0120731F423EA31E100EC0E9461
:1053300011132BC00091939A1091949A023020E09F
:10534000120731F424EB31E100EC0E9411131DC06F
:105350000091939A1091949A033020E0120731F44F
:1053600025EC31E100EC0E9411130FC00091939ADB
:105370001091949A1A930A9300E818E00E944C9AAC
:105380002296980100EC0E9411130E940B130895BD
:105390000091959A1091969A012B31F422E931E10E
:1053A00000EC0E94111339C00091959A1091969AC1
:1053B000013020E0120731F423EA31E100EC0E94D1
:1053C00011132BC00091959A1091969A023020E00B
:1053D000120731F424EB31E100EC0E9411131DC0DF
:1053E0000091959A1091969A033020E0120731F4BB
:1053F00025EC31E100EC0E9411130FC00091959A49
:105400001091969A1A930A9300E818E00E944C9A19
:105410002296980100EC0E94111304E00E946F365E
:105420000895023309F05DC000919B9A002361F555
:105430000091939A1091949A012B31F426ED31E169
:1054400000EC0E9411131DC00091939A1091949A40
:10545000013020E0120731F427EE31E100EC0E9428
:1054600011130FC00091939A1091949A1A930A9372
:1054700000E818E00E944C9A2296980100EC0E94E5
:1054800011130E940B1308950091959A1091969A0A
:10549000012B31F426ED31E100EC0E9411131DC007
:1054A0000091959A1091969A013020E0120731F4FC
:1054B00027EE31E100EC0E9411130FC00091959A84
:1054C0001091969A1A930A9300E818E00E944C9A59
:1054D0002296980100EC0E94111304E00E946F369E
:1054E0000895033349F500919B9A002391F40091AC
:1054F000939A1091949A1A930A9308EF11E10E94DB
:105500004C9A2296980100EC0E9411130E940B13F2
:1055100008950091959A1091969A1A930A9308EF1C
:1055200011E10E944C9A2296980100EC0E941113FE
:1055300001E00E946F360895043349F500919B9A6B
:10554000002391F40091939A1091949A1A930A93DC
:1055500009E012E10E944C9A2296980100EC0E9408
:1055600011130E940B1308950091959A1091969A29
:105570001A930A930AE112E10E944C9A229698012A
:1055800000EC0E94111301E00E946F36089505336C
:1055900049F500919B9A002391F40091939A109100
:1055A000949A1A930A930AE212E10E944C9A229664
:1055B000980100EC0E9411130E940B1308950091B2
:1055C000959A1091969A1A930A930AE212E10E9410
:1055D0004C9A2296980100EC0E94111301E00E945F
:1055E0006F360895063349F500919B9A002391F494
:1055F0000091939A1091949A1A930A930BE312E1F3
:105600000E944C9A2296980100EC0E9411130E946D
:105610000B1308950091959A1091969A1A930A93F4
:105620000BE312E10E944C9A2296980100EC0E9432
:10563000111301E00E946F360895073349F5009178
:105640009B9A002391F40091939A1091949A1A9343
:105650000A930CE412E10E944C9A2296980100EC05
:105660000E9411130E940B1308950091959A1091B6
:10567000969A1A930A930CE412E10E944C9A22968D
:10568000980100EC0E94111301E00E946F3608950A
:10569000083309F045C000919B9A002301F54AE0C8
:1056A00050E00091939A1091949A0E941B125A9381
:1056B0004A934AE050E00091939A1091949A0E9484
:1056C0001B121A930A930DE512E10E944C9A24963C
:1056D000980100EC0E9411130E940B1308954AE0F8
:1056E00050E00091959A1091969A0E941B125A933D
:1056F0004A934AE050E00091959A1091969A0E9440
:105700001B121A930A930DE512E10E944C9A2496FB
:10571000980100EC0E94111306E00E946F36089574
:10572000093349F500919B9A002391F40091939AD3
:105730001091949A1A930A9301E712E10E944C9AED
:105740002296980100EC0E9411130E940B130895F9
:105750000091959A1091969A1A930A9301E712E193
:105760000E944C9A2296980100EC0E94111301E0CD
:105770000E946F3608950A3349F500919B9A0023E1
:1057800091F40091939A1091949A1A930A9300E8D5
:1057900012E10E944C9A2296980100EC0E9411138B
:1057A0000E940B1308950091959A1091969A1A935E
:1057B0000A9300E812E10E944C9A2296980100ECAC
:1057C0000E94111301E00E946F3608950B3349F5D2
:1057D00000919B9A002391F40091939A1091949ACE
:1057E0001A930A9301E912E10E944C9A22969801B9
:1057F00000EC0E9411130E940B1308950091959ADA
:105800001091969A1A930A9301E912E10E944C9A18
:105810002296980100EC0E94111301E00E946F365D
:1058200008950C3349F500919B9A002391F400915F
:10583000939A1091949A1A930A9302EA12E10E94A1
:105840004C9A2296980100EC0E9411130E940B13AF
:1058500008950091959A1091969A1A930A9302EAE4
:1058600012E10E944C9A2296980100EC0E941113BA
:1058700001E00E946F3608950D3349F500919B9A1F
:10588000002391F40091939A1091949A1A930A9399
:1058900003EB12E10E944C9A2296980100EC0E94C0
:1058A00011130E940B1308950091959A1091969AE6
:1058B0001A930A9303EB12E10E944C9A22969801E4
:1058C00000EC0E94111301E00E946F3608950E3320
:1058D00009F045C000919B9A002301F54AE050E091
:1058E0000091939A1091949A0E941B125A934A9392
:1058F0004AE050E00091939A1091949A0E941B12F2
:105900001A930A9304EC12E10E944C9A249698018F
:1059100000EC0E9411130E940B1308954AE050E01E
:105920000091959A1091969A0E941B125A934A934D
:105930004AE050E00091959A1091969A0E941B12AD
:105940001A930A9304EC12E10E944C9A249698014F
:1059500000EC0E94111306E00E946F3608950F3389
:1059600009F045C000919B9A002301F54AE050E000
:105970000091939A1091949A0E941B125A934A9301
:105980004AE050E00091939A1091949A0E941B1261
:105990001A930A930AED12E10E944C9A24969801F8
:1059A00000EC0E9411130E940B1308954AE050E08E
:1059B0000091959A1091969A0E941B125A934A93BD
:1059C0004AE050E00091959A1091969A0E941B121D
:1059D0001A930A9300EF12E10E944C9A24969801C0
:1059E00000EC0E94111306E00E946F360895003407
:1059F00009F045C000919B9A002301F548EE53E061
:105A00000091939A1091949A0E941B125A934A9370
:105A100048EE53E00091939A1091949A0E941B12C1
:105A20001A930A9305E013E10E944C9A2496980178
:105A300000EC0E9411130E940B13089548EE53E0EE
:105A40000091959A1091969A0E941B125A934A932C
:105A500048EE53E00091959A1091969A0E941B127D
:105A60001A930A9305E013E10E944C9A2496980138
:105A700000EC0E94111307E00E946F360895013474
:105A800009F0CEC000919B9A002309F064C00091F8
:105A9000939A1091949A012B31F42EEC3AE000EC99
:105AA0000E94111355C00091939A1091949A01305D
:105AB00020E0120731F42BE133E100EC0E941113D6
:105AC00047C00091939A1091949A023020E01207F7
:105AD00031F42CE233E100EC0E94111339C0009143
