:100000000C94E9000C9406010C9406010C94060172
:100010000C9406010C9406010C9406010C94060144
:100020000C9406010C9406010C9406010C94060134
:100030000C9406010C9406010C9406010C94060124
:100040000C9406010C9464020C9406010C940601B5
:100050000C9406010C9406010C9406010C94060104
:100060000C9406010C9406010C9406010C940601F4
:100070000C9406010C9406010C9406010C940601E4
:100080000C9406010C9406010C9406010C940601D4
:100090000C9411240C9406010C94F0230C9406018A
:1000A0000C9406010C9406010C9406010C940601B4
:1000B0000C9406010C9406010C9406010C940601A4
:1000C0000C9406010C9406010C9406010C94060194
:1000D0000C9406010C9406010C9406010C94060184
:1000E0000C9406014D61696E204D656E752050615E
:1000F00067652020004D30204F7065726174696F14
:100100006E20202020004D31204472697665204DFC
:100110006F6E69746F72004D3220506172616D654F
:1001200074657220456474004D33204175746F20EE
:1001300054756E696E672020004D34204661756CE1
:1001400074205265636F726420004D3520496E69DA
:100150007469616C697A65202020004D36205061F9
:100160007373776F72642020202020005B305D4C19
:100170006F63616C2F52656D6F746520005B315D3C
:100180004469722E204368617267652020005B32EB
:100190005D53706565642052656620202020005BF9
:1001A000335D4672657175656E63792052656600D0
:1001B0005B345D546F727175652052656620202036
:1001C000005B355D50494420526566202020202088
:1001D000200011241FBECFEFD1E2DEBFCDBF15E05E
:1001E000A0E0B2E0E0EEFBE400E00BBF02C007904D
:1001F0000D92A03AB107D9F71CE0A0EAB5E001C022
:100200001D92A236B107E1F70C9479020C9400001C
:10021000CF93DF93CDB7DEB7E4E7F0E083EC8083E4
:10022000E5E7F0E080E88083E4E2F0E08FEF8083B0
:10023000E5E2F0E01082EAE2F0E081EF8083EBE2B9
:10024000F0E01082EDE2F0E01082EEE2F0E01082E9
:10025000E0E3F0E08FEF8083E1E3F0E01082E1E0A3
:10026000F1E08FEF8083E2E0F1E01082E4E0F1E082
:100270001082E5E0F1E01082E7E0F1E01082E8E0D2
:10028000F1E01082EAE0F1E08FEF8083EBE0F1E053
:100290001082DF91CF910895CF93DF93CDB7DEB772
:1002A000E0E8F0E080E18083E1E8F0E08CE080834A
:1002B000E2E8F0E01082E8E8F0E08EE390E091837D
:1002C0008083E4E8F0E011821082EFE6F0E082E063
:1002D0008083E6E3F0E08FE28083DF91CF910895A1
:1002E000CF93DF93CDB7DEB71092A1051092A20590
:1002F0001092A3051092A4051092A5051092A605D0
:100300008091A005882319F081E08093A1051092C7
:10031000A0058091A105882379F0809101028F5F6B
:1003200080930102809101028B3030F081E0809354
:10033000010281E08093A2058091A205882379F0D3
:10034000809102028F5F80930202809102028B30C3
:1003500030F081E08093020281E08093A3058091D8
:10036000A3058823F1F0809104028F5F809304023B
:1003700080910402863030F081E08093040281E0B5
:100380008093A505809103028F5F80930302809183
:100390000302833030F081E08093030281E0809398
:1003A000A4058091A505882379F0809105028F5FCF
:1003B0008093050280910502833030F081E08093C4
:1003C000050281E08093A6058091A205882351F063
:1003D0008091A705882319F01092A70503C081E03A
:1003E0008093A7058091A505882351F08091A805E9
:1003F000882319F01092A80503C08FEF8093A805F9
:10040000DF91CF910895CF93DF93CDB7DEB7809181
:10041000A605882309F455C08091A905882369F0B1
:100420008091AE058F5F8093AE058091AE058230DE
:1004300020F01092A9051092AE058091AA0588239C
:1004400069F08091AF058F5F8093AF058091AF0514
:10045000833020F01092AA051092AF058091AB0571
:10046000882369F08091B0058F5F8093B0058091FB
:10047000B0058D3320F01092AB051092B00580913D
:10048000AC05882369F08091B1058F5F8093B10539
:100490008091B105893720F01092AC051092B1051A
:1004A0008091AD05882369F08091B2058F5F8093BC
:1004B000B2058091B2058B3020F01092AD051092FC
:1004C000B205DF91CF9108951F920F920FB60F9250
:1004D00011248F93CF93DF93CDB7DEB781E0809364
:1004E000A005DF91CF918F910F900FBE0F901F90BD
:1004F0001895CF93DF93CDB7DEB70E94080188EC43
:1005000090E00E94F9020E94692586E092E0BC0119
:1005100080E80E94402586E192E0BC0180EC0E94C8
:10052000402581E00E9480250E9499060E944C018E
:100530000E9462230E946407789484EF91E00E94F5
:10054000F90284EF91E00E94F90284EF91E00E94A9
:10055000F90284EF91E00E94F90281E08093AD05F9
:100560008091A205882331F00E94A8060E94E71B13
:100570000E94BC1F8091A505882399F0ABE0B1E0F3
:10058000EBE0F1E080818F5F8C938091CE058F5FEF
:100590008093CE058091CE05863018F081E080935F
:1005A000CD050E9470010E940302DACFCF93DF9342
:1005B000CDB7DEB722970FB6F894DEBF0FBECDBF22
:1005C00089831A8209C00F920F900F920F900F9299
:1005D0000F908A818F5F8A8389819A81981798F317
:1005E00022960FB6F894DEBF0FBECDBFDF91CF913C
:1005F0000895CF93DF93CDB7DEB724970FB6F89465
:10060000DEBF0FBECDBF9A8389831C821B8212C0BE
:100610008AEF0E94D6028AEF0E94D6028AEF0E94D9
:10062000D6028AEF0E94D6022B813C812F5F3F4F7A
:100630003C832B8389819A812B813C812817390740
:1006400038F324960FB6F894DEBF0FBECDBFDF910E
:10065000CF910895CF93DF93CDB7DEB72A970FB62A
:10066000F894DEBF0FBECDBF9C838B837E836D83EA
:1006700058874F838F8198859A87898789859A853E
:100680008330910509F440C089859A8584309105AD
:100690005CF489859A858130910599F089859A85E0
:1006A00082309105A1F010C189859A858430910529
:1006B00009F45EC089859A858530910509F4A3C047
:1006C00003C18B81805DED81FE818083FDC08B81C4
:1006D0009C812AE030E0B9010E94A725CB01805D12
:1006E000ED81FE8180838B819C812AE030E0B9011D
:1006F0000E94A7259A8389838D819E81FC01319672
:100700008981805D8083E0C08B819C8124E630E01C
:10071000B9010E94A725CB01805DED81FE81808318
:100720008B819C8124E630E0B9010E94A7259A8341
:1007300089838D819E81FC01319689819A812AE08D
:1007400030E0B9010E94A725CB01805D80838981BB
:100750009A812AE030E0B9010E94A7259A83898313
:100760008D819E81FC0132968981805D8083ACC041
:100770008B819C8128EE33E0B9010E94A725CB0133
:10078000805DED81FE8180838B819C8128EE33E04A
:10079000B9010E94A7259A8389838D819E81FC01DE
:1007A000319689819A8124E630E0B9010E94A7251B
:1007B000CB01805D808389819A8124E630E0B90194
:1007C0000E94A7259A8389838D819E81FC013296A0
:1007D00089819A812AE030E0B9010E94A725CB01E6
:1007E000805D808389819A812AE030E0B9010E948E
:1007F000A7259A8389838D819E81FC013396898107
:10080000805D808361C08B819C8120E137E2B901EA
:100810000E94A725CB01805DED81FE8180838B81C5
:100820009C8120E137E2B9010E94A7259A83898340
:100830008D819E81FC01319689819A8128EE33E079
:10084000B9010E94A725CB01805D808389819A81AF
:1008500028EE33E0B9010E94A7259A8389838D8110
:100860009E81FC01329689819A8124E630E0B901AB
:100870000E94A725CB01805D808389819A8124E62F
:1008800030E0B9010E94A7259A8389838D819E81DA
:10089000FC01339689819A812AE030E0B9010E94F7
:1008A000A725CB01805D808389819A812AE030E091
:1008B000B9010E94A7259A8389838D819E81FC01BD
:1008C00034968981805D80832A960FB6F894DEBFC6
:1008D0000FBECDBFDF91CF910895CF93DF93CDB7FA
:1008E000DEB722970FB6F894DEBF0FBECDBF9A8356
:1008F000898389819A819093B4058093B305229668
:100900000FB6F894DEBF0FBECDBFDF91CF91089533
:10091000CF93DF93CDB7DEB721970FB6F894DEBF44
:100920000FBECDBF898389818A3031F4E091B30550
:10093000F091B4058DE01995E091B305F091B405FF
:100940008981199521960FB6F894DEBF0FBECDBFF1
:10095000DF91CF910895CF93DF93CDB7DEB7A39703
:100960000FB6F894DEBF0FBECDBF1D861C8618865D
:1009700019861A861B861C821D821E821F82CE014A
:100980008B9698A38F8F07C08A89882309F4C8C1E2
:100990008A890E948804E9A5FAA580818A8B1BA216
:1009A0008A89853211F021E02BA389A59AA50196A9
:1009B0009AA789A73BA1332339F71D868AE090E0E7
:1009C000998B888BE9A5FAA580818A8B89A59AA540
:1009D00001969AA789A71A821B828A89803319F007
:1009E0008A898032E9F48A898B83E9A5FAA5808116
:1009F0008A8B89A59AA501969AA789A78A898033A7
:100A000078F08A898A3360F48A8980538A83E9A5D9
:100A1000FAA580818A8B89A59AA501969AA789A7AC
:100A20001C868A898C3619F08A898C3459F481E0C5
:100A30008C87E9A5FAA580818A8B89A59AA501965C
:100A40009AA789A78A89282F33273AA329A389A19E
:100A50009AA18835910509F481C029A13AA12935C7
:100A6000310524F589A19AA18934910509F473C04F
:100A700029A13AA12A34310564F489A19AA18334C9
:100A80009105E1F129A13AA12434310509F463C0AB
:100A90003FC089A19AA18335910509F440C029A1DD
:100AA0003AA12535310509F45DC032C089A19AA16A
:100AB0008936910509F44FC029A13AA12A3631059A
:100AC00064F489A19AA183369105C1F029A13AA1C4
:100AD0002436310509F43FC01BC089A19AA185378E
:100AE000910509F43FC029A13AA128373105B1F198
:100AF00089A19AA18337910591F00AC02F8D38A161
:100B0000C901029698A38F8FF901808191818A8B08
:100B100085E20E9488048A890E9488043CCF2F8D38
:100B200038A1C901029698A38F8FF9018081918124
:100B30009F878E870AC0EE85FF8580810E9488048A
:100B40008E859F8501969F878E87EE85FF858081A4
:100B5000882389F720CF81E08D8704C080E190E071
:100B6000998B888B8D85882309F445C08C858823D3
:100B700081F02F8D38A1C901049698A38F8FF901B8
:100B800080819181A281B3818C839D83AE83BF8359
:100B900011C02F8D38A1C901029698A38F8FF9013A
:100BA00080819181AA2797FDA095BA2F8C839D8380
:100BB000AE83BF838C819D81AE81BF81BB2394F4C2
:100BC0008C819D81AE81BF81B095A09590958195D6
:100BD0009F4FAF4FBF4F8C839D83AE83BF838DE20A
:100BE0000E9488048C819D81AE81BF81888799870E
:100BF000AA87BB8722C08C85882381F02F8D38A1DE
:100C0000C901049698A38F8FF90180819181A281F7
:100C1000B38188879987AA87BB870FC02F8D38A19A
:100C2000C901029698A38F8FF90180819181AA272B
:100C3000BB2788879987AA87BB87CE0143960C96E6
:100C40009F878E878E859F8501979F878E87EE85EC
:100C5000FF851082888999899C01442755278885BA
:100C60009985AA85BB85BC01CD010E94BA25DC010E
:100C7000CB01805D898389818A3330F08981895DE8
:100C800089838981805289838E859F8501979F877B
:100C90008E87EE85FF8589818083888999899C016B
:100CA0004427552788859985AA85BB85BC01CD0138
:100CB0000E94BA25DA01C90188879987AA87BB876C
:100CC0008A81882319F08A8181508A838885998551
:100CD000AA85BB850097A105B10509F0BBCF09C066
:100CE0008E859F8501979F878E87EE85FF858B81F7
:100CF00080838A8181508A838A818F3F89F70AC0E5
:100D0000EE85FF8580810E9488048E859F850196EF
:100D10009F878E87EE85FF858081882389F73BCE6C
:100D2000A3960FB6F894DEBF0FBECDBFDF91CF9173
:100D30000895CF93DF93CDB7DEB78FEF9FEF9093FA
:100D40003C0680933B0610923D06DF91CF910895BB
:100D5000CF93DF93CDB7DEB70E94B90690933C06E0
:100D600080933B068091B70580933D06DF91CF913C
:100D70000895CF93DF93CDB7DEB726970FB6F894DB
:100D8000DEBF0FBECDBF8FEF9FEF9C838B838FEFB6
:100D90009FEF9A838983E3E0F1E08081282F332756
:100DA000E6E0F1E080818E6F9927982F8827822BCB
:100DB000932B9A83898389819A812FEF8F3F9207A2
:100DC00019F01092230203C08FEF809323028091C9
:100DD0002302882309F03FC0809124028823D9F59B
:100DE0008091B5059091B60501969093B6058093D4
:100DF000B5058091B5059091B6058330910568F0F1
:100E00008091B5059091B6058430910530F48981C3
:100E10009A8190932602809325028091B505909146
:100E2000B60521E08D329207E0F18091B5059091F1
:100E3000B60521E08E329207A0F5809125029091AF
:100E400026029C838B8381E08093B7058B819C81F4
:100E50009E838D832EC080912302882359F4809134
:100E60002402882339F01092B6051092B50510922D
:100E7000B70517C080912302882399F0809124023E
:100E8000882379F48091B705882359F4809125024D
:100E9000909126029C838B831092B6051092B50523
:100EA00000C080912302809324028B819C819E83C9
:100EB0008D838D819E8126960FB6F894DEBF0FBE7E
:100EC000CDBFDF91CF910895CF93DF93CDB7DEB73C
:100ED00081E090E0A0E0B0E080933709909338097A
:100EE000A0933909B0933A098FEF90E0A0E0B0E009
:100EF0008093330990933409A0933509B093360950
:100F0000DF91CF910895CF93DF93CDB7DEB7809176
:100F1000330990913409A0913509B0913609809335
:100F2000370990933809A0933909B0933A09DF91B2
:100F3000CF910895CF93DF93CDB7DEB727970FB644
:100F4000F894DEBF0FBECDBF9D838C837F836E83FD
:100F5000EC81FD81118210828E819F819B838A8327
:100F6000EA81FB81849189838981EC81FD81808381
:100F7000EC81FD818081882321F4EC81FD81108248
:100F80000BC08C819D8101969D838C838E819F8176
:100F900001969F838E83E0CF27960FB6F894DEBF2D
:100FA0000FBECDBFDF91CF910895CF93DF93CDB723
:100FB000DEB784EE90E023E338E0BC01C9010E9473
:100FC0009A0783E398E0BC0180E80E94402585EF02
:100FD00090E023E338E0BC01C9010E949A0783E353
:100FE00098E0BC0180EC0E944025DF91CF910895EC
:100FF000CF93DF93CDB7DEB78CE691E023E338E003
:10100000BC01C9010E949A0783E398E0BC0180E813
:101010000E9440258CE292E0BC0180EC0E944025B9
:10102000DF91CF910895CF93DF93CDB7DEB78CE6F4
:1010300091E023E338E0BC01C9010E949A0783E3F1
:1010400098E0BC0180E80E9440258DE392E0BC015D
:1010500080EC0E944025DF91CF910895CF93DF93DC
:10106000CDB7DEB78DE791E023E338E0BC01C901DD
:101070000E949A0783E398E0BC0180E80E94402523
:101080008EE492E0BC0180EC0E944025DF91CF917C
:101090000895CF93DF93CDB7DEB78DE791E023E3DB
:1010A00038E0BC01C9010E949A0783E398E0BC01C3
:1010B00080E80E9440258FE592E0BC0180EC0E9410
:1010C0004025DF91CF910895CF93DF93CDB7DEB761
:1010D0008EE891E023E338E0BC01C9010E949A0741
:1010E00083E398E0BC0180E80E94402580E792E01D
:1010F000BC0180EC0E944025DF91CF910895CF93F1
:10110000DF93CDB7DEB78FE991E023E338E0BC0190
:10111000C9010E949A0783E398E0BC0180E80E941D
:10112000402581E892E0BC0180EC0E944025DF91DF
:10113000CF910895CF93DF93CDB7DEB780EB91E0E9
:1011400023E338E0BC01C9010E949A0783E398E0D9
:10115000BC0180E80E94402582E992E0BC0180EC5D
:101160000E944025DF91CF910895CF93DF93CDB7B3
:10117000DEB781EC91E023E338E0BC01C9010E94B5
:101180009A0783E398E0BC0180E80E94402583EA47
:1011900092E0BC0180EC0E944025DF91CF91089540
:1011A000CF93DF93CDB7DEB784EE90E023E338E052
:1011B000BC01C9010E949A0783E398E0BC0180E862
:1011C0000E94402586E091E023E338E0BC01C9019C
:1011D0000E949A0783E398E0BC0180EC0E944025BE
:1011E000DF91CF910895CF93DF93CDB7DEB784EB36
:1011F00092E0BC0180E80E94402585EC92E0BC01B1
:1012000080EC0E944025DF91CF910895CF93DF932A
:10121000CDB7DEB786ED92E0BC0180E80E944025A4
:1012200080E792E0BC0180EC0E944025DF91CF91E5
:101230000895CF93DF93CDB7DEB787EE92E0BC0180
:1012400080E80E94402581E892E0BC0180EC0E9489
:101250004025DF91CF910895CF93DF93CDB7DEB7CF
:1012600088EF92E0BC0180E80E94402589E093E08D
:10127000BC0180EC0E944025DF91CF910895CF936F
:10128000DF93CDB7DEB78AE193E0BC0180E80E942E
:1012900040258BE293E0BC0180EC0E944025DF9169
:1012A000CF910895CF93DF93CDB7DEB78CE393E072
:1012B000BC0180E80E9440258BE293E0BC0180ECF9
:1012C0000E944025DF91CF910895CF93DF93CDB752
:1012D000DEB78DE493E0BC0180E80E94402582E9FE
:1012E00092E0BC0180EC0E944025DF91CF910895EF
:1012F000CF93DF93CDB7DEB78EE593E0BC0180E8F6
:101300000E9440258FE693E0BC0180EC0E944025BE
:10131000DF91CF910895CF93DF93CDB7DEB780E80B
:1013200093E0BC0180E80E9440258FE693E0BC0179
:1013300080EC0E944025DF91CF910895CF93DF93F9
:10134000CDB7DEB781E993E0BC0180E80E9440257B
:1013500082EA93E0BC0180EC0E944025DF91CF91AE
:101360000895CF93DF93CDB7DEB783EB93E0BC0155
:1013700080E80E94402582EA93E0BC0180EC0E9454
:101380004025DF91CF910895CF93DF93CDB7DEB79E
:1013900084EC93E0BC0180E80E94402585ED93E059
:1013A000BC0180EC0E944025DF91CF910895CF933E
:1013B000DF93CDB7DEB786EE93E0BC0180E80E94F4
:1013C000402585ED93E0BC0180EC0E944025DF9133
:1013D000CF910895CF93DF93CDB7DEB787EF93E03A
:1013E000BC0180E80E94402585ED93E0BC0180ECC3
:1013F0000E944025DF91CF910895CF93DF93CDB721
:10140000DEB788E094E0BC0180E80E94402589E1D5
:1014100094E0BC0180EC0E944025DF91CF910895BB
:10142000CF93DF93CDB7DEB784EB92E0BC0180E8C9
:101430000E9440258AE294E0BC0180EC0E94402595
:10144000DF91CF910895CF93DF93CDB7DEB78BE3D4
:1014500094E0BC0180E80E94402585ED93E0BC014A
:1014600080EC0E944025DF91CF910895CF93DF93C8
:10147000CDB7DEB78CE494E0BC0180E80E94402543
:1014800085ED93E0BC0180EC0E944025DF91CF9177
:101490000895CF93DF93CDB7DEB78DE594E0BC011F
:1014A00080E80E9440258EE694E0BC0180EC0E941A
:1014B0004025DF91CF910895CF93DF93CDB7DEB76D
:1014C0008FE794E0BC0180E80E9440258EE694E01E
:1014D000BC0180EC0E944025DF91CF910895CF930D
:1014E000DF93CDB7DEB780E994E0BC0180E80E94CD
:1014F000402581EA94E0BC0180EC0E944025DF9108
:10150000CF910895CF93DF93CDB7DEB784EB92E010
:10151000BC0180E80E94402582EB94E0BC0180EC95
:101520000E944025DF91CF910895CF93DF93CDB7EF
:10153000DEB783EC94E0BC0180E80E94402585ED95
:1015400093E0BC0180EC0E944025DF91CF9108958B
:10155000CF93DF93CDB7DEB784ED94E0BC0180E894
:101560000E94402585ED93E0BC0180EC0E9440255F
:10157000DF91CF910895CF93DF93CDB7DEB785EE9E
:1015800094E0BC0180E80E94402585ED93E0BC0119
:1015900080EC0E944025DF91CF910895CF93DF9397
:1015A000CDB7DEB786EF94E0BC0180E80E9440250D
:1015B00085ED93E0BC0180EC0E944025DF91CF9146
:1015C0000895CF93DF93CDB7DEB787E095E0BC01F8
:1015D00080E80E94402582EA93E0BC0180EC0E94F2
:1015E0004025DF91CF910895CF93DF93CDB7DEB73C
:1015F00088E195E0BC0180E80E94402589E295E001
:10160000BC0180EC0E944025DF91CF910895CF93DB
:10161000DF93CDB7DEB78AE395E0BC0180E80E9496
:10162000402585ED93E0BC0180EC0E944025DF91D0
:10163000CF910895CF93DF93CDB7DEB78BE495E0DC
:10164000BC0180E80E94402585ED93E0BC0180EC60
:101650000E944025DF91CF910895CF93DF93CDB7BE
:10166000DEB78CE595E0BC0180E80E94402585ED61
:1016700093E0BC0180EC0E944025DF91CF9108955A
:10168000CF93DF93CDB7DEB784EE90E023E338E06D
:10169000BC01C9010E949A0783E398E0BC0180E87D
:1016A0000E94402587E191E023E338E0BC01C901B5
:1016B0000E949A0783E398E0BC0180EC0E944025D9
:1016C000DF91CF910895CF93DF93CDB7DEB78DE64D
:1016D00095E0BC0180E80E9440258DE695E0BC01C4
:1016E00080EC0E944025DF91CF910895CF93DF9346
:1016F000CDB7DEB784EE90E023E338E0BC01C9014A
:101700000E949A0783E398E0BC0180E80E9440258C
:1017100088E291E023E338E0BC01C9010E949A0706
:1017200083E398E0BC0180EC0E944025DF91CF91DB
:101730000895CF93DF93CDB7DEB784EE90E023E337
:1017400038E0BC01C9010E949A0783E398E0BC011C
:1017500080E80E94402589E391E023E338E0BC0162
:10176000C9010E949A0783E398E0BC0180EC0E94C3
:101770004025DF91CF910895CF93DF93CDB7DEB7AA
:1017800084EE90E023E338E0BC01C9010E949A078F
:1017900083E398E0BC0180E80E9440258AE491E060
:1017A00023E338E0BC01C9010E949A0783E398E073
:1017B000BC0180EC0E944025DF91CF910895CF932A
:1017C000DF93CDB7DEB784EE90E023E338E0BC01D1
:1017D000C9010E949A0783E398E0BC0180E80E9457
:1017E00040258BE591E023E338E0BC01C9010E946C
:1017F0009A0783E398E0BC0180EC0E944025DF91CA
:10180000CF910895CF93DF93CDB7DEB78EE795E004
:10181000BC0180E80E9440258FE895E0BC0180EC87
:101820000E944025DF91CF910895CF93DF93CDB7EC
:10183000DEB780913B0690913C062FEF8D3F9207DB
:1018400069F487E090E0A0E0B0E0809337099093DE
:101850003809A0933909B0933A093EC080913B06FC
:1018600090913C062FEF8F37920769F482E090E069
:10187000A0E0B0E08093370990933809A09339092C
:10188000B0933A0929C080913B0690913C062FEF16
:101890008B3F920769F48AE090E0A0E0B0E080938B
:1018A000370990933809A0933909B0933A0914C0C5
:1018B00080913B0690913C062EEF8A3B920761F4A3
:1018C0008FEF9FEFAFEFBFEF809337099093380909
:1018D000A0933909B0933A09DF91CF910895CF933E
:1018E000DF93CDB7DEB780913B0690913C062FEF9A
:1018F0008B3F920769F484E690E0A0E0B0E080932B
:10190000370990933809A0933909B0933A093EC03A
:1019100080913B0690913C062FEF8E3F920769F431
:1019200081E090E0A0E0B0E080933709909338091F
:10193000A0933909B0933A0929C080913B06909150
:101940003C062FEF8D3F920769F48FE090E0A0E016
:10195000B0E08093370990933809A0933909B09388
:101960003A0914C080913B0690913C062FEF8F37C7
:10197000920761F48BE090E0A0E0B0E0809337093B
:1019800090933809A0933909B0933A09DF91CF9128
:101990000895CF93DF93CDB7DEB780913B0690914A
:1019A0003C062FEF8B3F920769F48AE090E0A0E0BD
:1019B000B0E08093370990933809A0933909B09328
:1019C0003A093EC080913B0690913C062FEF8E3F36
:1019D000920769F481E090E0A0E0B0E080933709DD
:1019E00090933809A0933909B0933A0929C080919E
:1019F0003B0690913C062FEF8D3F920769F48FE0F4
:101A000090E0A0E0B0E08093370990933809A0936C
:101A10003909B0933A0914C080913B0690913C0675
:101A20002FEF8F37920761F48BE090E0A0E0B0E0F9
:101A30008093370990933809A0933909B0933A09F4
:101A4000DF91CF910895CF93DF93CDB7DEB780912B
:101A50003B0690913C062FEF8B3F920769F488EC90
:101A600090E0A0E0B0E08093370990933809A0930C
:101A70003909B0933A093EC080913B0690913C06EB
:101A80002FEF8E3F920769F481E090E0A0E0B0E094
:101A90008093370990933809A0933909B0933A0994
:101AA00029C080913B0690913C062FEF8D3F920715
:101AB00069F48AE090E0A0E0B0E080933709909369
:101AC0003809A0933909B0933A0914C080913B06B4
:101AD00090913C062FEF8F37920761F48CE090E0F5
:101AE000A0E0B0E08093370990933809A0933909BA
:101AF000B0933A09DF91CF910895CF93DF93CDB79B
:101B0000DEB780913B0690913C062FEF8B3F92070A
:101B100069F484E190E0A0E0B0E08093370990930D
:101B20003809A0933909B0933A093EC080913B0629
:101B300090913C062FEF8E3F920769F481E090E090
:101B4000A0E0B0E08093370990933809A093390959
:101B5000B0933A0929C080913B0690913C062FEF43
:101B60008D3F920769F48AE090E0A0E0B0E08093B6
:101B7000370990933809A0933909B0933A0914C0F2
:101B800080913B0690913C062FEF8F37920761F4CE
:101B90008CE090E0A0E0B0E08093370990933809A2
:101BA000A0933909B0933A09DF91CF910895CF936B
:101BB000DF93CDB7DEB780913B0690913C062FEFC7
:101BC0008E3F920769F481E090E0A0E0B0E080935E
:101BD000370990933809A0933909B0933A0929C07D
:101BE00080913B0690913C062FEF8D3F920769F460
:101BF0008BE090E0A0E0B0E0809337099093380943
:101C0000A0933909B0933A0914C080913B06909192
:101C10003C062FEF8F37920761F48DE090E0A0E053
:101C2000B0E08093370990933809A0933909B093B5
:101C30003A09DF91CF910895CF93DF93CDB7DEB707
:101C400080913B0690913C062FEF8E3F920769F4FE
:101C500081E090E0A0E0B0E08093370990933809EC
:101C6000A0933909B0933A0929C080913B0690911D
:101C70003C062FEF8D3F920769F48CE090E0A0E0E6
:101C8000B0E08093370990933809A0933909B09355
:101C90003A0914C080913B0690913C062FEF8F3794
:101CA000920761F48EE090E0A0E0B0E08093370905
:101CB00090933809A0933909B0933A09DF91CF91F5
:101CC0000895CF93DF93CDB7DEB780913B06909117
:101CD0003C062FEF8E3F920769F481E090E0A0E090
:101CE000B0E08093370990933809A0933909B093F5
:101CF0003A0929C080913B0690913C062FEF8D3F19
:101D0000920769F48DE090E0A0E0B0E0809337099D
:101D100090933809A0933909B0933A0914C080917F
:101D20003B0690913C062FEF8F37920761F48FE0CE
:101D300090E0A0E0B0E08093370990933809A09339
:101D40003909B0933A09DF91CF910895CF93DF938A
:101D5000CDB7DEB780913B0690913C062FEF8E3FCA
:101D6000920769F481E090E0A0E0B0E08093370949
:101D700090933809A0933909B0933A0929C080910A
:101D80003B0690913C062FEF8D3F920769F48EE061
:101D900090E0A0E0B0E08093370990933809A093D9
:101DA0003909B0933A0914C080913B0690913C06E2
:101DB0002FEF8F37920761F48AE090E0A0E0B0E067
:101DC0008093370990933809A0933909B0933A0961
:101DD000DF91CF910895CF93DF93CDB7DEB7809198
:101DE0003B0690913C062FEF8D3F920769F481E00E
:101DF00090E0A0E0B0E08093370990933809A09379
:101E00003909B0933A093EC080913B0690913C0657
:101E10002FEF8F37920769F483E090E0A0E0B0E005
:101E20008093370990933809A0933909B0933A0900
:101E300029C080913B0690913C062FEF8B3F920783
:101E400069F484E190E0A0E0B0E0809337099093DA
:101E50003809A0933909B0933A0914C080913B0620
:101E600090913C062EEF8A3B920761F48FEF9FEF33
:101E7000AFEFBFEF8093370990933809A0933909EA
:101E8000B0933A09DF91CF910895CF93DF93CDB707
:101E9000DEB780913B0690913C062FEF8E3F920774
:101EA00069F482E090E0A0E0B0E08093370990937D
:101EB0003809A0933909B0933A093EC080913B0696
:101EC00090913C062FEF8B3F920769F480ED97E0ED
:101ED000A0E0B0E08093370990933809A0933909C6
:101EE000B0933A0929C080913B0690913C062FEFB0
:101EF0008D3F920769F486E190E0A0E0B0E0809326
:101F0000370990933809A0933909B0933A0914C05E
:101F100080913B0690913C062FEF8F37920761F43A
:101F200085E190E0A0E0B0E0809337099093380914
:101F3000A0933909B0933A09DF91CF910895CF93D7
:101F4000DF93CDB7DEB780913B0690913C062FEF33
:101F50008E3F920769F484E190E0A0E0B0E08093C6
:101F6000370990933809A0933909B0933A0929C0E9
:101F700080913B0690913C062FEF8D3F920769F4CC
:101F80008DED97E0A0E0B0E0809337099093380999
:101F9000A0933909B0933A0914C080913B069091FF
:101FA0003C062FEF8F37920761F481ED97E0A0E0B8
:101FB000B0E08093370990933809A0933909B09322
:101FC0003A09DF91CF910895CF93DF93CDB7DEB774
:101FD00080913B0690913C062FEF8E3F920769F46B
:101FE00084E190E0A0E0B0E0809337099093380955
:101FF000A0933909B0933A0929C080913B0690918A
:102000003C062FEF8D3F920769F480ED97E0A0E04A
:10201000B0E08093370990933809A0933909B093C1
:102020003A0914C080913B0690913C062FEF8F3700
:10203000920761F482ED97E0A0E0B0E08093370969
:1020400090933809A0933909B0933A09DF91CF9161
:102050000895CF93DF93CDB7DEB780913B06909183
:102060003C062FEF8E3F920769F484E190E0A0E0F8
:10207000B0E08093370990933809A0933909B09361
:102080003A0929C080913B0690913C062FEF8D3F85
:10209000920769F481ED97E0A0E0B0E08093370902
:1020A00090933809A0933909B0933A0914C08091EC
:1020B0003B0690913C062FEF8F37920761F483ED3A
:1020C00097E0A0E0B0E08093370990933809A0939F
:1020D0003909B0933A09DF91CF910895CF93DF93F7
:1020E000CDB7DEB780913B0690913C062FEF8E3F37
:1020F000920769F484E190E0A0E0B0E080933709B2
:1021000090933809A0933909B0933A0929C0809176
:102110003B0690913C062FEF8D3F920769F482EDCC
:1021200097E0A0E0B0E08093370990933809A0933E
:102130003909B0933A0914C080913B0690913C064E
:102140002FEF8F37920761F484ED97E0A0E0B0E0C5
:102150008093370990933809A0933909B0933A09CD
:10216000DF91CF910895CF93DF93CDB7DEB7809104
:102170003B0690913C062FEF8E3F920769F484E175
:1021800090E0A0E0B0E08093370990933809A093E5
:102190003909B0933A0929C080913B0690913C06D9
:1021A0002FEF8D3F920769F483ED97E0A0E0B0E058
:1021B0008093370990933809A0933909B0933A096D
:1021C00014C080913B0690913C062FEF8F37920709
:1021D00061F485ED97E0A0E0B0E08093370990933B
:1021E0003809A0933909B0933A09DF91CF91089546
:1021F000CF93DF93CDB7DEB780913B0690913C063D
:102200002FEF8E3F920769F484E190E0A0E0B0E008
:102210008093370990933809A0933909B0933A090C
:1022200029C080913B0690913C062FEF8D3F92078D
:1022300069F484ED97E0A0E0B0E0809337099093D3
:102240003809A0933909B0933A0914C080913B062C
:1022500090913C062FEF8F37920761F486ED97E05F
:10226000A0E0B0E08093370990933809A093390932
:10227000B0933A09DF91CF910895CF93DF93CDB713
:10228000DEB780913B0690913C062FEF8E3F920780
:1022900069F484E190E0A0E0B0E080933709909386
:1022A0003809A0933909B0933A0929C080913B06B7
:1022B00090913C062FEF8D3F920769F485ED97E0F2
:1022C000A0E0B0E08093370990933809A0933909D2
:1022D000B0933A0914C080913B0690913C062FEFD1
:1022E0008F37920761F487ED97E0A0E0B0E080932C
:1022F000370990933809A0933909B0933A09DF91CF
:10230000CF910895CF93DF93CDB7DEB780913B0691
:1023100090913C062FEF8E3F920769F484E190E0A4
:10232000A0E0B0E08093370990933809A093390971
:10233000B0933A0929C080913B0690913C062FEF5B
:102340008D3F920769F486ED97E0A0E0B0E08093BE
:10235000370990933809A0933909B0933A0914C00A
:1023600080913B0690913C062FEF8F37920761F4E6
:1023700088ED97E0A0E0B0E08093370990933809AA
:10238000A0933909B0933A09DF91CF910895CF9383
:10239000DF93CDB7DEB780913B0690913C062FEFDF
:1023A0008E3F920769F484E190E0A0E0B0E0809372
:1023B000370990933809A0933909B0933A0929C095
:1023C00080913B0690913C062FEF8D3F920769F478
:1023D00087ED97E0A0E0B0E080933709909338094B
:1023E000A0933909B0933A0914C080913B069091AB
:1023F0003C062FEF8F37920761F489ED97E0A0E05C
:10240000B0E08093370990933809A0933909B093CD
:102410003A09DF91CF910895CF93DF93CDB7DEB71F
:1024200080913B0690913C062FEF8E3F920769F416
:1024300084E190E0A0E0B0E0809337099093380900
:10244000A0933909B0933A0929C080913B06909135
:102450003C062FEF8D3F920769F488ED97E0A0E0EE
:10246000B0E08093370990933809A0933909B0936D
:102470003A0914C080913B0690913C062FEF8F37AC
:10248000920761F48AED97E0A0E0B0E0809337090D
:1024900090933809A0933909B0933A09DF91CF910D
:1024A0000895CF93DF93CDB7DEB780913B0690912F
:1024B0003C062FEF8E3F920769F484E190E0A0E0A4
:1024C000B0E08093370990933809A0933909B0930D
:1024D0003A0929C080913B0690913C062FEF8D3F31
:1024E000920769F489ED97E0A0E0B0E080933709A6
:1024F00090933809A0933909B0933A0914C0809198
:102500003B0690913C062FEF8F37920761F48BEDDD
:1025100097E0A0E0B0E08093370990933809A0934A
:102520003909B0933A09DF91CF910895CF93DF93A2
:10253000CDB7DEB780913B0690913C062FEF8E3FE2
:10254000920769F484E190E0A0E0B0E0809337095D
:1025500090933809A0933909B0933A0929C0809122
:102560003B0690913C062FEF8D3F920769F48AED70
:1025700097E0A0E0B0E08093370990933809A093EA
:102580003909B0933A0914C080913B0690913C06FA
:102590002FEF8F37920761F48CED97E0A0E0B0E069
:1025A0008093370990933809A0933909B0933A0979
:1025B000DF91CF910895CF93DF93CDB7DEB78091B0
:1025C0003B0690913C062FEF8E3F920769F484E121
:1025D00090E0A0E0B0E08093370990933809A09391
:1025E0003909B0933A0929C080913B0690913C0685
:1025F0002FEF8D3F920769F48BED97E0A0E0B0E0FC
:102600008093370990933809A0933909B0933A0918
:1026100014C080913B0690913C062FEF8F379207B4
:1026200061F48DED97E0A0E0B0E0809337099093DE
:102630003809A0933909B0933A09DF91CF910895F1
:10264000CF93DF93CDB7DEB780913B0690913C06E8
:102650002FEF8E3F920769F484E190E0A0E0B0E0B4
:102660008093370990933809A0933909B0933A09B8
:1026700029C080913B0690913C062FEF8D3F920739
:1026800069F48CED97E0A0E0B0E080933709909377
:102690003809A0933909B0933A0914C080913B06D8
:1026A00090913C062FEF8F37920761F480ED97E011
:1026B000A0E0B0E08093370990933809A0933909DE
:1026C000B0933A09DF91CF910895CF93DF93CDB7BF
:1026D000DEB780913B0690913C062FEF8E3F92072C
:1026E00069F482E090E0A0E0B0E080933709909335
:1026F0003809A0933909B0933A093EC080913B064E
:1027000090913C062FEF8B3F920769F484E398E0A9
:10271000A0E0B0E08093370990933809A09339097D
:10272000B0933A0929C080913B0690913C062FEF67
:102730008D3F920769F484E190E0A0E0B0E08093DF
:10274000370990933809A0933909B0933A0914C016
:1027500080913B0690913C062FEF8F37920761F4F2
:1027600086E190E0A0E0B0E08093370990933809CB
:10277000A0933909B0933A09DF91CF910895CF938F
:10278000DF93CDB7DEB780913B0690913C062FEFEB
:102790008E3F920769F485E190E0A0E0B0E080937D
:1027A000370990933809A0933909B0933A0929C0A1
:1027B00080913B0690913C062FEF8D3F920769F484
:1027C00088E398E0A0E0B0E080933709909338095F
:1027D000A0933909B0933A0914C080913B069091B7
:1027E0003C062FEF8F37920761F485E398E0A0E075
:1027F000B0E08093370990933809A0933909B093DA
:102800003A09DF91CF910895CF93DF93CDB7DEB72B
:1028100080913B0690913C062FEF8E3F920769F422
:1028200085E190E0A0E0B0E080933709909338090B
:10283000A0933909B0933A0929C080913B06909141
:102840003C062FEF8D3F920769F484E398E0A0E007
:10285000B0E08093370990933809A0933909B09379
:102860003A0914C080913B0690913C062FEF8F37B8
:10287000920761F486E398E0A0E0B0E08093370926
:1028800090933809A0933909B0933A09DF91CF9119
:102890000895CF93DF93CDB7DEB780913B0690913B
:1028A0003C062FEF8E3F920769F485E190E0A0E0AF
:1028B000B0E08093370990933809A0933909B09319
:1028C0003A0929C080913B0690913C062FEF8D3F3D
:1028D000920769F485E398E0A0E0B0E080933709BF
:1028E00090933809A0933909B0933A0914C08091A4
:1028F0003B0690913C062FEF8F37920761F487E3F8
:1029000098E0A0E0B0E08093370990933809A09355
:102910003909B0933A09DF91CF910895CF93DF93AE
:10292000CDB7DEB780913B0690913C062FEF8E3FEE
:10293000920769F485E190E0A0E0B0E08093370968
:1029400090933809A0933909B0933A0929C080912E
:102950003B0690913C062FEF8D3F920769F486E38A
:1029600098E0A0E0B0E08093370990933809A093F5
:102970003909B0933A0914C080913B0690913C0606
:102980002FEF8F37920761F488E398E0A0E0B0E082
:102990008093370990933809A0933909B0933A0985
:1029A000DF91CF910895CF93DF93CDB7DEB78091BC
:1029B0003B0690913C062FEF8E3F920769F485E12C
:1029C00090E0A0E0B0E08093370990933809A0939D
:1029D0003909B0933A0929C080913B0690913C0691
:1029E0002FEF8D3F920769F487E398E0A0E0B0E015
:1029F0008093370990933809A0933909B0933A0925
:102A000014C080913B0690913C062FEF8F379207C0
:102A100061F484E398E0A0E0B0E0809337099093FC
:102A20003809A0933909B0933A09DF91CF910895FD
:102A3000CF93DF93CDB7DEB780913B0690913C06F4
:102A40002FEF8E3F920769F482E090E0A0E0B0E0C3
:102A50008093370990933809A0933909B0933A09C4
:102A60003EC080913B0690913C062FEF8B3F920732
:102A700069F488E998E0A0E0B0E08093370990938A
:102A80003809A0933909B0933A0929C080913B06CF
:102A900090913C062FEF8D3F920769F485E190E01D
:102AA000A0E0B0E08093370990933809A0933909EA
:102AB000B0933A0914C080913B0690913C062FEFE9
:102AC0008F37920761F484E190E0A0E0B0E080935A
:102AD000370990933809A0933909B0933A09DF91E7
:102AE000CF910895CF93DF93CDB7DEB780913B06AA
:102AF00090913C062FEF8E3F920769F486E190E0BB
:102B0000A0E0B0E08093370990933809A093390989
:102B1000B0933A0929C080913B0690913C062FEF73
:102B20008D3F920769F480EA98E0A0E0B0E08093DE
:102B3000370990933809A0933909B0933A0914C022
:102B400080913B0690913C062FEF8F37920761F4FE
:102B500089E998E0A0E0B0E08093370990933809C4
:102B6000A0933909B0933A09DF91CF910895CF939B
:102B7000DF93CDB7DEB780913B0690913C062FEFF7
:102B80008E3F920769F486E190E0A0E0B0E0809388
:102B9000370990933809A0933909B0933A0929C0AD
:102BA00080913B0690913C062FEF8D3F920769F490
:102BB00088E998E0A0E0B0E0809337099093380965
:102BC000A0933909B0933A0914C080913B069091C3
:102BD0003C062FEF8F37920761F48AE998E0A0E076
:102BE000B0E08093370990933809A0933909B093E6
:102BF0003A09DF91CF910895CF93DF93CDB7DEB738
:102C000080913B0690913C062FEF8E3F920769F42E
:102C100086E190E0A0E0B0E0809337099093380916
:102C2000A0933909B0933A0929C080913B0690914D
:102C30003C062FEF8D3F920769F489E998E0A0E008
:102C4000B0E08093370990933809A0933909B09385
:102C50003A0914C080913B0690913C062FEF8F37C4
:102C6000920761F48BE998E0A0E0B0E08093370927
:102C700090933809A0933909B0933A09DF91CF9125
:102C80000895CF93DF93CDB7DEB780913B06909147
:102C90003C062FEF8E3F920769F486E190E0A0E0BA
:102CA000B0E08093370990933809A0933909B09325
:102CB0003A0929C080913B0690913C062FEF8D3F49
:102CC000920769F48AE998E0A0E0B0E080933709C0
:102CD00090933809A0933909B0933A0914C08091B0
:102CE0003B0690913C062FEF8F37920761F48CE9F9
:102CF00098E0A0E0B0E08093370990933809A09362
:102D00003909B0933A09DF91CF910895CF93DF93BA
:102D1000CDB7DEB780913B0690913C062FEF8E3FFA
:102D2000920769F486E190E0A0E0B0E08093370973
:102D300090933809A0933909B0933A0929C080913A
:102D40003B0690913C062FEF8D3F920769F48BE98B
:102D500098E0A0E0B0E08093370990933809A09301
:102D60003909B0933A0914C080913B0690913C0612
:102D70002FEF8F37920761F48DE998E0A0E0B0E083
:102D80008093370990933809A0933909B0933A0991
:102D9000DF91CF910895CF93DF93CDB7DEB78091C8
:102DA0003B0690913C062FEF8E3F920769F486E137
:102DB00090E0A0E0B0E08093370990933809A093A9
:102DC0003909B0933A0929C080913B0690913C069D
:102DD0002FEF8D3F920769F48CE998E0A0E0B0E016
:102DE0008093370990933809A0933909B0933A0931
:102DF00014C080913B0690913C062FEF8F379207CD
:102E000061F48EE998E0A0E0B0E0809337099093F8
:102E10003809A0933909B0933A09DF91CF91089509
:102E2000CF93DF93CDB7DEB780913B0690913C0600
:102E30002FEF8E3F920769F486E190E0A0E0B0E0CA
:102E40008093370990933809A0933909B0933A09D0
:102E500029C080913B0690913C062FEF8D3F920751
:102E600069F48DE998E0A0E0B0E080933709909391
:102E70003809A0933909B0933A0914C080913B06F0
:102E800090913C062FEF8F37920761F48FE998E01D
:102E9000A0E0B0E08093370990933809A0933909F6
:102EA000B0933A09DF91CF910895CF93DF93CDB7D7
:102EB000DEB780913B0690913C062FEF8E3F920744
:102EC00069F486E190E0A0E0B0E080933709909348
:102ED0003809A0933909B0933A0929C080913B067B
:102EE00090913C062FEF8D3F920769F48EE998E0B0
:102EF000A0E0B0E08093370990933809A093390996
:102F0000B0933A0914C080913B0690913C062FEF94
:102F10008F37920761F480EA98E0A0E0B0E08093F8
:102F2000370990933809A0933909B0933A09DF9192
:102F3000CF910895CF93DF93CDB7DEB780913B0655
:102F400090913C062FEF8E3F920769F486E190E066
:102F5000A0E0B0E08093370990933809A093390935
:102F6000B0933A0929C080913B0690913C062FEF1F
:102F70008D3F920769F48FE998E0A0E0B0E080937C
:102F8000370990933809A0933909B0933A0914C0CE
:102F900080913B0690913C062FEF8F37920761F4AA
:102FA00088E998E0A0E0B0E0809337099093380971
:102FB000A0933909B0933A09DF91CF910895CF9347
:102FC000DF93CDB7DEB780913B0690913C062FEFA3
:102FD0008D3F920769F482E090E0A0E0B0E080933A
:102FE000370990933809A0933909B0933A093EC044
:102FF00080913B0690913C062FEF8F37920769F442
:1030000084E090E0A0E0B0E0809337099093380925
:10301000A0933909B0933A0929C080913B06909159
:103020003C062FEF8B3F920769F48EE190E0A0E021
:10303000B0E08093370990933809A0933909B09391
:103040003A0914C080913B0690913C062EEF8A3BD2
:10305000920761F48FEF9FEFAFEFBFEF80933709D7
:1030600090933809A0933909B0933A09DF91CF9131
:103070000895CF93DF93CDB7DEB780913B06909153
:103080003C062FEF8D3F920769F483E090E0A0E0CB
:10309000B0E08093370990933809A0933909B09331
:1030A0003A093EC080913B0690913C062FEF8F3746
:1030B000920769F485E090E0A0E0B0E080933709E2
:1030C00090933809A0933909B0933A0929C08091A7
:1030D0003B0690913C062FEF8B3F920769F488E204
:1030E00090E0A0E0B0E08093370990933809A09376
:1030F0003909B0933A0914C080913B0690913C067F
:103100002EEF8A3B920761F48FEF9FEFAFEFBFEF97
:103110008093370990933809A0933909B0933A09FD
:10312000DF91CF910895CF93DF93CDB7DEB7809134
:103130003B0690913C062FEF8D3F920769F484E0A7
:1031400090E0A0E0B0E08093370990933809A09315
:103150003909B0933A093EC080913B0690913C06F4
:103160002FEF8F37920769F486E090E0A0E0B0E09F
:103170008093370990933809A0933909B0933A099D
:1031800029C080913B0690913C062FEF8B3F920720
:1031900069F482E390E0A0E0B0E080933709909377
:1031A0003809A0933909B0933A0914C080913B06BD
:1031B00090913C062EEF8A3B920761F48FEF9FEFD0
:1031C000AFEFBFEF8093370990933809A093390987
:1031D000B0933A09DF91CF910895CF93DF93CDB7A4
:1031E000DEB780913B0690913C062FEF8D3F920712
:1031F00069F485E090E0A0E0B0E080933709909317
:103200003809A0933909B0933A093EC080913B0632
:1032100090913C062FEF8F37920769F487E090E09A
:10322000A0E0B0E08093370990933809A093390962
:10323000B0933A0929C080913B0690913C062FEF4C
:103240008B3F920769F48CE390E0A0E0B0E08093BC
:10325000370990933809A0933909B0933A0914C0FB
:1032600080913B0690913C062EEF8A3B920761F4D9
:103270008FEF9FEFAFEFBFEF80933709909338093F
:10328000A0933909B0933A09DF91CF910895CF9374
:10329000DF93CDB7DEB780913B0690913C062FEFD0
:1032A0008D3F920769F486E090E0A0E0B0E0809363
:1032B000370990933809A0933909B0933A093EC071
:1032C00080913B0690913C062FEF8F37920769F46F
:1032D00081E090E0A0E0B0E0809337099093380956
:1032E000A0933909B0933A0929C080913B06909187
:1032F0003C062FEF8B3F920769F486E490E0A0E054
:10330000B0E08093370990933809A0933909B093BE
:103310003A0914C080913B0690913C062EEF8A3BFF
:10332000920761F48FEF9FEFAFEFBFEF8093370904
:1033300090933809A0933909B0933A09DF91CF915E
:103340000895CF93DF93CDB7DEB780913B06909180
:103350003C062EEF8A3B920761F481E090E0A0E00A
:10336000B0E08093370990933809A0933909B0935E
:103370003A09DF91CF910895CF93DF93CDB7DEB7B0
:10338000A8970FB6F894DEBF0FBECDBF188A1F8670
:103390001E861A861B861C861D861E821F82188624
:1033A000198683E398E09B838A83CE01C0969BA312
:1033B0008AA318C08D89882361F4EA81FB81108279
:1033C00083E398E09B838A838A819B8198A78FA35C
:1033D000F3C1EA81FB818D8980838A819B8101967B
:1033E0009B838A83EEA5FFA580818D8B1EA28D898C
:1033F000853211F021E02EA38EA59FA501969FA7EF
:103400008EA73EA13323B1F6188A8AE090E09C8B08
:103410008B8BEEA5FFA580818D8B8EA59FA5019638
:103420009FA78EA71C821D828D898B3259F481E063
:103430008F87EEA5FFA580818D8B8EA59FA5019618
:103440009FA78EA78D89803319F08D898032E9F48A
:103450008D898D83EEA5FFA580818D8B8EA59FA57F
:1034600001969FA78EA78D89803378F08D898A3346
:1034700060F48D8980538C83EEA5FFA580818D8BB0
:103480008EA59FA501969FA78EA71E868D898C3637
:1034900019F08D898C3459F481E08E87EEA5FFA553
:1034A00080818D8B8EA59FA501969FA78EA78D8964
:1034B000282F33273DA32CA38CA19DA18F369105E6
:1034C00009F462C02CA13DA12037310564F48CA120
:1034D0009DA183369105C9F02CA13DA1243631056B
:1034E00009F460C01CC08CA19DA18537910509F429
:1034F00060C02CA13DA12837310509F456C08CA12C
:103500009DA183379105F1F00AC02AA13BA1C90111
:1035100002969BA38AA3F901808191818D8BEA8118
:10352000FB8185E280838A819B8101969B838A83CC
:10353000EA81FB818D8980838A819B8101969B83AF
:103540008A8350CF2AA13BA1C90102969BA38AA3DB
:10355000F901808191819A8B898B10C0E989FA8960
:103560008081EA81FB8180838A819B8101969B8394
:103570008A8389899A8901969A8B898BE989FA8944
:103580008081882359F72ECF88E090E09C8B8B8B2D
:10359000EA81FB8180E380838A819B8101969B8302
:1035A0008A8307C081E0888B04C080E190E09C8B17
:1035B0008B8B8889882309F458C08E85882381F0F5
:1035C0002AA13BA1C90104969BA38AA3F90180818A
:1035D0009181A281B3818E839F83A887B98711C00F
:1035E0002AA13BA1C90102969BA38AA3F90180816C
:1035F0009181AA2797FDA095BA2F8E839F83A887D4
:10360000B9878E819F81A885B985BB23CCF48E8133
:103610009F81A885B985B095A095909581959F4F7C
:10362000AF4FBF4F8E839F83A887B987EA81FB8105
:103630008DE280838A819B8101969B838A830CC063
:103640008F85882349F0EA81FB818BE280838A8120
:103650009B8101969B838A838E819F81A885B985F2
:103660008A879B87AC87BD872EC08F85882349F0CA
:10367000EA81FB818BE280838A819B8101969B8317
:103680008A838E85882381F02AA13BA1C9010496F3
:103690009BA38AA3F90180819181A281B3818A874A
:1036A0009B87AC87BD870FC02AA13BA1C9010296A9
:1036B0009BA38AA3F90180819181AA27BB278A87CE
:1036C0009B87AC87BD87CE0146960C969A8B898BDB
:1036D00089899A8901979A8B898BE989FA8910825D
:1036E0008B899C899C01442755278A859B85AC85BD
:1036F000BD85BC01CD010E94BA25DC01CB01805DF6
:10370000898389818A3330F08981895D89838981C0
:103710008052898389899A8901979A8B898BE98953
:10372000FA89898180838B899C899C01442755274C
:103730008A859B85AC85BD85BC01CD010E94BA25DB
:10374000DA01C9018A879B87AC87BD878C81882372
:1037500019F08C8181508C838A859B85AC85BD85D1
:103760000097A105B10509F0BBCF09C089899A89E5
:1037700001979A8B898BE989FA898D8180838C8165
:1037800081508C838C818F3F89F710C0E989FA8939
:103790008081EA81FB8180838A819B8101969B8362
:1037A0008A8389899A8901969A8B898BE989FA8912
:1037B0008081882359F716CE8FA198A5A8960FB6B9
:1037C000F894DEBF0FBECDBFDF91CF910895CF93A8
:1037D000DF93CDB7DEB724970FB6F894DEBF0FBEE8
:1037E000CDBF1092B805209137093091380940912A
:1037F000390950913A098091330990913409A09187
:103800003509B0913609281739074A075B0719F0BF
:1038100081E08093B80580913B0690913C062FEFA4
:103820008F3F920731F081E08093AD051092B20591
:103830001BC08091CB05882341F48091AD0588237E
:1038400021F081E00E9480250BC08091CB05882368
:1038500039F08091AD05882319F480E00E9480251D
:103860008091AD058093CB058091370990913809FF
:10387000A0913909B0913A0989839A83AB83BC83BB
:1038800089819A81AB81BC81853D27E0920720E048
:10389000A20720E0B20709F407C389819A81AB81AE
:1038A000BC81863D27E0920720E0A20720E0B20716
:1038B00008F040C189819A81AB81BC818E3091052D
:1038C000A105B10509F4D5C289819A81AB81BC817A
:1038D0008F309105A105B10508F08DC089819A81CD
:1038E000AB81BC8186309105A105B10509F430C3D7
:1038F00089819A81AB81BC8187309105A105B10591
:10390000E8F589819A81AB81BC8183309105A1055D
:10391000B10509F414C389819A81AB81BC818430DB
:103920009105A105B105A8F489819A81AB81BC817B
:1039300081309105A105B10509F486C289819A817A
:10394000AB81BC8182309105A105B10509F497C214
:1039500008C389819A81AB81BC8184309105A1051E
:10396000B10509F4EFC289819A81AB81BC818530B0
:103970009105A105B10509F4E8C2F3C289819A81D4
:10398000AB81BC818B309105A105B10509F465C2FD
:1039900089819A81AB81BC818C309105A105B105EB
:1039A000A8F489819A81AB81BC8187309105A105FA
:1039B000B10509F4D0C289819A81AB81BC818A307A
:1039C0009105A105B10509F442C2CBC289819A8152
:1039D000AB81BC818C309105A105B10509F443C2CE
:1039E00089819A81AB81BC818D309105A105B1059A
:1039F00009F43CC2B6C289819A81AB81BC818E3602
:103A00009105A105B10509F42BC289819A81AB8189
:103A1000BC818F369105A105B105E8F589819A81B0
:103A2000AB81BC8185319105A105B10509F457C26F
:103A300089819A81AB81BC8186319105A105B1054F
:103A4000A8F489819A81AB81BC818F309105A10551
:103A5000B10509F411C289819A81AB81BC8184319D
:103A60009105A105B10509F40DC27BC289819A8136
:103A7000AB81BC8186319105A105B10509F441C234
:103A800089819A81AB81BC8184369105A105B105FC
:103A900009F4E0C166C289819A81AB81BC81823D13
:103AA00027E0920720E0A20720E0B20709F4F3C163
:103AB00089819A81AB81BC81833D27E0920720E018
:103AC000A20720E0B207D8F489819A81AB81BC813A
:103AD000803D27E0920720E0A20720E0B20709F42A
:103AE000D4C189819A81AB81BC81813D27E0920755
:103AF00020E0A20720E0B20709F4CAC132C28981DE
:103B00009A81AB81BC81833D27E0920720E0A20728
:103B100020E0B20709F4C2C189819A81AB81BC81DE
:103B2000843D27E0920720E0A20720E0B20709F4D5
:103B3000B8C117C289819A81AB81BC81873328E0E3
:103B4000920720E0A20720E0B20709F4D4C18981DE
:103B50009A81AB81BC81883328E0920720E0A207DC
:103B600020E0B20708F0B8C089819A81AB81BC819E
:103B70008B3D27E0920720E0A20720E0B20709F47E
:103B8000A5C189819A81AB81BC818C3D27E09207D8
:103B900020E0A20720E0B20708F04FC089819A8197
:103BA000AB81BC81883D27E0920720E0A20720E09E
:103BB000B20709F482C189819A81AB81BC81893DB8
:103BC00027E0920720E0A20720E0B207D8F489811D
:103BD0009A81AB81BC81863D27E0920720E0A20755
:103BE00020E0B20709F463C189819A81AB81BC816D
:103BF000873D27E0920720E0A20720E0B20709F402
:103C000059C1AFC189819A81AB81BC81893D27E0CF
:103C1000920720E0A20720E0B20709F451C1898190
:103C20009A81AB81BC818A3D27E0920720E0A20700
:103C300020E0B20709F447C194C189819A81AB8120
:103C4000BC81843328E0920720E0A20720E0B2077D
:103C500009F448C189819A81AB81BC81853328E010
:103C6000920720E0A20720E0B207D8F489819A8168
:103C7000AB81BC818C3D27E0920720E0A20720E0C9
:103C8000B20709F426C189819A81AB81BC818D3D3F
:103C900027E0920720E0A20720E0B20709F41CC148
:103CA00060C189819A81AB81BC81853328E092070C
:103CB00020E0A20720E0B20709F417C189819A81A8
:103CC000AB81BC81863328E0920720E0A20720E088
:103CD000B20709F40DC145C189819A81AB81BC81CC
:103CE0008C3928E0920720E0A20720E0B20709F40F
:103CF00017C189819A81AB81BC818D3928E09207F7
:103D000020E0A20720E0B20708F04FC089819A8125
:103D1000AB81BC81893928E0920720E0A20720E02E
:103D2000B20709F4F4C089819A81AB81BC818A39D8
:103D300028E0920720E0A20720E0B207D8F48981AA
:103D40009A81AB81BC81883328E0920720E0A207EA
:103D500020E0B20709F4D2C089819A81AB81BC818D
:103D6000883928E0920720E0A20720E0B20709F492
:103D7000CBC0F7C089819A81AB81BC818A3928E0A8
:103D8000920720E0A20720E0B20709F4C3C08981AE
:103D90009A81AB81BC818B3928E0920720E0A20791
:103DA00020E0B20709F4B9C0DCC089819A81AB81F7
:103DB000BC818F3928E0920720E0A20720E0B207FB
:103DC00009F4B7C089819A81AB81BC81803A28E02F
:103DD000920720E0A20720E0B207D8F489819A81F7
:103DE000AB81BC818D3928E0920720E0A20720E05A
:103DF000B20709F498C089819A81AB81BC818E3960
:103E000028E0920720E0A20720E0B20709F48EC064
:103E1000A8C089819A81AB81BC81803A28E0920751
:103E200020E0A20720E0B20709F486C089819A81C8
:103E3000AB81BC818F3F2FEF92072FEFA2072FEFAF
:103E4000B20709F48BC08DC00E94150C8CC00E9473
:103E50006F0C89C00E94C90C86C00E94230D83C0CC
:103E60000E947D0D80C00E94D70D7DC00E941C0E57
:103E70007AC00E94610E77C00E94A60E74C00E9494
:103E8000EB0E71C00E94450F6EC00E949F0F6BC069
:103E90000E94E40F68C00E94291065C00E946E1045
:103EA00062C00E94B3105FC00E94F8105CC00E9404
:103EB0003D1159C00E94821156C00E94C71153C0C3
:103EC0000E940C1250C00E9451124DC00E949612C6
:103ED0004AC00E94DB1247C00E94201344C00E94C7
:103EE000651341C00E94BF133EC00E9404143BC032
:103EF0000E94491438C00E948E1435C00E94D31409
:103F000032C00E9418152FC00E9472152CC00E944A
:103F1000B71529C00E94FC1526C00E94411623C077
:103F20000E94861620C00E94CB161DC00E9410174A
:103F30001AC00E94551717C00E949A1714C00E94F9
:103F4000DF1711C00E9439180EC00E9493180BC0D1
:103F50000E94ED1808C00E94471905C00E94A119CF
:103F600002C00E94830724960FB6F894DEBF0FBEEE
:103F7000CDBFDF91CF910895CF93DF93CDB7DEB75B
:103F800024970FB6F894DEBF0FBECDBF8091B80561
:103F9000882309F48CC38091370990913809A09146
:103FA0003909B0913A0989839A83AB83BC838981AB
:103FB0009A81AB81BC81853D27E0920720E0A20772
:103FC00020E0B20709F407C389819A81AB81BC81E3
:103FD000863D27E0920720E0A20720E0B20708F024
:103FE00040C189819A81AB81BC818E309105A10548
:103FF000B10509F4D5C289819A81AB81BC818F302A
:104000009105A105B10508F08DC089819A81AB8128
:10401000BC8186309105A105B10509F430C38981C1
:104020009A81AB81BC8187309105A105B105E8F586
:1040300089819A81AB81BC8183309105A105B1054D
:1040400009F414C389819A81AB81BC8184309105C4
:10405000A105B105A8F489819A81AB81BC81813029
:104060009105A105B10509F486C289819A81AB81C8
:10407000BC8182309105A105B10509F497C207C33F
:1040800089819A81AB81BC8184309105A105B105FC
:1040900009F4EFC289819A81AB81BC818530910599
:1040A000A105B10509F4E8C2F2C289819A81AB8108
:1040B000BC818B309105A105B10509F465C28981E8
:1040C0009A81AB81BC818C309105A105B105A8F422
:1040D00089819A81AB81BC8187309105A105B105A9
:1040E00009F4D0C289819A81AB81BC818A30910563
:1040F000A105B10509F442C2CAC289819A81AB8186
:10410000BC818C309105A105B10509F443C28981B8
:104110009A81AB81BC818D309105A105B10509F46F
:104120003CC2B5C289819A81AB81BC818E36910532
:10413000A105B10509F42BC289819A81AB81BC81AB
:104140008F369105A105B105E8F589819A81AB818A
:10415000BC8185319105A105B10509F457C289815A
:104160009A81AB81BC8186319105A105B105A8F486
:1041700089819A81AB81BC818F309105A105B10500
:1041800009F411C289819A81AB81BC818431910586
:10419000A105B10509F40DC27AC289819A81AB816A
:1041A000BC8186319105A105B10509F441C289811F
:1041B0009A81AB81BC8184369105A105B10509F4D2
:1041C000E0C165C289819A81AB81BC81823D27E0D3
:1041D000920720E0A20720E0B20709F4F3C1898129
:1041E0009A81AB81BC81833D27E0920720E0A20742
:1041F00020E0B207D8F489819A81AB81BC81803DEF
:1042000027E0920720E0A20720E0B20709F4D4C11A
:1042100089819A81AB81BC81813D27E0920720E0B2
:10422000A20720E0B20709F4CAC131C289819A818C
:10423000AB81BC81833D27E0920720E0A20720E00C
:10424000B20709F4C2C189819A81AB81BC81843DE6
:1042500027E0920720E0A20720E0B20709F4B8C1E6
:1042600016C289819A81AB81BC81873328E092078D
:1042700020E0A20720E0B20709F4D4C189819A8125
:10428000AB81BC81883328E0920720E0A20720E0C0
:10429000B20708F0B8C089819A81AB81BC818B3D9F
:1042A00027E0920720E0A20720E0B20709F4A5C1A9
:1042B00089819A81AB81BC818C3D27E0920720E007
:1042C000A20720E0B20708F04FC089819A81AB8134
:1042D000BC81883D27E0920720E0A20720E0B207DA
:1042E00009F482C189819A81AB81BC81893D27E033
:1042F000920720E0A20720E0B207D8F489819A81D2
:10430000AB81BC81863D27E0920720E0A20720E038
:10431000B20709F463C189819A81AB81BC81873D71
:1043200027E0920720E0A20720E0B20709F459C174
:10433000AEC189819A81AB81BC81893D27E092071A
:1043400020E0A20720E0B20709F451C189819A81D7
:10435000AB81BC818A3D27E0920720E0A20720E0E4
:10436000B20709F447C193C189819A81AB81BC81AD
:10437000843328E0920720E0A20720E0B20709F486
:1043800048C189819A81AB81BC81853328E092073D
:1043900020E0A20720E0B207D8F489819A81AB819E
:1043A000BC818C3D27E0920720E0A20720E0B20705
:1043B00009F426C189819A81AB81BC818D3D27E0BA
:1043C000920720E0A20720E0B20709F41CC15FC1F8
:1043D00089819A81AB81BC81853328E0920720E0F6
:1043E000A20720E0B20709F417C189819A81AB8145
:1043F000BC81863328E0920720E0A20720E0B207C4
:1044000009F40DC144C189819A81AB81BC818C3989
:1044100028E0920720E0A20720E0B20709F417C1C4
:1044200089819A81AB81BC818D3928E0920720E097
:10443000A20720E0B20708F04FC089819A81AB81C2
:10444000BC81893928E0920720E0A20720E0B2076A
:1044500009F4F4C089819A81AB81BC818A3928E052
:10446000920720E0A20720E0B207D8F489819A8160
:10447000AB81BC81883328E0920720E0A20720E0CE
:10448000B20709F4D2C089819A81AB81BC81883995
:1044900028E0920720E0A20720E0B20709F4CBC091
:1044A000F6C089819A81AB81BC818A3928E0920764
:1044B00020E0A20720E0B20709F4C3C089819A81F5
:1044C000AB81BC818B3928E0920720E0A20720E075
:1044D000B20709F4B9C0DBC089819A81AB81BC8184
:1044E0008F3928E0920720E0A20720E0B20709F404
:1044F000B7C089819A81AB81BC81803A28E092075C
:1045000020E0A20720E0B207D8F489819A81AB812C
:10451000BC818D3928E0920720E0A20720E0B20795
:1045200009F498C089819A81AB81BC818E3928E0D9
:10453000920720E0A20720E0B20709F48EC0A7C0CE
:1045400089819A81AB81BC81803A28E0920720E082
:10455000A20720E0B20709F486C089819A81AB8165
:10456000BC818F3F2FEF92072FEFA2072FEFB207EB
:1045700009F48BC08CC00E94D50789C00E94F8073F
:1045800086C00E94130883C00E942E0880C00E942B
:1045900049087DC00E9464087AC00E947F0877C0E5
:1045A0000E949A0874C00E94B50871C00E94D00889
:1045B0006EC00E94F3086BC00E94060968C00E948A
:1045C000190965C00E942C0962C00E943F095FC0A2
:1045D0000E9452095CC00E94650959C00E94780976
:1045E00056C00E948B0953C00E949E0950C00E9471
:1045F000B1094DC00E94C4094AC00E94D70947C0F2
:104600000E94EA0944C00E94FD0941C00E94100AAC
:104610003EC00E94230A3BC00E94360A38C00E9456
:10462000490A35C00E945C0A32C00E946F0A2FC03E
:104630000E94820A2CC00E94950A29C00E94A80AE2
:1046400026C00E94BB0A23C00E94CE0A20C00E943E
:10465000E10A1DC00E94F40A1AC00E94070B17C08D
:104660000E941A0B14C00E942D0B11C00E94400B17
:104670000EC00E94760B0BC00E94990B08C00E94CE
:10468000BC0B05C00E94DF0B02C00E94020C80918F
:10469000370990913809A0913909B0913A0980936E
:1046A000330990933409A0933509B093360980916A
:1046B000CD0524960FB6F894DEBF0FBECDBFDF91B7
:1046C000CF910895CF93DF93CDB7DEB7EDECF0E057
:1046D0001082ECECF0E083E38083E8ECF0E0108201
:1046E000E9ECF0E088ED8083EAECF0E086E080839E
:1046F000DF91CF910895CF93DF93CDB7DEB72197A8
:104700000FB6F894DEBF0FBECDBF8983E8ECF0E0B2
:1047100080819927807290700097C1F3EEECF0E0F1
:104720008981808321960FB6F894DEBF0FBECDBF7E
:10473000DF91CF910895CF93DF93CDB7DEB7249764
:104740000FB6F894DEBF0FBECDBF8A837C836B8328
:10475000E8ECF0E080819927807290700097C1F3B7
:10476000EEECF0E08BEA8083E8ECF0E080819927C2
:10477000807290700097C1F3EEECF0E08DEC8083D6
:10478000E8ECF0E080819927807290700097C1F387
:10479000EEECF0E08A818083E8ECF0E080819927FC
:1047A000807290700097C1F3EEECF0E08B819C81F9
:1047B000892F99278083E8ECF0E080819927807227
:1047C00090700097C1F3EEECF0E08B81808324962B
:1047D0000FB6F894DEBF0FBECDBFDF91CF91089525
:1047E0001F920F920FB60F9211248F93AF93BF9326
:1047F000EF93FF93CF93DF93CDB7DEB7A1ECB0E09B
:10480000E1ECF0E0808180618C93DF91CF91FF91AA
:10481000EF91BF91AF918F910F900FBE0F901F90AE
:1048200018951F920F920FB60F9211242F933F935A
:104830004F935F938F939F93EF93FF93CF93DF9368
:10484000CDB7DEB72297DEBFCDBFEEECF0E08081C2
:1048500089838091D105882371F489818B3A31F461
:104860008091D1058F5F8093D10502C01092D10550
:104870001092D40588C08091D105813061F489817E
:104880008D3C31F48091D1058F5F8093D1057BC041
:104890001092D10578C08091D105823079F4898158
:1048A0008093D0059091D405898189278093D40580
:1048B0008091D1058F5F8093D10565C08091D1052E
:1048C0008330D1F54091D2055091D3058091D00528
:1048D0009927382F222789819927282B392BCA011C
:1048E000880F991FFC01E259F54F31832083909185
:1048F000D405898189278093D40582E08093D105EE
:104900008091D2059091D30501969093D305809321
:10491000D2058091D2059091D3058A3F910598F1F7
:1049200084E08093D1051092D3051092D2051092A5
:10493000CE051092CD0527C08091D105843019F5A0
:104940009091D40589819817E1F01A8217C08A8165
:10495000482F55278A819927880F991FFC01E15C10
:10496000F94F20813181CA01880F991FFC01E2595A
:10497000F54F318320838A818F5F8A838A818A3FC2
:1049800030F31092D1052296F894DEBFCDBFDF91AF
:10499000CF91FF91EF919F918F915F914F913F91B7
:1049A0002F910F900FBE0F901F901895CF93DF930C
:1049B000CDB7DEB721970FB6F894DEBF0FBECDBFDF
:1049C0008983ABE2B0E0EBE2F0E0808180748C930D
:1049D000E2E0F1E089818083ABE2B0E0EBE2F0E07D
:1049E0008081807480628C930F920F90ABE2B0E074
:1049F000EBE2F0E0808180748C9382E390E00E948F
:104A0000D60221960FB6F894DEBF0FBECDBFDF9160
:104A1000CF910895CF93DF93CDB7DEB721970FB62F
:104A2000F894DEBF0FBECDBF8983ABE2B0E0EBE20E
:104A3000F0E08081807480618C93E2E0F1E0898114
:104A40008083ABE2B0E0EBE2F0E0808180748063D1
:104A50008C930F920F90ABE2B0E0EBE2F0E080813C
:104A6000807480618C9382E390E00E94D60221964C
:104A70000FB6F894DEBF0FBECDBFDF91CF91089582
:104A8000CF93DF93CDB7DEB723970FB6F894DEBF91
:104A90000FBECDBF89837B836A8389810E94D62420
:104AA0000AC0EA81FB8180810E940A258A819B815C
:104AB00001969B838A83EA81FB818081882389F721
:104AC00023960FB6F894DEBF0FBECDBFDF91CF9116
:104AD0000895CF93DF93CDB7DEB788E30E94D62445
:104AE0008CE00E94D62486E00E94D62481E00E94B9
:104AF000D62482E090E00E94F902DF91CF910895E0
:104B0000CF93DF93CDB7DEB721970FB6F894DEBF12
:104B10000FBECDBF89838981882341F0ABE2B0E02D
:104B2000EBE2F0E0808180648C9308C0ABE2B0E0FF
:104B3000EBE2F0E090818FEB89238C9321960FB606
:104B4000F894DEBF0FBECDBFDF91CF91089597FBE4
:104B5000092E07260AD077FD04D02ED006D00020DB
:104B60001AF4709561957F4F0895F6F790958195A9
:104B70009F4F0895A1E21A2EAA1BBB1BFD010DC079
:104B8000AA1FBB1FEE1FFF1FA217B307E407F507FD
:104B900020F0A21BB30BE40BF50B661F771F881FD9
:104BA000991F1A9469F760957095809590959B016F
:104BB000AC01BD01CF010895AA1BBB1B51E107C089
:104BC000AA1FBB1FA617B70710F0A61BB70B881F9D
:104BD000991F5A95A9F780959095BC01CD0108952C
:104BE000FF01010101012053656F686F20456C656D
:104BF000637472696300202020204143204472695D
:104C0000766500FFFFFF00060701000C2020202032
:104C1000205B4C4F43414C5D202020200020202071
:104C2000205B52454D4F54455D2020202000202020
:104C300020205B464F52574152445D2020200020E7
:104C40002020205B524556455253455D20202000D0
:104C50002020202020202020202020202072706D65
:104C6000002020202020202020202020202020483C
:104C70007A002020202020202020202020202020FA
:104C80004E6D0020202020202020202020202020C9
:104C9000202025004D31204472697665204D6F6ECD
:104CA00069746F72005B305D4F502053746174758E
:104CB0007320202020005B305D4D4F544F52205315
:104CC000706565642020005B315D4F75747075748C
:104CD00020467265712020005B325D4443204C69A0
:104CE0006E6B20202020202000202020202020204B
:104CF000202020202020566463005B335D4D6F74BC
:104D00006F722043757272656E740020202020201F
:104D10002020202020202041726D73005B345D4FE5
:104D2000757470757420566F6C742020005B355D4F
:104D300041637475616C20546F72717565005B36E8
:104D40005D546F727175652043757272202000206A
:104D50002020202020202020202020202020410052
:104D60005B375D466C75782043757272656E742092
:104D7000005B385D496E70757420506F77657220E6
:104D80002000202020202020202020202020202043
:104D90006B57005B395D4F757470757420506F7779
:104DA000657220005B31305D5049442052656620B9
:104DB0002020202000202020202020202020202013
:104DC0002020202020005B31315D50494420466581
:104DD00065646261636B005B31325D50494420451C
:104DE00072726F72202020005B31335D54656D70EC
:104DF000657261757265202000202020202020200F
:104E0000202020202020202743005B315D54657244
:104E10006D696E616C20492F4F20005B305D444905
:104E20005B382E2E2E2E2E2E315D20005B315D4400
:104E30004F5B332E315D202020202020005B325D2F
:104E4000416E616C6F6720496E6F75743100202070
:104E50002020202020202056206F72206D41005BF2
:104E6000335D416E616C6F6720496E6F75743200FF
:104E70005B345D416E616C6F67204F757470757443
:104E80000020202020202020202020202020206DF5
:104E900041005B325D447269766520496E666F2021
:104EA0002020005B305D4D4F544F522053656C20E5
:104EB000202020005B315D4374726C204D65746866
:104EC0006F642020005B325D52554E2F53544F507B
:104ED0002053726320005B335D526566204D65741C
:104EE000686F64202020005B345D44726976652021
:104EF000506F7765722020005B355D44726976657E
:104F000020566F6C746167650020202020202020CF
:104F1000202020202020202056005B365D4F70741A
:104F2000696F6E20436172642020005B375D536FB0
:104F3000667477617265205665722E005B385D532A
:104F40006F667477617265204F707420004D322057
:104F5000506172616D657465722045647400202033
:104F600020202020202044657369676E656400203E
:104F70006279205061756C204248205061726B004C
:00000001FF
