:100000000C9472000C948F000C948F000C948F0051
:100010000C948F000C948F000C948F000C948F0024
:100020000C948F000C948F000C948F000C948F0014
:100030000C948F000C948F000C948F000C948F0004
:100040000C948F000C94ED010C948F000C948F0095
:100050000C948F000C948F000C948F000C948F00E4
:100060000C948F000C948F000C948F000C948F00D4
:100070000C948F000C948F000C948F000C948F00C4
:100080000C948F000C948F000C948F000C948F00B4
:100090000C94D8220C948F000C94B7220C948F00EF
:1000A0000C948F000C948F000C948F000C948F0094
:1000B0000C948F000C948F000C948F000C948F0084
:1000C0000C948F000C948F000C948F000C948F0074
:1000D0000C948F000C948F000C948F000C948F0064
:1000E0000C948F0011241FBECFEFD1E2DEBFCDBF35
:1000F00016E0A0E0B2E0EEE6F9E400E00BBF02C0DB
:1001000007900D92AC36B107D9F71DE0ACE6B6E02A
:1001100001C01D92AE32B107E1F70C9402020C94BB
:100120000000CF93DF93CDB7DEB7E4E7F0E083ECD8
:100130008083E5E7F0E080E88083E4E2F0E08FEFA1
:100140008083E5E2F0E01082EAE2F0E081EF808374
:10015000EBE2F0E01082EDE2F0E01082EEE2F0E09F
:100160001082E0E3F0E08FEF8083E1E3F0E01082C3
:10017000E1E0F1E08FEF8083E2E0F1E01082E4E083
:10018000F1E01082E5E0F1E01082E7E0F1E01082BA
:10019000E8E0F1E01082EAE0F1E08FEF8083EBE04D
:1001A000F1E01082DF91CF910895CF93DF93CDB727
:1001B000DEB7E0E8F0E080E18083E1E8F0E08CE0A9
:1001C0008083E2E8F0E01082E8E8F0E08EE390E07F
:1001D00091838083E4E8F0E011821082EFE6F0E0A2
:1001E00082E08083E6E3F0E08FE28083DF91CF91CD
:1001F0000895CF93DF93CDB7DEB710926D061092BE
:100200006E0610926F061092700610927106109290
:10021000720680916C06882319F081E080936D0648
:1002200010926C0680916D06882379F0809101020E
:100230008F5F80930102809101028B3030F081E06A
:100240008093010281E080936E0680916E06882380
:1002500079F0809102028F5F809302028091020206
:100260008B3030F081E08093020281E080936F0652
:1002700080916F068823F1F0809104028F5F809354
:10028000040280910402863030F081E08093040201
:1002900081E080937106809103028F5F8093030257
:1002A00080910302833030F081E08093030281E08B
:1002B0008093700680917106882379F08091050201
:1002C0008F5F8093050280910502833030F081E0DA
:1002D0008093050281E08093720680916E068823E8
:1002E00051F080917306882319F01092730603C0B1
:1002F00081E08093730680917106882351F080918C
:100300007406882319F01092740603C08FEF80934F
:100310007406DF91CF910895CF93DF93CDB7DEB709
:1003200080917206882309F455C080917506882350
:1003300069F080917A068F5F80937A0680917A06C1
:10034000823020F01092750610927A06809176061F
:10035000882369F080917B068F5F80937B06809174
:100360007B06833020F01092760610927B068091F7
:100370007706882369F080917C068F5F80937C06E6
:1003800080917C068D3320F01092770610927C06C7
:1003900080917806882369F080917D068F5F809335
:1003A0007D0680917D06893720F0109278061092A4
:1003B0007D0680917906882369F080917E068F5FA3
:1003C00080937E0680917E068B3020F01092790615
:1003D00010927E06DF91CF9108951F920F920FB673
:1003E0000F9211248F93CF93DF93CDB7DEB781E0C7
:1003F00080936C06DF91CF918F910F900FBE0F907D
:100400001F901895CF93DF93CDB7DEB70E94910070
:1004100088EC90E00E9483020E94302486E092E003
:10042000BC0180E80E94072486E192E0BC0180ECD8
:100430000E94072481E00E9447240E9423060E9414
:10044000D5000E9429220E94EE06789484EF91E064
:100450000E94830284EF91E00E94830284EF91E086
:100460000E94830284EF91E00E94830281E08093E6
:10047000790680916E06882331F00E9432060E9430
:10048000AE1A0E94831E809171068823A1F0ABE012
:10049000B1E0EBE0F1E090818FE089278C938091CF
:1004A0009A068F5F80939A0680919A06863018F09C
:1004B00081E0809399060E94F9000E948C01D9CFB7
:1004C000CF93DF93CDB7DEB722970FB6F894DEBF98
:1004D0000FBECDBF89831A8209C00F920F900F9271
:1004E0000F900F920F908A818F5F8A8389819A8102
:1004F000981798F322960FB6F894DEBF0FBECDBFC3
:10050000DF91CF910895CF93DF93CDB7DEB72497D6
:100510000FB6F894DEBF0FBECDBF9A8389831C82CD
:100520001B8212C08AEF0E9460028AEF0E94600262
:100530008AEF0E9460028AEF0E9460022B813C8158
:100540002F5F3F4F3C832B8389819A812B813C8194
:100550002817390738F324960FB6F894DEBF0FBE7C
:10056000CDBFDF91CF910895CF93DF93CDB7DEB7A5
:100570002A970FB6F894DEBF0FBECDBF9C838B8346
:100580007E836D8358874F838F8198859A8789876B
:1005900089859A858330910509F440C089859A85BB
:1005A000843091055CF489859A858130910599F0B4
:1005B00089859A8582309105A1F010C189859A8537
:1005C0008430910509F45EC089859A85853091054E
:1005D00009F4A3C003C18B81805DED81FE8180831E
:1005E000FDC08B819C812AE030E0B9010E946E241D
:1005F000CB01805DED81FE8180838B819C812AE02F
:1006000030E0B9010E946E249A8389838D819E8196
:10061000FC0131968981805D8083E0C08B819C8163
:1006200024E630E0B9010E946E24CB01805DED81AB
:10063000FE8180838B819C8124E630E0B9010E9499
:100640006E249A8389838D819E81FC0131968981F4
:100650009A812AE030E0B9010E946E24CB01805DCE
:10066000808389819A812AE030E0B9010E946E245A
:100670009A8389838D819E81FC0132968981805D78
:100680008083ACC08B819C8128EE33E0B9010E944D
:100690006E24CB01805DED81FE8180838B819C8106
:1006A00028EE33E0B9010E946E249A8389838D81FC
:1006B0009E81FC01319689819A8124E630E0B9015E
:1006C0000E946E24CB01805D808389819A8124E61B
:1006D00030E0B9010E946E249A8389838D819E81C6
:1006E000FC01329689819A812AE030E0B9010E94AA
:1006F0006E24CB01805D808389819A812AE030E07D
:10070000B9010E946E249A8389838D819E81FC01A8
:1007100033968981805D808361C08B819C8120E1DB
:1007200037E2B9010E946E24CB01805DED81FE812C
:1007300080838B819C8120E137E2B9010E946E2485
:100740009A8389838D819E81FC01319689819A816A
:1007500028EE33E0B9010E946E24CB01805D8083D6
:1007600089819A8128EE33E0B9010E946E249A8330
:1007700089838D819E81FC01329689819A8124E64C
:1007800030E0B9010E946E24CB01805D80838981B5
:100790009A8124E630E0B9010E946E249A8389830D
:1007A0008D819E81FC01339689819A812AE030E017
:1007B000B9010E946E24CB01805D808389819A817A
:1007C0002AE030E0B9010E946E249A8389838D81EA
:1007D0009E81FC0134968981805D80832A960FB6C4
:1007E000F894DEBF0FBECDBFDF91CF910895CF93B8
:1007F000DF93CDB7DEB722970FB6F894DEBF0FBEFA
:10080000CDBF9A83898389819A8190938006809352
:100810007F0622960FB6F894DEBF0FBECDBFDF91E4
:10082000CF910895CF93DF93CDB7DEB721970FB661
:10083000F894DEBF0FBECDBF898389818A3031F441
:10084000E0917F06F09180068DE01995E0917F069A
:10085000F09180068981199521960FB6F894DEBF34
:100860000FBECDBFDF91CF910895CF93DF93CDB76A
:10087000DEB7A3970FB6F894DEBF0FBECDBF1D86BF
:100880001C86188619861A861B861C821D821E826B
:100890001F82CE018B9698A38F8F07C08A898823E9
:1008A00009F4C8C18A890E941204E9A5FAA58081C9
:1008B0008A8B1BA28A89853211F021E02BA389A59E
:1008C0009AA501969AA789A73BA1332339F71D86DC
:1008D0008AE090E0998B888BE9A5FAA580818A8BC4
:1008E00089A59AA501969AA789A71A821B828A8947
:1008F000803319F08A898032E9F48A898B83E9A5EB
:10090000FAA580818A8B89A59AA501969AA789A7BD
:100910008A89803378F08A898A3360F48A8980539F
:100920008A83E9A5FAA580818A8B89A59AA5019673
:100930009AA789A71C868A898C3619F08A898C34F3
:1009400059F481E08C87E9A5FAA580818A8B89A575
:100950009AA501969AA789A78A89282F33273AA3AF
:1009600029A389A19AA18835910509F481C029A1FB
:100970003AA12935310524F589A19AA18934910537
:1009800009F473C029A13AA12A34310564F489A17C
:100990009AA183349105E1F129A13AA124343105CA
:1009A00009F463C03FC089A19AA18335910509F478
:1009B00040C029A13AA12535310509F45DC032C0F6
:1009C00089A19AA18936910509F44FC029A13AA1BC
:1009D0002A36310564F489A19AA183369105C1F0C4
:1009E00029A13AA12436310509F43FC01BC089A1D1
:1009F0009AA18537910509F43FC029A13AA128376A
:100A00003105B1F189A19AA18337910591F00AC00E
:100A10002F8D38A1C901029698A38F8FF90180818B
:100A200091818A8B85E20E9412048A890E941204B5
:100A30003CCF2F8D38A1C901029698A38F8FF90161
:100A4000808191819F878E870AC0EE85FF85808196
:100A50000E9412048E859F8501969F878E87EE8562
:100A6000FF858081882389F720CF81E08D8704C0AE
:100A700080E190E0998B888B8D85882309F445C0AF
:100A80008C85882381F02F8D38A1C901049698A305
:100A90008F8FF90180819181A281B3818C839D83A5
:100AA000AE83BF8311C02F8D38A1C901029698A3D0
:100AB0008F8FF90180819181AA2797FDA095BA2F88
:100AC0008C839D83AE83BF838C819D81AE81BF81EA
:100AD000BB2394F48C819D81AE81BF81B095A0959C
:100AE000909581959F4FAF4FBF4F8C839D83AE8371
:100AF000BF838DE20E9412048C819D81AE81BF81F3
:100B000088879987AA87BB8722C08C85882381F034
:100B10002F8D38A1C901049698A38F8FF901808188
:100B20009181A281B38188879987AA87BB870FC0EB
:100B30002F8D38A1C901029698A38F8FF90180816A
:100B40009181AA27BB2788879987AA87BB87CE016F
:100B500043960C969F878E878E859F8501979F87EA
:100B60008E87EE85FF851082888999899C014427AC
:100B7000552788859985AA85BB85BC01CD010E9432
:100B80008124DC01CB01805D898389818A3330F047
:100B90008981895D89838981805289838E859F853A
:100BA00001979F878E87EE85FF858981808388895D
:100BB00099899C014427552788859985AA85BB85F5
:100BC000BC01CD010E948124DA01C901888799877F
:100BD000AA87BB878A81882319F08A8181508A83FA
:100BE00088859985AA85BB850097A105B10509F07F
:100BF000BBCF09C08E859F8501979F878E87EE8525
:100C0000FF858B8180838A8181508A838A818F3F8F
:100C100089F70AC0EE85FF8580810E9412048E85C7
:100C20009F8501969F878E87EE85FF85808188232B
:100C300089F73BCEA3960FB6F894DEBF0FBECDBFAB
:100C4000DF91CF910895CF93DF93CDB7DEB78FEFCC
:100C50009FEF909308078093070710920907DF9191
:100C6000CF910895CF93DF93CDB7DEB70E944306AF
:100C70009093080780930707809183068093090764
:100C8000DF91CF910895CF93DF93CDB7DEB726974D
:100C90000FB6F894DEBF0FBECDBF8FEF9FEF9C83E2
:100CA0008B838FEF9FEF9A838983E3E0F1E080816C
:100CB000282F3327E6E0F1E080818E6F9927982F67
:100CC0008827822B932B9A83898389819A812FEF9E
:100CD0008F3F920719F01092230203C08FEF809389
:100CE000230280912302882309F03FC080912402CF
:100CF0008823D9F580918106909182060196909380
:100D000082068093810680918106909182068330CD
:100D1000910568F08091810690918206843091055A
:100D200030F489819A8190932602809325028091E4
:100D300081069091820621E08D329207E0F1809148
:100D400081069091820621E08E329207A0F5809173
:100D50002502909126029C838B8381E080938306F9
:100D60008B819C819E838D832EC08091230288235A
:100D700059F480912402882339F01092820610924F
:100D800081061092830617C080912302882399F070
:100D900080912402882379F480918306882359F472
:100DA00080912502909126029C838B83109282066B
:100DB0001092810600C080912302809324028B81CF
:100DC0009C819E838D838D819E8126960FB6F8949B
:100DD000DEBF0FBECDBFDF91CF910895CF93DF93DC
:100DE000CDB7DEB781E090E0A0E0B0E08093030AE9
:100DF0009093040AA093050AB093060A8FEF90E03F
:100E0000A0E0B0E08093FF099093000AA093010A4C
:100E1000B093020ADF91CF910895CF93DF93CDB7BE
:100E2000DEB78091FF099091000AA091010AB0916C
:100E3000020A8093030A9093040AA093050AB093D0
:100E4000060ADF91CF910895CF93DF93CDB7DEB738
:100E500027970FB6F894DEBF0FBECDBF9D838C835E
:100E60007F836E83EC81FD81118210828E819F8150
:100E70009B838A83EA81FB81849189838981EC81C8
:100E8000FD818083EC81FD818081882321F4EC81C8
:100E9000FD8110820BC08C819D8101969D838C8386
:100EA0008E819F8101969F838E83E0CF27960FB618
:100EB000F894DEBF0FBECDBFDF91CF910895CF93E1
:100EC000DF93CDB7DEB78CE292E0BC0180E80E94F0
:100ED00007248DE392E0BC0180EC0E940724DF919F
:100EE000CF910895CF93DF93CDB7DEB78EE492E034
:100EF000BC0180E80E9407248FE592E0BC0180ECF1
:100F00000E940724DF91CF910895CF93DF93CDB74F
:100F1000DEB78EE492E0BC0180E80E94072480E7FF
:100F200092E0BC0180EC0E940724DF91CF910895EC
:100F3000CF93DF93CDB7DEB781E892E0BC0180E8C4
:100F40000E94072482E992E0BC0180EC0E94072401
:100F5000DF91CF910895CF93DF93CDB7DEB781E8CE
:100F600092E0BC0180E80E94072483EA92E0BC0181
:100F700080EC0E940724DF91CF910895CF93DF93F7
:100F8000CDB7DEB784EB92E0BC0180E80E94072475
:100F900085EC92E0BC0180EC0E940724DF91CF91A8
:100FA0000895CF93DF93CDB7DEB786ED92E0BC0115
:100FB00080E80E94072487EE92E0BC0180EC0E944A
:100FC0000724DF91CF910895CF93DF93CDB7DEB79C
:100FD00088EF92E0BC0180E80E94072489E093E05A
:100FE000BC0180EC0E940724DF91CF910895CF933C
:100FF000DF93CDB7DEB78AE193E0BC0180E80E94C1
:1010000007248BE293E0BC0180EC0E940724DF916F
:10101000CF910895CF93DF93CDB7DEB78CE292E006
:10102000BC0180E80E9407248CE393E0BC0180ECC3
:101030000E940724DF91CF910895CF93DF93CDB71E
:10104000DEB78CE393E0BC0180E80E9407248DE4C6
:1010500093E0BC0180EC0E940724DF91CF910895BA
:10106000CF93DF93CDB7DEB78EE593E0BC0180E888
:101070000E94072485EC92E0BC0180EC0E940724CA
:10108000DF91CF910895CF93DF93CDB7DEB78FE691
:1010900093E0BC0180E80E94072487EE92E0BC0147
:1010A00080EC0E940724DF91CF910895CF93DF93C6
:1010B000CDB7DEB780E893E0BC0180E80E9407244A
:1010C00081E993E0BC0180EC0E940724DF91CF917D
:1010D0000895CF93DF93CDB7DEB782EA93E0BC01EA
:1010E00080E80E94072483EB93E0BC0180EC0E941F
:1010F0000724DF91CF910895CF93DF93CDB7DEB76B
:1011000084EC93E0BC0180E80E94072483EB93E029
:10111000BC0180EC0E940724DF91CF910895CF930A
:10112000DF93CDB7DEB785ED93E0BC0180E80E9488
:10113000072489E093E0BC0180EC0E940724DF9142
:10114000CF910895CF93DF93CDB7DEB786EE93E0CE
:10115000BC0180E80E94072487EF93E0BC0180EC8B
:101160000E940724DF91CF910895CF93DF93CDB7ED
:10117000DEB788E094E0BC0180E80E94072487EF96
:1011800093E0BC0180EC0E940724DF91CF91089589
:10119000CF93DF93CDB7DEB789E194E0BC0180E85F
:1011A0000E9407248AE294E0BC0180EC0E9407249C
:1011B000DF91CF910895CF93DF93CDB7DEB78BE367
:1011C00094E0BC0180E80E9407248AE294E0BC011C
:1011D00080EC0E940724DF91CF910895CF93DF9395
:1011E000CDB7DEB78CE494E0BC0180E80E94072410
:1011F0008DE594E0BC0180EC0E940724DF91CF9143
:101200000895CF93DF93CDB7DEB78EE694E0BC01AF
:1012100080E80E9407248DE594E0BC0180EC0E94E8
:101220000724DF91CF910895CF93DF93CDB7DEB739
:101230008FE794E0BC0180E80E9407248DE594E0EC
:10124000BC0180EC0E940724DF91CF910895CF93D9
:10125000DF93CDB7DEB780E994E0BC0180E80E945F
:10126000072481EA94E0BC0180EC0E940724DF910E
:10127000CF910895CF93DF93CDB7DEB78CE393E0A2
:10128000BC0180E80E94072482EB94E0BC0180EC62
:101290000E940724DF91CF910895CF93DF93CDB7BC
:1012A000DEB783EC94E0BC0180E80E9407248DE562
:1012B00094E0BC0180EC0E940724DF91CF91089557
:1012C000CF93DF93CDB7DEB784ED94E0BC0180E827
:1012D0000E9407248DE594E0BC0180EC0E94072465
:1012E000DF91CF910895CF93DF93CDB7DEB785EE31
:1012F00094E0BC0180E80E94072486EF94E0BC01E2
:1013000080EC0E940724DF91CF910895CF93DF9363
:10131000CDB7DEB787E095E0BC0180E80E940724E6
:1013200086EF94E0BC0180EC0E940724DF91CF910E
:101330000895CF93DF93CDB7DEB788E195E0BC0188
:1013400080E80E94072489E295E0BC0180EC0E94BD
:101350000724DF91CF910895CF93DF93CDB7DEB708
:101360008CE393E0BC0180E80E9407248AE395E0C7
:10137000BC0180EC0E940724DF91CF910895CF93A8
:10138000DF93CDB7DEB78BE495E0BC0180E80E9427
:1013900007248DE594E0BC0180EC0E940724DF91D6
:1013A000CF910895CF93DF93CDB7DEB78CE595E06D
:1013B000BC0180E80E9407248DE594E0BC0180EC2C
:1013C0000E940724DF91CF910895CF93DF93CDB78B
:1013D000DEB78DE695E0BC0180E80E9407248DE52C
:1013E00094E0BC0180EC0E940724DF91CF91089526
:1013F000CF93DF93CDB7DEB78EE795E0BC0180E8F1
:101400000E9407248DE594E0BC0180EC0E94072433
:10141000DF91CF910895CF93DF93CDB7DEB78FE8FB
:1014200095E0BC0180E80E9407248AE294E0BC01B8
:1014300080EC0E940724DF91CF910895CF93DF9332
:10144000CDB7DEB780EA95E0BC0180E80E940724B2
:1014500081EB95E0BC0180EC0E940724DF91CF91E5
:101460000895CF93DF93CDB7DEB782EC95E0BC0152
:1014700080E80E9407248DE594E0BC0180EC0E9486
:101480000724DF91CF910895CF93DF93CDB7DEB7D7
:1014900083ED95E0BC0180E80E9407248DE594E08F
:1014A000BC0180EC0E940724DF91CF910895CF9377
:1014B000DF93CDB7DEB784EE95E0BC0180E80E94F3
:1014C00007248DE594E0BC0180EC0E940724DF91A5
:1014D000CF910895CF93DF93CDB7DEB78CE292E042
:1014E000BC0180E80E94072485EF95E0BC0180ECF8
:1014F0000E940724DF91CF910895CF93DF93CDB75A
:10150000DEB78CE292E0BC0180E80E94072486E00E
:1015100096E0BC0180EC0E940724DF91CF910895F2
:10152000CF93DF93CDB7DEB78CE292E0BC0180E8C9
:101530000E94072487E196E0BC0180EC0E9407240A
:10154000DF91CF910895CF93DF93CDB7DEB78CE2D3
:1015500092E0BC0180E80E94072488E296E0BC018A
:1015600080EC0E940724DF91CF910895CF93DF9301
:10157000CDB7DEB78CE292E0BC0180E80E94072480
:1015800089E396E0BC0180EC0E940724DF91CF91B3
:101590000895CF93DF93CDB7DEB78AE496E0BC0120
:1015A00080E80E9407248BE596E0BC0180EC0E9455
:1015B0000724DF91CF910895CF93DF93CDB7DEB7A6
:1015C00080910707909108072FEF8D3F920769F4EC
:1015D00087E090E0A0E0B0E08093030A9093040AD3
:1015E000A093050AB093060A3EC080910707909128
:1015F00008072FEF8F37920769F482E090E0A0E0B0
:10160000B0E08093030A9093040AA093050AB09374
:10161000060A29C080910707909108072FEF8B3F9A
:10162000920769F48AE090E0A0E0B0E08093030ABA
:101630009093040AA093050AB093060A14C08091FF
:101640000707909108072EEF8A3B920761F48FEF0E
:101650009FEFAFEFBFEF8093030A9093040AA0932C
:10166000050AB093060ADF91CF910895CF93DF93D7
:10167000CDB7DEB780910707909108072FEF8B3F1A
:10168000920769F484E690E0A0E0B0E08093030A5A
:101690009093040AA093050AB093060A3EC0809175
:1016A0000707909108072FEF8E3F920769F481E0BA
:1016B00090E0A0E0B0E08093030A9093040AA09326
:1016C000050AB093060A29C0809107079091080780
:1016D0002FEF8D3F920769F48FE090E0A0E0B0E03B
:1016E0008093030A9093040AA093050AB093060A14
:1016F00014C080910707909108072FEF8F3792074A
:1017000061F48BE090E0A0E0B0E08093030A909356
:10171000040AA093050AB093060ADF91CF910895B9
:10172000CF93DF93CDB7DEB780910707909108077D
:101730002FEF8B3F920769F48AE090E0A0E0B0E0E1
:101740008093030A9093040AA093050AB093060AB3
:101750003EC080910707909108072FEF8E3F9207B8
:1017600069F481E090E0A0E0B0E08093030A9093F8
:10177000040AA093050AB093060A29C080910707BE
:10178000909108072FEF8D3F920769F48FE090E06A
:10179000A0E0B0E08093030A9093040AA093050AA6
:1017A000B093060A14C080910707909108072FEFA5
:1017B0008F37920761F48BE090E0A0E0B0E0809377
:1017C000030A9093040AA093050AB093060ADF91D6
:1017D000CF910895CF93DF93CDB7DEB78091070700
:1017E000909108072FEF8B3F920769F488EC90E007
:1017F000A0E0B0E08093030A9093040AA093050A46
:10180000B093060A3EC080910707909108072FEF1A
:101810008E3F920769F481E090E0A0E0B0E0809311
:10182000030A9093040AA093050AB093060A29C0FC
:1018300080910707909108072FEF8D3F920769F479
:101840008AE090E0A0E0B0E08093030A9093040A5D
:10185000A093050AB093060A14C0809107079091DF
:1018600008072FEF8F37920761F48CE090E0A0E03B
:10187000B0E08093030A9093040AA093050AB09302
:10188000060ADF91CF910895CF93DF93CDB7DEB7EE
:1018900080910707909108072FEF8B3F920769F41B
:1018A00084E190E0A0E0B0E08093030A9093040A02
:1018B000A093050AB093060A3EC080910707909155
:1018C00008072FEF8E3F920769F481E090E0A0E0D7
:1018D000B0E08093030A9093040AA093050AB093A2
:1018E000060A29C080910707909108072FEF8D3FC6
:1018F000920769F48AE090E0A0E0B0E08093030AE8
:101900009093040AA093050AB093060A14C080912C
:101910000707909108072FEF8F37920761F48CE04B
:1019200090E0A0E0B0E08093030A9093040AA093B3
:10193000050AB093060ADF91CF910895CF93DF9304
:10194000CDB7DEB780910707909108072FEF8E3F44
:10195000920769F481E090E0A0E0B0E08093030A90
:101960009093040AA093050AB093060A29C08091B7
:101970000707909108072FEF8D3F920769F48BE0DE
:1019800090E0A0E0B0E08093030A9093040AA09353
:10199000050AB093060A14C08091070790910807C2
:1019A0002FEF8F37920761F48DE090E0A0E0B0E078
:1019B0008093030A9093040AA093050AB093060A41
:1019C000DF91CF910895CF93DF93CDB7DEB78091AC
:1019D0000707909108072FEF8E3F920769F481E087
:1019E00090E0A0E0B0E08093030A9093040AA093F3
:1019F000050AB093060A29C080910707909108074D
:101A00002FEF8D3F920769F48CE090E0A0E0B0E00A
:101A10008093030A9093040AA093050AB093060AE0
:101A200014C080910707909108072FEF8F37920716
:101A300061F48EE090E0A0E0B0E08093030A909320
:101A4000040AA093050AB093060ADF91CF91089586
:101A5000CF93DF93CDB7DEB780910707909108074A
:101A60002FEF8E3F920769F481E090E0A0E0B0E0B4
:101A70008093030A9093040AA093050AB093060A80
:101A800029C080910707909108072FEF8D3F92079B
:101A900069F48DE090E0A0E0B0E08093030A9093B9
:101AA000040AA093050AB093060A14C080910707A0
:101AB000909108072FEF8F37920761F48FE090E045
:101AC000A0E0B0E08093030A9093040AA093050A73
:101AD000B093060ADF91CF910895CF93DF93CDB7EE
:101AE000DEB780910707909108072FEF8E3F92078E
:101AF00069F481E090E0A0E0B0E08093030A909365
:101B0000040AA093050AB093060A29C0809107072A
:101B1000909108072FEF8D3F920769F48EE090E0D7
:101B2000A0E0B0E08093030A9093040AA093050A12
:101B3000B093060A14C080910707909108072FEF11
:101B40008F37920761F48AE090E0A0E0B0E08093E4
:101B5000030A9093040AA093050AB093060ADF9142
:101B6000CF910895CF93DF93CDB7DEB7809107076C
:101B7000909108072FEF8D3F920769F481E090E084
:101B8000A0E0B0E08093030A9093040AA093050AB2
:101B9000B093060A3EC080910707909108072FEF87
:101BA0008F37920769F483E090E0A0E0B0E0809383
:101BB000030A9093040AA093050AB093060A29C069
:101BC00080910707909108072FEF8B3F920769F4E8
:101BD00084E190E0A0E0B0E08093030A9093040ACF
:101BE000A093050AB093060A14C08091070790914C
:101BF00008072EEF8A3B920761F48FEF9FEFAFEF5C
:101C0000BFEF8093030A9093040AA093050AB09350
:101C1000060ADF91CF910895CF93DF93CDB7DEB75A
:101C200080910707909108072FEF8E3F920769F484
:101C300082E090E0A0E0B0E08093030A9093040A71
:101C4000A093050AB093060A3EC0809107079091C1
:101C500008072FEF8B3F920769F480ED97E0A0E033
:101C6000B0E08093030A9093040AA093050AB0930E
:101C7000060A29C080910707909108072FEF8D3F32
:101C8000920769F486E190E0A0E0B0E08093030A57
:101C90009093040AA093050AB093060A14C0809199
:101CA0000707909108072FEF8F37920761F485E1BE
:101CB00090E0A0E0B0E08093030A9093040AA09320
:101CC000050AB093060ADF91CF910895CF93DF9371
:101CD000CDB7DEB780910707909108072FEF8E3FB1
:101CE000920769F484E190E0A0E0B0E08093030AF9
:101CF0009093040AA093050AB093060A29C0809124
:101D00000707909108072FEF8D3F920769F48DED3B
:101D100097E0A0E0B0E08093030A9093040AA093B8
:101D2000050AB093060A14C080910707909108072E
:101D30002FEF8F37920761F481ED97E0A0E0B0E0DC
:101D40008093030A9093040AA093050AB093060AAD
:101D5000DF91CF910895CF93DF93CDB7DEB7809118
:101D60000707909108072FEF8E3F920769F484E1EF
:101D700090E0A0E0B0E08093030A9093040AA0935F
:101D8000050AB093060A29C08091070790910807B9
:101D90002FEF8D3F920769F480ED97E0A0E0B0E06F
:101DA0008093030A9093040AA093050AB093060A4D
:101DB00014C080910707909108072FEF8F37920783
:101DC00061F482ED97E0A0E0B0E08093030A909385
:101DD000040AA093050AB093060ADF91CF910895F3
:101DE000CF93DF93CDB7DEB78091070790910807B7
:101DF0002FEF8E3F920769F484E190E0A0E0B0E01D
:101E00008093030A9093040AA093050AB093060AEC
:101E100029C080910707909108072FEF8D3F920707
:101E200069F481ED97E0A0E0B0E08093030A90931D
:101E3000040AA093050AB093060A14C0809107070C
:101E4000909108072FEF8F37920761F483ED97E0A9
:101E5000A0E0B0E08093030A9093040AA093050ADF
:101E6000B093060ADF91CF910895CF93DF93CDB75A
:101E7000DEB780910707909108072FEF8E3F9207FA
:101E800069F484E190E0A0E0B0E08093030A9093CD
:101E9000040AA093050AB093060A29C08091070797
:101EA000909108072FEF8D3F920769F482ED97E03C
:101EB000A0E0B0E08093030A9093040AA093050A7F
:101EC000B093060A14C080910707909108072FEF7E
:101ED0008F37920761F484ED97E0A0E0B0E0809343
:101EE000030A9093040AA093050AB093060ADF91AF
:101EF000CF910895CF93DF93CDB7DEB780910707D9
:101F0000909108072FEF8E3F920769F484E190E0EB
:101F1000A0E0B0E08093030A9093040AA093050A1E
:101F2000B093060A29C080910707909108072FEF08
:101F30008D3F920769F483ED97E0A0E0B0E08093D5
:101F4000030A9093040AA093050AB093060A14C0EA
:101F500080910707909108072FEF8F37920761F460
:101F600085ED97E0A0E0B0E08093030A9093040A27
:101F7000A093050AB093060ADF91CF910895CF93FD
:101F8000DF93CDB7DEB780910707909108072FEF59
:101F90008E3F920769F484E190E0A0E0B0E0809386
:101FA000030A9093040AA093050AB093060A29C075
:101FB00080910707909108072FEF8D3F920769F4F2
:101FC00084ED97E0A0E0B0E08093030A9093040AC8
:101FD000A093050AB093060A14C080910707909158
:101FE00008072FEF8F37920761F486ED97E0A0E0A6
:101FF000B0E08093030A9093040AA093050AB0937B
:10200000060ADF91CF910895CF93DF93CDB7DEB766
:1020100080910707909108072FEF8E3F920769F490
:1020200084E190E0A0E0B0E08093030A9093040A7A
:10203000A093050AB093060A29C0809107079091E2
:1020400008072FEF8D3F920769F485ED97E0A0E038
:10205000B0E08093030A9093040AA093050AB0931A
:10206000060A14C080910707909108072FEF8F3759
:10207000920761F487ED97E0A0E0B0E08093030A57
:102080009093040AA093050AB093060ADF91CF91BA
:102090000895CF93DF93CDB7DEB780910707909176
:1020A00008072FEF8E3F920769F484E190E0A0E0EB
:1020B000B0E08093030A9093040AA093050AB093BA
:1020C000060A29C080910707909108072FEF8D3FDE
:1020D000920769F486ED97E0A0E0B0E08093030AF0
:1020E0009093040AA093050AB093060A14C0809145
:1020F0000707909108072FEF8F37920761F488ED5B
:1021000097E0A0E0B0E08093030A9093040AA093C4
:10211000050AB093060ADF91CF910895CF93DF931C
:10212000CDB7DEB780910707909108072FEF8E3F5C
:10213000920769F484E190E0A0E0B0E08093030AA4
:102140009093040AA093050AB093060A29C08091CF
:102150000707909108072FEF8D3F920769F487EDED
:1021600097E0A0E0B0E08093030A9093040AA09364
:10217000050AB093060A14C08091070790910807DA
:102180002FEF8F37920761F489ED97E0A0E0B0E080
:102190008093030A9093040AA093050AB093060A59
:1021A000DF91CF910895CF93DF93CDB7DEB78091C4
:1021B0000707909108072FEF8E3F920769F484E19B
:1021C00090E0A0E0B0E08093030A9093040AA0930B
:1021D000050AB093060A29C0809107079091080765
:1021E0002FEF8D3F920769F488ED97E0A0E0B0E013
:1021F0008093030A9093040AA093050AB093060AF9
:1022000014C080910707909108072FEF8F3792072E
:1022100061F48AED97E0A0E0B0E08093030A909328
:10222000040AA093050AB093060ADF91CF9108959E
:10223000CF93DF93CDB7DEB7809107079091080762
:102240002FEF8E3F920769F484E190E0A0E0B0E0C8
:102250008093030A9093040AA093050AB093060A98
:1022600029C080910707909108072FEF8D3F9207B3
:1022700069F489ED97E0A0E0B0E08093030A9093C1
:10228000040AA093050AB093060A14C080910707B8
:10229000909108072FEF8F37920761F48BED97E04D
:1022A000A0E0B0E08093030A9093040AA093050A8B
:1022B000B093060ADF91CF910895CF93DF93CDB706
:1022C000DEB780910707909108072FEF8E3F9207A6
:1022D00069F484E190E0A0E0B0E08093030A909379
:1022E000040AA093050AB093060A29C08091070743
:1022F000909108072FEF8D3F920769F48AED97E0E0
:10230000A0E0B0E08093030A9093040AA093050A2A
:10231000B093060A14C080910707909108072FEF29
:102320008F37920761F48CED97E0A0E0B0E08093E6
:10233000030A9093040AA093050AB093060ADF915A
:10234000CF910895CF93DF93CDB7DEB78091070784
:10235000909108072FEF8E3F920769F484E190E097
:10236000A0E0B0E08093030A9093040AA093050ACA
:10237000B093060A29C080910707909108072FEFB4
:102380008D3F920769F48BED97E0A0E0B0E0809379
:10239000030A9093040AA093050AB093060A14C096
:1023A00080910707909108072FEF8F37920761F40C
:1023B0008DED97E0A0E0B0E08093030A9093040ACB
:1023C000A093050AB093060ADF91CF910895CF93A9
:1023D000DF93CDB7DEB780910707909108072FEF05
:1023E0008E3F920769F484E190E0A0E0B0E0809332
:1023F000030A9093040AA093050AB093060A29C021
:1024000080910707909108072FEF8D3F920769F49D
:102410008CED97E0A0E0B0E08093030A9093040A6B
:10242000A093050AB093060A14C080910707909103
:1024300008072FEF8F37920761F480ED97E0A0E057
:10244000B0E08093030A9093040AA093050AB09326
:10245000060ADF91CF910895CF93DF93CDB7DEB712
:1024600080910707909108072FEF8E3F920769F43C
:1024700082E090E0A0E0B0E08093030A9093040A29
:10248000A093050AB093060A3EC080910707909179
:1024900008072FEF8B3F920769F484E398E0A0E0F0
:1024A000B0E08093030A9093040AA093050AB093C6
:1024B000060A29C080910707909108072FEF8D3FEA
:1024C000920769F484E190E0A0E0B0E08093030A11
:1024D0009093040AA093050AB093060A14C0809151
:1024E0000707909108072FEF8F37920761F486E175
:1024F00090E0A0E0B0E08093030A9093040AA093D8
:10250000050AB093060ADF91CF910895CF93DF9328
:10251000CDB7DEB780910707909108072FEF8E3F68
:10252000920769F485E190E0A0E0B0E08093030AAF
:102530009093040AA093050AB093060A29C08091DB
:102540000707909108072FEF8D3F920769F488E302
:1025500098E0A0E0B0E08093030A9093040AA0936F
:10256000050AB093060A14C08091070790910807E6
:102570002FEF8F37920761F485E398E0A0E0B0E099
:102580008093030A9093040AA093050AB093060A65
:10259000DF91CF910895CF93DF93CDB7DEB78091D0
:1025A0000707909108072FEF8E3F920769F485E1A6
:1025B00090E0A0E0B0E08093030A9093040AA09317
:1025C000050AB093060A29C0809107079091080771
:1025D0002FEF8D3F920769F484E398E0A0E0B0E02C
:1025E0008093030A9093040AA093050AB093060A05
:1025F00014C080910707909108072FEF8F3792073B
:1026000061F486E398E0A0E0B0E08093030A909341
:10261000040AA093050AB093060ADF91CF910895AA
:10262000CF93DF93CDB7DEB780910707909108076E
:102630002FEF8E3F920769F485E190E0A0E0B0E0D3
:102640008093030A9093040AA093050AB093060AA4
:1026500029C080910707909108072FEF8D3F9207BF
:1026600069F485E398E0A0E0B0E08093030A9093DA
:10267000040AA093050AB093060A14C080910707C4
:10268000909108072FEF8F37920761F487E398E066
:10269000A0E0B0E08093030A9093040AA093050A97
:1026A000B093060ADF91CF910895CF93DF93CDB712
:1026B000DEB780910707909108072FEF8E3F9207B2
:1026C00069F485E190E0A0E0B0E08093030A909384
:1026D000040AA093050AB093060A29C0809107074F
:1026E000909108072FEF8D3F920769F486E398E0F9
:1026F000A0E0B0E08093030A9093040AA093050A37
:10270000B093060A14C080910707909108072FEF35
:102710008F37920761F488E398E0A0E0B0E08093FF
:10272000030A9093040AA093050AB093060ADF9166
:10273000CF910895CF93DF93CDB7DEB78091070790
:10274000909108072FEF8E3F920769F485E190E0A2
:10275000A0E0B0E08093030A9093040AA093050AD6
:10276000B093060A29C080910707909108072FEFC0
:102770008D3F920769F487E398E0A0E0B0E0809392
:10278000030A9093040AA093050AB093060A14C0A2
:1027900080910707909108072FEF8F37920761F418
:1027A00084E398E0A0E0B0E08093030A9093040AE9
:1027B000A093050AB093060ADF91CF910895CF93B5
:1027C000DF93CDB7DEB780910707909108072FEF11
:1027D0008E3F920769F482E090E0A0E0B0E0809341
:1027E000030A9093040AA093050AB093060A3EC018
:1027F00080910707909108072FEF8B3F920769F4AC
:1028000088E998E0A0E0B0E08093030A9093040A7E
:10281000A093050AB093060A29C0809107079091FA
:1028200008072FEF8D3F920769F485E190E0A0E063
:10283000B0E08093030A9093040AA093050AB09332
:10284000060A14C080910707909108072FEF8F3771
:10285000920761F484E190E0A0E0B0E08093030A85
:102860009093040AA093050AB093060ADF91CF91D2
:102870000895CF93DF93CDB7DEB78091070790918E
:1028800008072FEF8E3F920769F486E190E0A0E001
:10289000B0E08093030A9093040AA093050AB093D2
:1028A000060A29C080910707909108072FEF8D3FF6
:1028B000920769F480EA98E0A0E0B0E08093030A10
:1028C0009093040AA093050AB093060A14C080915D
:1028D0000707909108072FEF8F37920761F489E976
:1028E00098E0A0E0B0E08093030A9093040AA093DC
:1028F000050AB093060ADF91CF910895CF93DF9335
:10290000CDB7DEB780910707909108072FEF8E3F74
:10291000920769F486E190E0A0E0B0E08093030ABA
:102920009093040AA093050AB093060A29C08091E7
:102930000707909108072FEF8D3F920769F488E908
:1029400098E0A0E0B0E08093030A9093040AA0937B
:10295000050AB093060A14C08091070790910807F2
:102960002FEF8F37920761F48AE998E0A0E0B0E09A
:102970008093030A9093040AA093050AB093060A71
:10298000DF91CF910895CF93DF93CDB7DEB78091DC
:102990000707909108072FEF8E3F920769F486E1B1
:1029A00090E0A0E0B0E08093030A9093040AA09323
:1029B000050AB093060A29C080910707909108077D
:1029C0002FEF8D3F920769F489E998E0A0E0B0E02D
:1029D0008093030A9093040AA093050AB093060A11
:1029E00014C080910707909108072FEF8F37920747
:1029F00061F48BE998E0A0E0B0E08093030A909343
:102A0000040AA093050AB093060ADF91CF910895B6
:102A1000CF93DF93CDB7DEB780910707909108077A
:102A20002FEF8E3F920769F486E190E0A0E0B0E0DE
:102A30008093030A9093040AA093050AB093060AB0
:102A400029C080910707909108072FEF8D3F9207CB
:102A500069F48AE998E0A0E0B0E08093030A9093DB
:102A6000040AA093050AB093060A14C080910707D0
:102A7000909108072FEF8F37920761F48CE998E067
:102A8000A0E0B0E08093030A9093040AA093050AA3
:102A9000B093060ADF91CF910895CF93DF93CDB71E
:102AA000DEB780910707909108072FEF8E3F9207BE
:102AB00069F486E190E0A0E0B0E08093030A90938F
:102AC000040AA093050AB093060A29C0809107075B
:102AD000909108072FEF8D3F920769F48BE998E0FA
:102AE000A0E0B0E08093030A9093040AA093050A43
:102AF000B093060A14C080910707909108072FEF42
:102B00008F37920761F48DE998E0A0E0B0E0809300
:102B1000030A9093040AA093050AB093060ADF9172
:102B2000CF910895CF93DF93CDB7DEB7809107079C
:102B3000909108072FEF8E3F920769F486E190E0AD
:102B4000A0E0B0E08093030A9093040AA093050AE2
:102B5000B093060A29C080910707909108072FEFCC
:102B60008D3F920769F48CE998E0A0E0B0E0809393
:102B7000030A9093040AA093050AB093060A14C0AE
:102B800080910707909108072FEF8F37920761F424
:102B90008EE998E0A0E0B0E08093030A9093040AE5
:102BA000A093050AB093060ADF91CF910895CF93C1
:102BB000DF93CDB7DEB780910707909108072FEF1D
:102BC0008E3F920769F486E190E0A0E0B0E0809348
:102BD000030A9093040AA093050AB093060A29C039
:102BE00080910707909108072FEF8D3F920769F4B6
:102BF0008DE998E0A0E0B0E08093030A9093040A86
:102C0000A093050AB093060A14C08091070790911B
:102C100008072FEF8F37920761F48FE998E0A0E063
:102C2000B0E08093030A9093040AA093050AB0933E
:102C3000060ADF91CF910895CF93DF93CDB7DEB72A
:102C400080910707909108072FEF8E3F920769F454
:102C500086E190E0A0E0B0E08093030A9093040A3C
:102C6000A093050AB093060A29C0809107079091A6
:102C700008072FEF8D3F920769F48EE998E0A0E0F6
:102C8000B0E08093030A9093040AA093050AB093DE
:102C9000060A14C080910707909108072FEF8F371D
:102CA000920761F480EA98E0A0E0B0E08093030A24
:102CB0009093040AA093050AB093060ADF91CF917E
:102CC0000895CF93DF93CDB7DEB78091070790913A
:102CD00008072FEF8E3F920769F486E190E0A0E0AD
:102CE000B0E08093030A9093040AA093050AB0937E
:102CF000060A29C080910707909108072FEF8D3FA2
:102D0000920769F48FE998E0A0E0B0E08093030AAD
:102D10009093040AA093050AB093060A14C0809108
:102D20000707909108072FEF8F37920761F488E922
:102D300098E0A0E0B0E08093030A9093040AA09387
:102D4000050AB093060ADF91CF910895CF93DF93E0
:102D5000CDB7DEB780910707909108072FEF8D3F21
:102D6000920769F482E090E0A0E0B0E08093030A6B
:102D70009093040AA093050AB093060A3EC080917E
:102D80000707909108072FEF8F37920769F484E0C7
:102D900090E0A0E0B0E08093030A9093040AA0932F
:102DA000050AB093060A29C0809107079091080789
:102DB0002FEF8B3F920769F48EE190E0A0E0B0E046
:102DC0008093030A9093040AA093050AB093060A1D
:102DD00014C080910707909108072EEF8A3B920755
:102DE00061F48FEF9FEFAFEFBFEF8093030A9093F3
:102DF000040AA093050AB093060ADF91CF910895C3
:102E0000CF93DF93CDB7DEB7809107079091080786
:102E10002FEF8D3F920769F483E090E0A0E0B0E0EF
:102E20008093030A9093040AA093050AB093060ABC
:102E30003EC080910707909108072FEF8F379207C8
:102E400069F485E090E0A0E0B0E08093030A9093FD
:102E5000040AA093050AB093060A29C080910707C7
:102E6000909108072FEF8B3F920769F488E290E07A
:102E7000A0E0B0E08093030A9093040AA093050AAF
:102E8000B093060A14C080910707909108072EEFAF
:102E90008A3B920761F48FEF9FEFAFEFBFEF809314
:102EA000030A9093040AA093050AB093060ADF91DF
:102EB000CF910895CF93DF93CDB7DEB78091070709
:102EC000909108072FEF8D3F920769F484E090E01E
:102ED000A0E0B0E08093030A9093040AA093050A4F
:102EE000B093060A3EC080910707909108072FEF24
:102EF0008F37920769F486E090E0A0E0B0E080931D
:102F0000030A9093040AA093050AB093060A29C005
:102F100080910707909108072FEF8B3F920769F484
:102F200082E390E0A0E0B0E08093030A9093040A6B
:102F3000A093050AB093060A14C0809107079091E8
:102F400008072EEF8A3B920761F48FEF9FEFAFEFF8
:102F5000BFEF8093030A9093040AA093050AB093ED
:102F6000060ADF91CF910895CF93DF93CDB7DEB7F7
:102F700080910707909108072FEF8D3F920769F422
:102F800085E090E0A0E0B0E08093030A9093040A0B
:102F9000A093050AB093060A3EC08091070790915E
:102FA00008072FEF8F37920769F487E090E0A0E0E1
:102FB000B0E08093030A9093040AA093050AB093AB
:102FC000060A29C080910707909108072FEF8B3FD1
:102FD000920769F48CE390E0A0E0B0E08093030AEC
:102FE0009093040AA093050AB093060A14C0809136
:102FF0000707909108072EEF8A3B920761F48FEF45
:103000009FEFAFEFBFEF8093030A9093040AA09362
:10301000050AB093060ADF91CF910895CF93DF930D
:10302000CDB7DEB780910707909108072FEF8D3F4E
:10303000920769F486E090E0A0E0B0E08093030A94
:103040009093040AA093050AB093060A3EC08091AB
:103050000707909108072FEF8F37920769F481E0F7
:1030600090E0A0E0B0E08093030A9093040AA0935C
:10307000050AB093060A29C08091070790910807B6
:103080002FEF8B3F920769F486E490E0A0E0B0E078
:103090008093030A9093040AA093050AB093060A4A
:1030A00014C080910707909108072EEF8A3B920782
:1030B00061F48FEF9FEFAFEFBFEF8093030A909320
:1030C000040AA093050AB093060ADF91CF910895F0
:1030D000CF93DF93CDB7DEB78091070790910807B4
:1030E0002EEF8A3B920761F481E090E0A0E0B0E02F
:1030F0008093030A9093040AA093050AB093060AEA
:10310000DF91CF910895CF93DF93CDB7DEB7A89726
:103110000FB6F894DEBF0FBECDBF188A1F861E867D
:103120001A861B861C861D861E821F82188619869B
:103130008FEF98E09B838A83CE01C0969BA38AA3DE
:1031400018C08D89882361F4EA81FB8110828FEF9A
:1031500098E09B838A838A819B8198A78FA3F3C180
:10316000EA81FB818D8980838A819B8101969B8383
:103170008A83EEA5FFA580818D8B1EA28D89853265
:1031800011F021E02EA38EA59FA501969FA78EA7E3
:103190003EA13323B1F6188A8AE090E09C8B8B8B9A
:1031A000EEA5FFA580818D8B8EA59FA501969FA77B
:1031B0008EA71C821D828D898B3259F481E08F8706
:1031C000EEA5FFA580818D8B8EA59FA501969FA75B
:1031D0008EA78D89803319F08D898032E9F48D892D
:1031E0008D83EEA5FFA580818D8B8EA59FA5019671
:1031F0009FA78EA78D89803378F08D898A3360F4FC
:103200008D8980538C83EEA5FFA580818D8B8EA543
:103210009FA501969FA78EA71E868D898C3619F0D3
:103220008D898C3459F481E08E87EEA5FFA58081CD
:103230008D8B8EA59FA501969FA78EA78D89282F80
:1032400033273DA32CA38CA19DA18F36910509F4B2
:1032500062C02CA13DA12037310564F48CA19DA151
:1032600083369105C9F02CA13DA12436310509F41E
:1032700060C01CC08CA19DA18537910509F460C078
:103280002CA13DA12837310509F456C08CA19DA180
:1032900083379105F1F00AC02AA13BA1C90102962A
:1032A0009BA38AA3F901808191818D8BEA81FB81A7
:1032B00085E280838A819B8101969B838A83EA8150
:1032C000FB818D8980838A819B8101969B838A8380
:1032D00050CF2AA13BA1C90102969BA38AA3F90161
:1032E000808191819A8B898B10C0E989FA898081CC
:1032F000EA81FB8180838A819B8101969B838A83FB
:1033000089899A8901969A8B898BE989FA898081C2
:10331000882359F72ECF88E090E09C8B8B8BEA8135
:10332000FB8180E380838A819B8101969B838A83D2
:1033300007C081E0888B04C080E190E09C8B8B8B80
:103340008889882309F458C08E85882381F02AA1B2
:103350003BA1C90104969BA38AA3F90180819181B5
:10336000A281B3818E839F83A887B98711C02AA1C8
:103370003BA1C90102969BA38AA3F9018081918197
:10338000AA2797FDA095BA2F8E839F83A887B98718
:103390008E819F81A885B985BB23CCF48E819F81C6
:1033A000A885B985B095A095909581959F4FAF4F11
:1033B000BF4F8E839F83A887B987EA81FB818DE207
:1033C00080838A819B8101969B838A830CC08F8531
:1033D000882349F0EA81FB818BE280838A819B818B
:1033E00001969B838A838E819F81A885B9858A8770
:1033F0009B87AC87BD872EC08F85882349F0EA81E3
:10340000FB818BE280838A819B8101969B838A83E7
:103410008E85882381F02AA13BA1C90104969BA334
:103420008AA3F90180819181A281B3818A879B87D8
:10343000AC87BD870FC02AA13BA1C90102969BA3FF
:103440008AA3F90180819181AA27BB278A879B875C
:10345000AC87BD87CE0146960C969A8B898B89895D
:103460009A8901979A8B898BE989FA8910828B89CD
:103470009C899C01442755278A859B85AC85BD8501
:10348000BC01CD010E948124DC01CB01805D8983D8
:1034900089818A3330F08981895D8983898180526D
:1034A000898389899A8901979A8B898BE989FA8915
:1034B000898180838B899C899C01442755278A8533
:1034C0009B85AC85BD85BC01CD010E948124DA01BC
:1034D000C9018A879B87AC87BD878C81882319F0B7
:1034E0008C8181508C838A859B85AC85BD850097B6
:1034F000A105B10509F0BBCF09C089899A89019757
:103500009A8B898BE989FA898D8180838C8181509E
:103510008C838C818F3F89F710C0E989FA8980817B
:10352000EA81FB8180838A819B8101969B838A83C8
:1035300089899A8901969A8B898BE989FA89808190
:10354000882359F716CE8FA198A5A8960FB6F894A0
:10355000DEBF0FBECDBFDF91CF910895CF93DF9334
:10356000CDB7DEB724970FB6F894DEBF0FBECDBF40
:10357000109284062091030A3091040A4091050AB2
:103580005091060A8091FF099091000AA091010ACA
:10359000B091020A281739074A075B0719F081E042
:1035A0008093840680910707909108072FEF8F3F43
:1035B000920731F081E08093790610927E061BC05D
:1035C00080919706882341F480917906882321F021
:1035D00081E00E9447240BC080919706882339F030
:1035E00080917906882319F480E00E944724809115
:1035F0007906809397068091030A9091040AA0911E
:10360000050AB091060A89839A83AB83BC838981BA
:103610009A81AB81BC81853D27E0920720E0A2071B
:1036200020E0B20709F407C389819A81AB81BC818C
:10363000863D27E0920720E0A20720E0B20708F0CD
:1036400040C189819A81AB81BC818E309105A105F1
:10365000B10509F4D5C289819A81AB81BC818F30D3
:103660009105A105B10508F08DC089819A81AB81D2
:10367000BC8186309105A105B10509F430C389816B
:103680009A81AB81BC8187309105A105B105E8F530
:1036900089819A81AB81BC8183309105A105B105F7
:1036A00009F414C389819A81AB81BC81843091056E
:1036B000A105B105A8F489819A81AB81BC818130D3
:1036C0009105A105B10509F486C289819A81AB8172
:1036D000BC8182309105A105B10509F497C208C3E8
:1036E00089819A81AB81BC8184309105A105B105A6
:1036F00009F4EFC289819A81AB81BC818530910543
:10370000A105B10509F4E8C2F3C289819A81AB81B0
:10371000BC818B309105A105B10509F465C2898191
:103720009A81AB81BC818C309105A105B105A8F4CB
:1037300089819A81AB81BC8187309105A105B10552
:1037400009F4D0C289819A81AB81BC818A3091050C
:10375000A105B10509F442C2CBC289819A81AB812E
:10376000BC818C309105A105B10509F443C2898162
:103770009A81AB81BC818D309105A105B10509F419
:103780003CC2B6C289819A81AB81BC818E369105DB
:10379000A105B10509F42BC289819A81AB81BC8155
:1037A0008F369105A105B105E8F589819A81AB8134
:1037B000BC8185319105A105B10509F457C2898104
:1037C0009A81AB81BC8186319105A105B105A8F430
:1037D00089819A81AB81BC818F309105A105B105AA
:1037E00009F411C289819A81AB81BC818431910530
:1037F000A105B10509F40DC27BC289819A81AB8113
:10380000BC8186319105A105B10509F441C28981C8
:103810009A81AB81BC8184369105A105B10509F47B
:10382000E0C166C289819A81AB81BC81823D27E07B
:10383000920720E0A20720E0B20709F4F3C18981D2
:103840009A81AB81BC81833D27E0920720E0A207EB
:1038500020E0B207D8F489819A81AB81BC81803D98
:1038600027E0920720E0A20720E0B20709F4D4C1C4
:1038700089819A81AB81BC81813D27E0920720E05C
:10388000A20720E0B20709F4CAC132C289819A8135
:10389000AB81BC81833D27E0920720E0A20720E0B6
:1038A000B20709F4C2C189819A81AB81BC81843D90
:1038B00027E0920720E0A20720E0B20709F4B8C190
:1038C00017C289819A81AB81BC81873328E0920736
:1038D00020E0A20720E0B20709F4D4C189819A81CF
:1038E000AB81BC81883328E0920720E0A20720E06A
:1038F000B20708F0B8C089819A81AB81BC818B3D49
:1039000027E0920720E0A20720E0B20709F4A5C152
:1039100089819A81AB81BC818C3D27E0920720E0B0
:10392000A20720E0B20708F04FC089819A81AB81DD
:10393000BC81883D27E0920720E0A20720E0B20783
:1039400009F482C189819A81AB81BC81893D27E0DC
:10395000920720E0A20720E0B207D8F489819A817B
:10396000AB81BC81863D27E0920720E0A20720E0E2
:10397000B20709F463C189819A81AB81BC81873D1B
:1039800027E0920720E0A20720E0B20709F459C11E
:10399000AFC189819A81AB81BC81893D27E09207C3
:1039A00020E0A20720E0B20709F451C189819A8181
:1039B000AB81BC818A3D27E0920720E0A20720E08E
:1039C000B20709F447C194C189819A81AB81BC8156
:1039D000843328E0920720E0A20720E0B20709F430
:1039E00048C189819A81AB81BC81853328E09207E7
:1039F00020E0A20720E0B207D8F489819A81AB8148
:103A0000BC818C3D27E0920720E0A20720E0B207AE
:103A100009F426C189819A81AB81BC818D3D27E063
:103A2000920720E0A20720E0B20709F41CC160C1A0
:103A300089819A81AB81BC81853328E0920720E09F
:103A4000A20720E0B20709F417C189819A81AB81EE
:103A5000BC81863328E0920720E0A20720E0B2076D
:103A600009F40DC145C189819A81AB81BC818C3932
:103A700028E0920720E0A20720E0B20709F417C16E
:103A800089819A81AB81BC818D3928E0920720E041
:103A9000A20720E0B20708F04FC089819A81AB816C
:103AA000BC81893928E0920720E0A20720E0B20714
:103AB00009F4F4C089819A81AB81BC818A3928E0FC
:103AC000920720E0A20720E0B207D8F489819A810A
:103AD000AB81BC81883328E0920720E0A20720E078
:103AE000B20709F4D2C089819A81AB81BC8188393F
:103AF00028E0920720E0A20720E0B20709F4CBC03B
:103B0000F7C089819A81AB81BC818A3928E092070C
:103B100020E0A20720E0B20709F4C3C089819A819E
:103B2000AB81BC818B3928E0920720E0A20720E01E
:103B3000B20709F4B9C0DCC089819A81AB81BC812C
:103B40008F3928E0920720E0A20720E0B20709F4AD
:103B5000B7C089819A81AB81BC81803A28E0920705
:103B600020E0A20720E0B207D8F489819A81AB81D6
:103B7000BC818D3928E0920720E0A20720E0B2073F
:103B800009F498C089819A81AB81BC818E3928E083
:103B9000920720E0A20720E0B20709F48EC0A8C077
:103BA00089819A81AB81BC81803A28E0920720E02C
:103BB000A20720E0B20709F486C089819A81AB810F
:103BC000BC818F3F2FEF92072FEFA2072FEFB20795
:103BD00009F48BC08DC00E94DC0A8CC00E94360B99
:103BE00089C00E94900B86C00E94EA0B83C00E948D
:103BF000440C80C00E949E0C7DC00E94E30C7AC0E1
:103C00000E94280D77C00E946D0D74C00E94B20DF5
:103C100071C00E940C0E6EC00E94660E6BC00E94A6
:103C2000AB0E68C00E94F00E65C00E94350F62C0E6
:103C30000E947A0F5FC00E94BF0F5CC00E940410F8
:103C400059C00E94491056C00E948E1053C00E9455
:103C5000D31050C00E9418114DC00E945D114AC07F
:103C60000E94A21147C00E94E71144C00E942C127A
:103C700041C00E9486123EC00E94CB123BC00E94EF
:103C8000101338C00E94551335C00E949A1332C0D9
:103C90000E94DF132FC00E9439142CC00E947E1492
:103CA00029C00E94C31426C00E94081523C00E9488
:103CB0004D1520C00E9492151DC00E94D7151AC034
:103CC0000E941C1617C00E94611614C00E94A616FE
:103CD00011C00E9400170EC00E945A170BC00E940C
:103CE000B41708C00E940E1805C00E94681802C0D0
:103CF0000E940D0724960FB6F894DEBF0FBECDBF0D
:103D0000DF91CF910895CF93DF93CDB7DEB724979E
:103D10000FB6F894DEBF0FBECDBF80918406882316
:103D200009F48CC38091030A9091040AA091050ABA
:103D3000B091060A89839A83AB83BC8389819A8177
:103D4000AB81BC81853D27E0920720E0A20720E0FF
:103D5000B20709F407C389819A81AB81BC81863D92
:103D600027E0920720E0A20720E0B20708F040C158
:103D700089819A81AB81BC818E309105A105B10505
:103D800009F4D5C289819A81AB81BC818F309105BC
:103D9000A105B10508F08DC089819A81AB81BC81F4
:103DA00086309105A105B10509F430C389819A8156
:103DB000AB81BC8187309105A105B105E8F589810A
:103DC0009A81AB81BC8183309105A105B10509F4CD
:103DD00014C389819A81AB81BC8184309105A1058E
:103DE000B105A8F489819A81AB81BC8181309105AC
:103DF000A105B10509F486C289819A81AB81BC8194
:103E000082309105A105B10509F497C207C38981E4
:103E10009A81AB81BC8184309105A105B10509F47B
:103E2000EFC289819A81AB81BC8185309105A10562
:103E3000B10509F4E8C2F2C289819A81AB81BC81E3
:103E40008B309105A105B10509F465C289819A817C
:103E5000AB81BC818C309105A105B105A8F48981A5
:103E60009A81AB81BC8187309105A105B10509F428
:103E7000D0C289819A81AB81BC818A309105A1052C
:103E8000B10509F442C2CAC289819A81AB81BC8161
:103E90008C309105A105B10509F443C289819A814D
:103EA000AB81BC818D309105A105B10509F43CC2FF
:103EB000B5C289819A81AB81BC818E369105A105FD
:103EC000B10509F42BC289819A81AB81BC818F36FF
:103ED0009105A105B105E8F589819A81AB81BC8185
:103EE00085319105A105B10509F457C289819A81EF
:103EF000AB81BC8186319105A105B105A8F489810A
:103F00009A81AB81BC818F309105A105B10509F47F
:103F100011C289819A81AB81BC8184319105A1054F
:103F2000B10509F40DC27AC289819A81AB81BC8145
:103F300086319105A105B10509F441C289819A81B3
:103F4000AB81BC8184369105A105B10509F4E0C1BE
:103F500065C289819A81AB81BC81823D27E092074D
:103F600020E0A20720E0B20709F4F3C189819A8119
:103F7000AB81BC81833D27E0920720E0A20720E0CF
:103F8000B207D8F489819A81AB81BC81803D27E05A
:103F9000920720E0A20720E0B20709F4D4C189818A
:103FA0009A81AB81BC81813D27E0920720E0A20786
:103FB00020E0B20709F4CAC131C289819A81AB817C
:103FC000BC81833D27E0920720E0A20720E0B207F2
:103FD00009F4C2C189819A81AB81BC81843D27E00B
:103FE000920720E0A20720E0B20709F4B8C116C288
:103FF00089819A81AB81BC81873328E0920720E0D8
:10400000A20720E0B20709F4D4C189819A81AB816B
:10401000BC81883328E0920720E0A20720E0B207A5
:1040200008F0B8C089819A81AB81BC818B3D27E0C3
:10403000920720E0A20720E0B20709F4A5C1898118
:104040009A81AB81BC818C3D27E0920720E0A207DA
:1040500020E0B20708F04FC089819A81AB81BC8112
:10406000883D27E0920720E0A20720E0B20709F48C
:1040700082C189819A81AB81BC81893D27E0920709
:1040800020E0A20720E0B207D8F489819A81AB81B1
:10409000BC81863D27E0920720E0A20720E0B2071E
:1040A00009F463C189819A81AB81BC81873D27E096
:1040B000920720E0A20720E0B20709F459C1AEC17F
:1040C00089819A81AB81BC81893D27E0920720E0FC
:1040D000A20720E0B20709F451C189819A81AB811E
:1040E000BC818A3D27E0920720E0A20720E0B207CA
:1040F00009F447C193C189819A81AB81BC81843322
:1041000028E0920720E0A20720E0B20709F448C1A6
:1041100089819A81AB81BC81853328E0920720E0B8
:10412000A20720E0B207D8F489819A81AB81BC81D3
:104130008C3D27E0920720E0A20720E0B20709F4B7
:1041400026C189819A81AB81BC818D3D27E0920790
:1041500020E0A20720E0B20709F41CC15FC18981F9
:104160009A81AB81BC81853328E0920720E0A207C9
:1041700020E0B20709F417C189819A81AB81BC8123
:10418000863328E0920720E0A20720E0B20709F476
:104190000DC144C189819A81AB81BC818C3928E0F1
:1041A000920720E0A20720E0B20709F417C1898135
:1041B0009A81AB81BC818D3928E0920720E0A2076B
:1041C00020E0B20708F04FC089819A81AB81BC81A1
:1041D000893928E0920720E0A20720E0B20709F41D
:1041E000F4C089819A81AB81BC818A3928E0920729
:1041F00020E0A20720E0B207D8F489819A81AB8140
:10420000BC81883328E0920720E0A20720E0B207B3
:1042100009F4D2C089819A81AB81BC81883928E0B8
:10422000920720E0A20720E0B20709F4CBC0F6C055
:1042300089819A81AB81BC818A3928E0920720E08C
:10424000A20720E0B20709F4C3C089819A81AB813B
:10425000BC818B3928E0920720E0A20720E0B2075A
:1042600009F4B9C0DBC089819A81AB81BC818F39E7
:1042700028E0920720E0A20720E0B20709F4B7C0C7
:1042800089819A81AB81BC81803A28E0920720E045
:10429000A20720E0B207D8F489819A81AB81BC8162
:1042A0008D3928E0920720E0A20720E0B20709F448
:1042B00098C089819A81AB81BC818E3928E09207B0
:1042C00020E0A20720E0B20709F48EC0A7C08981D0
:1042D0009A81AB81BC81803A28E0920720E0A20756
:1042E00020E0B20709F486C089819A81AB81BC8144
:1042F0008F3F2FEF92072FEFA2072FEFB20709F49E
:104300008BC08CC00E945F0789C00E94720786C064
:104310000E94850783C00E94980780C00E94AB0757
:104320007DC00E94BE077AC00E94D10777C00E945C
:10433000E40774C00E94F70771C00E940A086EC0AB
:104340000E941D086BC00E94300868C00E9443088C
:1043500065C00E94560862C00E9469085FC00E9442
:104360007C085CC00E948F0859C00E94A20856C0F9
:104370000E94B50853C00E94C80850C00E94DB08C4
:104380004DC00E94EE084AC00E94010947C00E9429
:10439000140944C00E94270941C00E943A093EC046
:1043A0000E944D093BC00E94600938C00E947309F9
:1043B00035C00E94860932C00E9499092FC00E9410
:1043C000AC092CC00E94BF0929C00E94D20926C096
:1043D0000E94E50923C00E94F80920C00E940B0A30
:1043E0001DC00E941E0A1AC00E94310A17C00E94F6
:1043F000440A14C00E94570A11C00E946A0A0EC0E3
:104400000E947D0A0BC00E94900A08C00E94A30A65
:1044100005C00E94B60A02C00E94C90A8091030A20
:104420009091040AA091050AB091060A8093FF09B1
:104430009093000AA093010AB093020A8091990612
:1044400024960FB6F894DEBF0FBECDBFDF91CF919B
:104450000895CF93DF93CDB7DEB7EDECF0E0108297
:10446000ECECF0E083E38083E8ECF0E01082E9EC30
:10447000F0E088ED8083EAECF0E086E08083DF9175
:10448000CF910895CF93DF93CDB7DEB721970FB6C5
:10449000F894DEBF0FBECDBF8983E8ECF0E08081E9
:1044A0009927807290700097C1F3EEECF0E089815B
:1044B000808321960FB6F894DEBF0FBECDBFDF918B
:1044C000CF910895CF93DF93CDB7DEB724970FB682
:1044D000F894DEBF0FBECDBF8A837C836B83E8EC8C
:1044E000F0E080819927807290700097C1F3EEEC24
:1044F000F0E08BEA8083E8ECF0E08081992780721D
:1045000090700097C1F3EEECF0E08DEC8083E8EC66
:10451000F0E080819927807290700097C1F3EEECF3
:10452000F0E08A818083E8ECF0E080819927807256
:1045300090700097C1F3EEECF0E08B819C81892FA5
:1045400099278083E8ECF0E0808199278072907051
:104550000097C1F3EEECF0E08B81808324960FB6D8
:10456000F894DEBF0FBECDBFDF91CF9108951F92AB
:104570000F920FB60F9211248F93AF93BF93EF93C7
:10458000FF93CF93DF93CDB7DEB7A1ECB0E0E1ECC2
:10459000F0E0808180618C93DF91CF91FF91EF916A
:1045A000BF91AF918F910F900FBE0F901F901895F4
:1045B0001F920F920FB60F9211242F933F934F9398
:1045C0005F938F939F93EF93FF93CF93DF93CDB739
:1045D000DEB72297DEBFCDBFEEECF0E080818983AD
:1045E00080919D06882371F489818B3A31F4809102
:1045F0009D068F5F80939D0602C010929D061092CB
:10460000A00688C080919D06813061F489818D3C2F
:1046100031F480919D068F5F80939D067BC0109240
:104620009D0678C080919D06823079F489818093BF
:104630009C069091A006898189278093A00680918D
:104640009D068F5F80939D0665C080919D06833097
:10465000D1F540919E0650919F0680919C06992726
:10466000382F222789819927282B392BCA01880FB7
:10467000991FFC01E65CF44F318320839091A006E2
:10468000898189278093A00682E080939D0680918E
:104690009E0690919F06019690939F0680939E069A
:1046A00080919E0690919F068A3F910598F184E043
:1046B00080939D0610929F0610929E0610929A0675
:1046C0001092990627C080919D06843019F590912B
:1046D000A00689819817E1F01A8217C08A81482FB5
:1046E00055278A819927880F991FFC01E55FF84FAC
:1046F00020813181CA01880F991FFC01E65CF44FCB
:10470000318320838A818F5F8A838A818A3F30F355
:1047100010929D062296F894DEBFCDBFDF91CF9117
:10472000FF91EF919F918F915F914F913F912F91C9
:104730000F900FBE0F901F901895CF93DF93CDB7BA
:10474000DEB721970FB6F894DEBF0FBECDBF8983C9
:10475000ABE2B0E0EBE2F0E0808180748C93E2E0C9
:10476000F1E089818083ABE2B0E0EBE2F0E08081B0
:10477000807480628C930F920F90ABE2B0E0EBE21A
:10478000F0E0808180748C9382E390E00E9460026C
:1047900021960FB6F894DEBF0FBECDBFDF91CF914B
:1047A0000895CF93DF93CDB7DEB721970FB6F89476
:1047B000DEBF0FBECDBF8983ABE2B0E0EBE2F0E03D
:1047C0008081807480618C93E2E0F1E08981808354
:1047D000ABE2B0E0EBE2F0E08081807480638C9328
:1047E0000F920F90ABE2B0E0EBE2F0E080818074DA
:1047F00080618C9382E390E00E94600221960FB664
:10480000F894DEBF0FBECDBFDF91CF910895CF9357
:10481000DF93CDB7DEB723970FB6F894DEBF0FBE98
:10482000CDBF89837B836A8389810E949D230AC0CF
:10483000EA81FB8180810E94D1238A819B8101963C
:104840009B838A83EA81FB818081882389F7239671
:104850000FB6F894DEBF0FBECDBFDF91CF910895A4
:10486000CF93DF93CDB7DEB788E30E949D238CE022
:104870000E949D2386E00E949D2381E00E949D234B
:1048800082E090E00E948302DF91CF910895CF9360
:10489000DF93CDB7DEB721970FB6F894DEBF0FBE1A
:1048A000CDBF89838981882341F0ABE2B0E0EBE2A0
:1048B000F0E0808180648C9308C0ABE2B0E0EBE272
:1048C000F0E090818FEB89238C9321960FB6F894BA
:1048D000DEBF0FBECDBFDF91CF91089597FB092EAC
:1048E00007260AD077FD04D02ED006D000201AF477
:1048F000709561957F4F0895F6F7909581959F4F3C
:104900000895A1E21A2EAA1BBB1BFD010DC0AA1F10
:10491000BB1FEE1FFF1FA217B307E407F50720F028
:10492000A21BB30BE40BF50B661F771F881F991FA3
:104930001A9469F760957095809590959B01AC01EC
:10494000BD01CF010895AA1BBB1B51E107C0AA1FDF
:10495000BB1FA617B70710F0A61BB70B881F991F20
:0E4960005A95A9F780959095BC01CD01089558
:10496E00FF01010101012053656F686F20456C65E1
:10497E0063747269630020202020414320447269D1
:10498E00766500FFFFFF00060701000C4D61696EA2
:10499E00204D656E7520506167652020004D3020DA
:1049AE004F7065726174696F6E20202020005B303D
:1049BE005D4C6F63616C2F52656D6F7465200020C6
:1049CE00202020205B4C4F43414C5D2020202000B6
:1049DE00202020205B52454D4F54455D2020202045
:1049EE00005B315D4469722E2043686172676520F9
:1049FE002000202020205B464F52574152445D201C
:104A0E00202000202020205B524556455253455D04
:104A1E00202020005B325D53706565642052656610
:104A2E002020202000202020202020202020202098
:104A3E00202072706D005B335D4672657175656E18
:104A4E00637920526566002020202020202020201F
:104A5E002020202020487A005B345D546F727175DF
:104A6E006520526566202020002020202020202056
:104A7E00202020202020204E6D005B355D504944C3
:104A8E00205265662020202020200020202020207B
:104A9E002020202020202020202025004D312044C1
:104AAE0072697665204D6F6E69746F72005B305D52
:104ABE004F502053746174757320202020005B309A
:104ACE005D4D4F544F522053706565642020005B3E
:104ADE00315D4F75747075742046726571202000BB
:104AEE005B325D4443204C696E6B202020202020D9
:104AFE00002020202020202020202020202056644E
:104B0E0063005B335D4D6F746F7220437572726517
:104B1E006E740020202020202020202020202041E4
:104B2E00726D73005B345D4F757470757420566FC3
:104B3E006C742020005B355D41637475616C20548C
:104B4E006F72717565005B365D546F72717565209D
:104B5E00437572722020002020202020202020204B
:104B6E0020202020202041005B375D466C75782088
:104B7E0043757272656E7420005B385D496E707598
:104B8E007420506F77657220200020202020202076
:104B9E0020202020202020206B57005B395D4F7590
:104BAE007470757420506F77657220005B31305DC4
:104BBE0050494420526566202020202000202020CD
:104BCE0020202020202020202020202020005B31AB
:104BDE00315D50494420466565646261636B005BDC
:104BEE0031325D504944204572726F722020200090
:104BFE005B31335D54656D70657261757265202031
:104C0E0000202020202020202020202020202027AF
:104C1E0043005B315D5465726D696E616C20492F86
:104C2E004F20005B305D44495B382E2E2E2E2E2EEB
:104C3E00315D20005B315D444F5B332E315D2020B2
:104C4E0020202020005B325D416E616C6F67204931
:104C5E006E6F7574310020202020202020202056D9
:104C6E00206F72206D41005B335D416E616C6F672A
:104C7E0020496E6F757432005B345D416E616C6FEE
:104C8E0067204F757470757400202020202020201E
:104C9E00202020202020206D41005B325D4472696F
:104CAE00766520496E666F202020005B305D4D4F8B
:104CBE00544F522053656C20202020005B315D4301
:104CCE0074726C204D6574686F642020005B325DD9
:104CDE0052554E2F53544F502053726320005B3366
:104CEE005D526566204D6574686F64202020005B00
:104CFE00345D447269766520506F776572202000AE
:104D0E005B355D447269766520566F6C74616765BC
:104D1E0000202020202020202020202020202020A5
:104D2E0056005B365D4F7074696F6E20436172641E
:104D3E002020005B375D536F667477617265205675
:104D4E0065722E005B385D536F66747761726520F5
:104D5E004F707420004D3220506172616D65746524
:104D6E007220456474004D33204175746F20547564
:104D7E006E696E672020004D34204661756C74207C
:104D8E005265636F726420004D3520496E697469F7
:104D9E00616C697A65202020004D36205061737356
:104DAE00776F7264202020202000202020202020D9
:104DBE00202044657369676E656400206279205017
:0C4DCE0061756C204248205061726B003F
:00000001FF
