:100000000C94F31A0C94141B0C94141B0C94141BD6
:100010000C94141B0C94141B0C94141B0C94141BA4
:100020000C94141B0C94141B0C94141B0C94141B94
:100030000C94141B0C94141B0C94141B0C94141B84
:100040000C94141B0C94231C0C94141B0C94141B64
:100050000C94141B0C94141B0C94141B0C94141B64
:100060000C94141B0D941A550C94141B0D942F57BB
:100070000C94141B0C94141B0C94141B0C94141B44
:100080000C94141B0C94141B0C94141B0C94141B34
:100090000C94141B0C94141B0C94141B0C94141B24
:1000A0000C94141B0C94141B0C94141B0C94141B14
:1000B0000C94141B0C94141B0C94141B0C94141B04
:1000C0000C94141B0C94141B0C94141B0C94141BF4
:1000D0000C94141B0C94141B0C94141B0C94141BE4
:1000E0000C94141B2020204D61696E20204D656EFC
:1000F00075202020004D30204F7065726174696F4B
:100100006E20202020004D31204472697665204DFC
:100110006F6E69746F72004D3220506172616D654F
:1001200074657220456474004D33204175746F20EE
:1001300054756E696E672020004D34204661756CE1
:1001400074205265636F726420004D3520496E69DA
:100150007469616C697A65202020004D36205061F9
:100160007373776F72642020202020002030204C91
:100170006F63616C5F52656D6F74200000203120E9
:10018000446972204368616E676520200000203258
:10019000205370656564205265662E202000002083
:1001A00033204672657165205265662E202000005E
:1001B000203420546F72717565205265662E2000C0
:1001C00000203520504944205265662E20202020F2
:1001D00000002030204F70722053746174757320BA
:1001E0002020002031205465726D696E616C2049B9
:1001F0004F202000203220447269766520496E66C7
:100200006F726D20002030204D6F746F722053701C
:100210006565642020002031204F7574707574204E
:100220004672657120200020322044435F4C696E85
:100230006B205674672020002033204D6F746F723E
:1002400020437572726E7420002034204F757470D4
:100250007574205674672020200020352041637477
:1002600075616C2054727120202000203620546F5C
:1002700072717520437572726E74200020372046AB
:100280006C75782043757272656E7420002038207A
:10029000496E70757420506F776572202000203988
:1002A000204F757470757420506F7765722000311F
:1002B0003020504944205265666572656E63650062
:1002C00031312050494420466565644261636B20AA
:1002D0000020313220504944204572726F72202034
:1002E00020002031332054656D7065726174757221
:1002F00065200020302044495B382E2E2E2E2E2ED5
:10030000315D2000203120444F5B332E315D2020B1
:1003100020202020003220416E616C6F6720496EE2
:100320007075743120003320416E616C6F67204915
:100330006E7075743220003420416E616C6F6720DE
:100340004F757470757420002030204D6F746F727B
:100350002053656C20202020003120436F6E747282
:100360006F6C204D6574686F640020322052554ECA
:100370002F53544F50205372632000203320526576
:1003800066204D6574686F6420202000203420446E
:100390007269766520506F776572202000203520C5
:1003A000447269766520566F6C7461672000203650
:1003B000204F7074696F6E204361726420200020AA
:1003C0003720536F6674776172652056657220001E
:1003D000203820536F667477617265204F707420E7
:1003E0000020302050726F6772616D204374726C10
:1003F000200031204374726C2053657475705B4D1E
:10040000315D0032204374726C2053657475705BEB
:100410004D325D0033205265662053657475705B04
:100420004D315D200034205265662053657475702F
:100430005B4D325D200020352050726F746563740F
:10044000696F6E20202000203620416E616C6F673E
:1004500020496E7075742000203720504944204395
:100460006F6E74726F6C2020003820446967697465
:10047000616C20496E70757420003920204D756CB8
:100480007469537465705B4D315D003130204D757A
:100490006C7469537465705B4D325D00313120417D
:1004A0006E616C6F67204F75747075740031322007
:1004B0004469676974616C4F757470757400313389
:1004C000204D6F746F72204272616B652020003185
:1004D00034204175746F2054756E696E672020005A
:1004E000313520562F46204374726C5B4D315D20B0
:1004F00000313620562F46204374726C5B4D325DBE
:100500002000313720534C20566563746F725B4D69
:10051000315D00313820534C20566563746F725B37
:100520004D325D0020313920566563746F725B4D2A
:10053000315D20200020323020566563746F725B7D
:100540004D325D202000203231204D3120436F6E2E
:100550007374616E742000203232204D3220436F5C
:100560006E7374616E742000323320436F6D6D20A2
:10057000436F6E74726F6C20003234204D6F6E6961
:10058000746F722053657475700050302E3020499E
:100590006E692E20466C616720200050302E31207D
:1005A00050726F672E4B65792031200050302E320B
:1005B0002050726F672E4B65792032200050302E0C
:1005C000332050726F672E4B6579203320005030F6
:1005D0002E342050574420284C3129202020005010
:1005E000302E352050574420284C3229202020001E
:1005F00050302E362050574420284C3329202020BC
:100600000050302E372050574420284C34292020C9
:10061000200050302E382050574420284C352920B7
:1006200020200050302E392050726F675F4B657963
:100630002034200050302E31302050726F675F4BD5
:10064000657920350050302E31312050726F675F50
:100650004B657920360050302E3132205061726C5B
:100660006E695F4B65790050302E313320566F6CC8
:10067000745F436C6173200050302E313420467219
:1006800065715F436C6173730050302E31352054B7
:100690006865726D616C4D6F6E0050312E30204D6B
:1006A000315F5274645F507772200050312E3120D8
:1006B0004D315F5274645F566F6C740050312E324E
:1006C000204D315F5274645F437572720050312E59
:1006D00033204D315F5274645F4672657100503152
:1006E0002E34204D315F506F6C652020202000504B
:1006F000312E35204D315F5274645F537064200099
:1007000050312E36204D315F436F6E74726F6C2006
:100710000050312E37204D315F50574D5F66726566
:10072000710050312E38204D315F41545F50574D8C
:100730005F660050312E3920537570706C795F56AA
:100740006F6C740050322E30204D325F5274645FF3
:10075000507772200050322E31204D325F52746437
:100760005F566F6C740050322E32204D325F5274DF
:10077000645F437572720050322E33204D325F52E7
:1007800074645F467265710050322E34204D325FC2
:10079000506F6C65202020200050322E35204D32C5
:1007A0005F5274645F537064200050322E36204DC7
:1007B000325F436F6E74726F6C200050322E3720A0
:1007C0004D325F50574D5F667265710050322E3862
:1007D000204D325F41545F50574D5F660050322EBE
:1007E0003920537570706C795F566F6C740050339C
:1007F0002E302052554E2F53544F50202020005061
:10080000332E312052616D705F496E707574200017
:1008100050332E322053544F502044657465637416
:100820000050332E332053544F50204D6F646520B9
:10083000200050332E342053746F70486F6C645F07
:10084000546D0050332E35204F75745F4F66665FD0
:10085000546D200050332E36204F75745F4F6666FE
:100860005F5265660050332E37204163632F446525
:10087000635F456E200050332E3820416363546D12
:100880005F52616E67650050332E392041636353B8
:100890007720312D3220200050332E31302041631B
:1008A00063537720322D33200050332E31312041D5
:1008B0006363537720332D34200050332E313220A0
:1008C000416363537720342D35200050332E31336C
:1008D00020416363537720352D36200050332E316D
:1008E0003420416363537720362D37200050332E58
:1008F000313520416363537720372D382000503342
:100900002E3136204163635F546D20492E310050F3
:10091000332E3137204163635F546D20492E3200FE
:1009200050332E3138204163635F546D20492E339C
:100930000050332E3139204163635F546D20492EBE
:10094000340050332E3230204163635F546D2049B0
:100950002E350050332E3231204163635F546D20B9
:10096000492E360050332E3232204163635F546D7E
:1009700020492E370050332E3233204163635F54B9
:100980006D20492E380050332E3234204163635F8E
:10099000546D204949200050332E32352044656380
:1009A000546D5F526E67200050332E3236204465FE
:1009B00063537720312D32200050332E32372044BC
:1009C0006563537720322D33200050332E32382088
:1009D000446563537720332D34200050332E323951
:1009E00020446563537720342D35200050332E3357
:1009F0003020446563537720352D36200050332E48
:100A0000333120446563537720362D37200050332F
:100A10002E333220446563537720372D3820005021
:100A2000332E3333204465635F546D20492E3100EB
:100A300050332E3334204465635F546D20492E3289
:100A40000050332E3335204465635F546D20492EAA
:100A5000330050332E3336204465635F546D204994
:100A60002E340050332E3337204465635F546D209D
:100A7000492E350050332E3338204465635F546D62
:100A800020492E360050332E3339204465635F549D
:100A90006D20492E370050332E3430204465635F7B
:100AA000546D20492E380050332E34312044656374
:100AB0005F546D204949200050332E343220435F6B
:100AC000446563656C5F456E0050332E34332043BC
:100AD0005F446563656C5F546D0050332E34342081
:100AE000532D43757276655F456E0050332E343555
:100AF00020532D4372764163635F530050332E348D
:100B00003620532D4372764163635F450050332E88
:100B1000343720532D4372764465635F530050335E
:100B20002E343820532D4372764465635F45005060
:100B3000332E34392045535F4D6F646520202000EB
:100B400050332E35302045535F44656354696D65DD
:100B50000050332E353120434F4E54494E555F4F90
:100B6000500050332E3532205265765F4449525F33
:100B7000456E0050342E302052554E2F53544F5056
:100B80002020200050342E312052616D705F496E5C
:100B9000707574200050342E322053544F5020442E
:100BA00065746563740050342E332053544F5020C5
:100BB0004D6F646520200050342E342053746F70C4
:100BC000486F6C645F546D0050342E35204F75743F
:100BD0005F4F66665F546D200050342E36204F758F
:100BE000745F4F66665F5265660050342E37204151
:100BF00063632F4465635F456E200050342E3820B8
:100C0000416363546D5F52616E67650050342E39E5
:100C100020416363537720312D3220200050342E41
:100C2000313020416363537720322D33200050341C
:100C30002E313120416363537720332D342000500F
:100C4000342E313220416363537720342D35200018
:100C500050342E313320416363537720352D3620B5
:100C60000050342E313420416363537720362D37C2
:100C7000200050342E313520416363537720372DC7
:100C800038200050342E3136204163635F546D208C
:100C9000492E310050342E3137204163635F546D4B
:100CA00020492E320050342E3138204163635F5486
:100CB0006D20492E330050342E3139204163635F5B
:100CC000546D20492E340050342E3230204163635D
:100CD0005F546D20492E350050342E32312041634F
:100CE000635F546D20492E360050342E323220413D
:100CF00063635F546D20492E370050342E32332009
:100D00004163635F546D20492E380050342E3234D5
:100D1000204163635F546D204949200050342E32D6
:100D20003520446563546D5F526E67200050342E49
:100D3000323620446563537720312D322000503401
:100D40002E323720446563537720322D33200050F4
:100D5000342E323820446563537720332D342000FD
:100D600050342E323920446563537720342D35209A
:100D70000050342E333020446563537720352D36B0
:100D8000200050342E333120446563537720362DB4
:100D900037200050342E3332204465635377203798
:100DA0002D38200050342E3333204465635F546D5A
:100DB00020492E310050342E3334204465635F5473
:100DC0006D20492E320050342E3335204465635F48
:100DD000546D20492E330050342E33362044656341
:100DE0005F546D20492E340050342E333720446533
:100DF000635F546D20492E350050342E3338204423
:100E000065635F546D20492E360050342E333920EF
:100E10004465635F546D20492E370050342E3430C2
:100E2000204465635F546D20492E380050342E34C1
:100E300031204465635F546D204949200050342EB1
:100E4000343220435F446563656C5F456E00503407
:100E50002E343320435F446563656C5F546D0050EE
:100E6000342E343420532D43757276655F456E0001
:100E700050342E343520532D4372764163635F53D3
:100E80000050342E343620532D4372764163635F15
:100E9000450050342E343720532D43727644656319
:100EA0005F530050342E343820532D4372764465FE
:100EB000635F450050342E34392045535F4D6F64D5
:100EC000652020200050342E35302045535F446586
:100ED0006354696D650050342E353120434F4E54B4
:100EE000494E555F4F500050342E353220526576B2
:100EF0005F4449525F456E0050352E3020495F4CAB
:100F0000696D69745B4D315D0050352E3120495F4C
:100F10004C696D69745B4D325D0050352E32205244
:100F2000657365727665642020200050352E33206D
:100F30004F4C3320526566202020200050352E343F
:100F4000204F4C332054696D652020200050352EF1
:100F500035204F4C3220526566202020200050352D
:100F60002E36204F4C322054696D652020200050D1
:100F7000352E37204D6178436F6E5F437572720076
:100F800050352E38204F7665725F4C6F616420209B
:100F90000050352E39204F4C5F54696D654F766592
:100FA000720050352E3130204F4C5F416374696FB1
:100FB0006E200050352E3131204F435F54726970DE
:100FC0005F4D310050352E3132205A435F547269E3
:100FD000702020200050352E3133204F565F4C7446
:100FE000645F466E200050352E3134204F56204C21
:100FF000696D697420200050352E3135204F562000
:10100000547269702020200050352E3136205556FC
:101010005F436F6D705F466E0050352E313720553F
:10102000565F436F6D705F56200050352E3138206B
:1010300055565F547269702020200050352E31398A
:10104000204F505F50685F547269700050352E32E7
:101050003020496E7075745F467265710050352E90
:10106000323120426C742D696E5F4442200050354D
:101070002E32322044425F4672657120202000509B
:10108000352E32332044425F53746172745F5600D0
:1010900050352E32342044425F46756C6C5F5620CA
:1010A0000050352E3235204F545F416374696F6EA6
:1010B000200050352E323620484F565F50726F74E4
:1010C00065630050352E323720484F435F50726FB2
:1010D0007465630050352E323820485A435F507291
:1010E0006F7465630050352E3239204472765F4F3D
:1010F0004C5F466E200050352E333020526573749D
:10110000617274436E740050352E33312052657411
:1011100072795F446C79200050352E333220412E95
:101120005273745F4F4320200050352E33332041DB
:101130002E5273745F4F5620200050352E333420CA
:10114000412E5273745F555620200050352E333592
:1011500020412E5273745F484F56200050352E3375
:101160003620412E5273745F484F43200050352E75
:10117000333720412E5273745F436E4572005035F1
:101180002E3338204374726C4572725F546D005078
:10119000352E3339204374726C5F4572725F49009B
:1011A00050352E3430204F7665725F54656D702057
:1011B0000050352E3431204F435F547269705F4DBB
:1011C000320050352E3432204C6E5F555620202090
:1011D00020200050352E3433205273745F4C6E5FE4
:1011E0005556200050352E3434205273745F4C6EA7
:1011F0005F5542200050362E302041495F526566CF
:101200005F537263200050362E3120414931204611
:10121000756E632E20200050362E32204149312039
:10122000547970652020200050362E3320414931FA
:101230002046696C746572200050362E3420414976
:101240003120546D5F437420200050362E352041EC
:101250004931204F6666736574200050362E362063
:10126000414931204D696E5F5620200050362E379F
:1012700020414931204D696E5F6D41200050362E6E
:101280003820414931204D696E2E202020005036F3
:101290002E3920414931204D61785F562020005081
:1012A000362E313020414931204D785F6D4120008C
:1012B00050362E313120414931204D61782E202089
:1012C0000050362E31322041493120496E762E2091
:1012D000200050362E31332041493120445F537471
:1012E00065700050362E313420414931204465610B
:1012F000642D5A0050362E31352041493220467532
:101300006E632E200050362E313620414932205453
:1013100079706520200050362E3137204149322027
:1013200046696C7465720050362E3138204149325E
:1013300020546D5F4374200050362E3139204149CE
:1013400032204F66667365740050362E323020416D
:101350004932204D696E5F56200050362E323120C2
:10136000414932204D696E5F6D410050362E323258
:1013700020414932204D696E2E20200050362E32F9
:101380003320414932204D61785F56200050362E7F
:10139000323420414932204D785F6D412000503673
:1013A0002E323520414932204D61782E20200050C8
:1013B000362E32362041493220496E762E202000CA
:1013C00050362E32372041493220445F53746570C5
:1013D0000050362E32382041493220446561642D58
:1013E0005A0050362E3239204149332046756E63FB
:1013F0002E200050362E333020414933205479704E
:101400006520200050362E33312041493320466973
:101410006C7465720050362E3332204149332054AB
:101420006D5F4374200050362E3333204149332002
:101430004F66667365740050362E3334204149334D
:10144000204D696E5F56200050362E3335204149BD
:1014500033204D696E5F6D410050362E333620418A
:101460004933204D696E2E20200050362E33372010
:10147000414933204D61785F56200050362E333875
:1014800020414933204D785F6D41200050362E3386
:101490003920414933204D61782E20200050362ECE
:1014A00034302041493320496E762E2020005036BA
:1014B0002E34312041493320445F5374657000500D
:1014C000362E34322041493320446561642D5A0060
:1014D00050362E3433204149342046756E632E2019
:1014E0000050362E34342041493420547970652020
:1014F000200050362E3435204149342046696C7422
:1015000065720050362E34362041493420546D5FC8
:101510004374200050362E343720414934204F6622
:10152000667365740050362E343820414934204D9E
:10153000696E5F56200050362E34392041493420E0
:101540004D696E5F6D410050362E35302041493473
:10155000204D696E2E20200050362E353120414915
:1015600034204D61785F56200050362E35322041B0
:101570004934204D785F6D41200050362E353320A0
:10158000414934204D61782E20200050362E3534CC
:101590002041493420496E762E20200050362E35C9
:1015A000352041493420445F537465700050362E15
:1015B00035362041493420446561642D5A00503647
:1015C0002E3537204149352046756E632E20005058
:1015D000362E353820414935205479706520200059
:1015E00050362E3539204149352046696C74657274
:1015F0000050362E36302041493520546D5F4374FB
:10160000200050362E363120414935204F66667312
:1016100065740050362E363220414935204D696EB2
:101620005F56200050362E363320414935204D6913
:101630006E5F6D410050362E363420414935204DC5
:10164000696E2E20200050362E3635204149352037
:101650004D61785F56200050362E36362041493590
:10166000204D785F6D41200050362E36372041499D
:1016700035204D61782E20200050362E36382041FE
:10168000493520496E762E20200050362E363920DE
:1016900041493520445F537465700050362E373011
:1016A0002041493520446561642D5A0050372E3061
:1016B000205049445F4D6F64652020200050372E34
:1016C00031205265666572656E6365202000503773
:1016D0002E322046697865645F53657450740050FB
:1016E000372E3320466565646261636B20202000DD
:1016F00050372E34205245465F53676E5F4E656704
:101700000050372E352046425F53676E5F4E656747
:10171000200050372E3620436E746C20506572695D
:101720006F640050372E3720502D4761696E20209E
:101730002020200050372E3820496E7465675F5492
:10174000696D65200050372E3920446966665F5404
:10175000696D6520200050372E31302046462D47D8
:1017600061696E2020200050372E3131205A4552B9
:101770004F5F41646A20310050372E313220502DA6
:101780004761696E203220200050372E31332049C6
:101790006E745F54696D6520320050372E313420ED
:1017A0004469665F54696D6520320050372E3135CB
:1017B0002046462D4761696E2032200050372E3179
:1017C00036205A45524F5F41646A20320050372E0E
:1017D0003137204F75747075745F494E560050371D
:1017E0002E313820496E745F4C6F5F4C6D74005021
:1017F000372E313920496E745F55705F4C6D74001F
:1018000050372E3230204F75745F4C6F5F4C6D74C3
:101810000050372E3231204F75745F55705F4C6D1C
:10182000740050372E3232204F75745F5363616CF1
:1018300065200050372E323320496E745F53745F39
:1018400056616C0050372E3234204175746F5F52F0
:101850004E5F53540050372E3235204175746F530C
:10186000745F446C790050372E3236204175746FA6
:1018700053745F4572720050372E323720526566BE
:101880005F466E5F5372630050372E3238204662D7
:101890006B5F466E5F5372630050382E3020525596
:1018A0004E2F53544F502020200050382E312044CA
:1018B000492E332046756E632E200050382E32207C
:1018C00044492E342046756E632E200050382E3346
:1018D0002044492E352046756E632E200050382E48
:1018E000342044492E362046756E632E2000503831
:1018F0002E352044492E372046756E632E20005029
:10190000382E362044492E382046756E632E20002E
:1019100050382E372044492E392046756E632E20CC
:101920000050382E382044492E31302046756E63E1
:101930002E0050382E392044492E31312046756E04
:10194000632E0050382E31302044492E313220464B
:10195000756E630050382E31312044492E313320CA
:1019600046756E630050382E31322044492E313492
:101970002046756E630050382E31332044492E3195
:10198000352046756E630050382E31342044492E80
:1019900031362046756E630050382E3135204D2E7D
:1019A000432E20426C616E6B0050382E313620522F
:1019B00065665F55502F444E200050382E31372039
:1019C000466C795F5354415254200050382E3138C0
:1019D0002052554E5F44656C6179200050382E319D
:1019E0003920496E6368696E675F546D0050392E07
:1019F00030204A4F475F536574507420200050399F
:101A00002E3120537465702031202020202000507A
:101A1000392E32205374657020322020202020007F
:101A200050392E332053746570203320202020201D
:101A30000050392E3420537465702034202020202B
:101A4000200050392E352053746570203520202019
:101A500020200050392E3620537465702036202007
:101A60002020200050392E372053746570203720F5
:101A7000202020200050392E3820537465702038E3
:101A800020202020200050392E39205374657020EA
:101A90003920202020200050392E31302053746509
:101AA000702031302020200050392E3131205374E5
:101AB00065702031312020200050392E31322053E2
:101AC0007465702031322020200050392E313320AF
:101AD000537465702031332020200050392E31346A
:101AE00020537465702031342020200050392E316D
:101AF0003520537465702031352020200050392E58
:101B0000313620556E69745B252F487A5D0050315F
:101B1000302E30204A4F475F536574507420005078
:101B200031302E3120537465702031202020200068
:101B30005031302E32205374657020322020202006
:101B4000005031302E332053746570203320202014
:101B500020005031302E3420537465702034202002
:101B60002020005031302E352053746570203520F0
:101B7000202020005031302E3620537465702036DE
:101B800020202020005031302E37205374657020E3
:101B90003720202020005031302E382053746570BB
:101BA000203820202020005031302E3920537465F9
:101BB00070203920202020005031302E3130205329
:101BC0007465702031302020005031302E313120AA
:101BD000537465702031312020005031302E313265
:101BE00020537465702031322020005031302E3166
:101BF0003320537465702031332020005031302E53
:101C0000313420537465702031342020005031303D
:101C10002E3135205374657020313520200050312D
:101C2000302E313620556E69745F53656C2000503C
:101C300031312E3020414F31204F75747075740052
:101C40005031312E3120414F3120547970652020A0
:101C5000005031312E3220414F3120305F41646AD3
:101C600020005031312E3320414F3120345F416408
:101C70006A20005031312E3420414F312032305F04
:101C800041646A005031312E3520414F3120536379
:101C9000616C6520005031312E3620414F31204992
:101CA0006E762E2020005031322E3020444F2E31BF
:101CB0002046756E6320005031322E3120444F2E65
:101CC000322046756E6320005031322E3220444F50
:101CD0002E332046756E6320005031322E3320445F
:101CE0004F2E342046756E6320005031322E342042
:101CF000444F2E352046756E6320005031322E350C
:101D000020444F2E362046756E6320005031322E0F
:101D10003620444F2E372046756E632000503132F6
:101D20002E3720444F2E382046756E6320005031E8
:101D3000332E302042315F4F505F52656655005060
:101D400031332E312042315F4F505F52656644007F
:101D50005031332E322042315F4F505F49202020D6
:101D6000005031332E332042315F4F505F54696D44
:101D700065005031332E342042315F434C5F537045
:101D80006420005031332E352042315F5472715F30
:101D9000546D20005031332E362042325F4F505F59
:101DA00052656655005031332E372042325F4F5016
:101DB0005F52656644005031332E382042325F4F07
:101DC000505F49202020005031332E392042325FAD
:101DD0004F505F54696D65005031332E31302042D1
:101DE000325F434C5F537064005031332E313120E9
:101DF00042325F5472715F546D005031342E302086
:101E000054756E696E675F436F6E005031342E31CA
:101E10002045786369745F536C6970005031342ECB
:101E2000322054756E655F5370645F4C00503134DE
:101E30002E332054756E655F5370645F48005031D7
:101E4000342E34204846495F467265712020005088
:101E500031342E35204846495F4375727220200088
:101E60005031342E36204578635F53744375727257
:101E7000005031342E372045786369745F466C75A5
:101E800078005031342E382045786369745F46728B
:101E90006571005031352E30205472715F436F6D83
:101EA000702020005031352E31204D696E5F467212
:101EB00065712020005031352E32204D61785F460B
:101EC0007265712020005031352E3320466C7578B4
:101ED0005F4F75745F49005031352E342054727154
:101EE0005F4F75745F546D005031352E352053703F
:101EF000645F4465745F546D005031352E36205652
:101F00002F4620437572766520005031352E3720DC
:101F10005A725F467265715F5620005031352E3817
:101F2000204D69645F467265712020005031352E66
:101F300039204D69645F467265715F5600503135D6
:101F40002E3130204D61785F565F467271005031FE
:101F5000352E3131204D61785F566F6C7420005002
:101F600031352E3132204D61785F565F4C746400FC
:101F70005031352E31332066665F565F436F6D708A
:101F8000005031352E31342053715F4372765F56E5
:101F900020005031352E31352053745F42726B5F13
:101FA000546D005031352E31362053745F42726BC0
:101FB0005F4220005031352E31372053745F42721A
:101FC0006B5F4920005031352E31382053705F420D
:101FD000726B5F546D005031352E31392053705F74
:101FE00042726B5F4220005031352E3230205370E8
:101FF0005F42726B5F4968005031352E3231205399
:10200000705F42726B5F4973005031352E3232205F
:10201000434320502D4761696E005031352E3233D5
:1020200020434320492D4761696E005031352E32DF
:102030003420537462545F436F6E73005031352EF9
:102040003235205374625F4761696E20005031352C
:102050002E3236205374625F4C696D6974005031C2
:10206000352E323720556E6974795F495F660050AE
:1020700031352E3238204163635F4F435F476E0036
:102080005031362E30205472715F436F6D702020B6
:10209000005031362E31204D696E5F4672657120D9
:1020A00020005031362E32204D61785F46726571C6
:1020B0002020005031362E3320466C75785F4F75E6
:1020C000745F49005031362E34205472715F4F7561
:1020D000745F546D005031362E35205370645F4468
:1020E00065745F546D005031362E3620562F4620D1
:1020F000437572766520005031362E37205A725F54
:10210000467265715F5620005031362E38204D6979
:10211000645F467265712020005031362E39204DA3
:1021200069645F467265715F56005031362E3130FA
:10213000204D61785F565F467271005031362E3106
:1021400031204D61785F566F6C7420005031362E0F
:102150003132204D61785F565F4C746400503136E7
:102160002E31332066665F565F436F6D70005031CD
:10217000362E31342053715F4372765F5620005003
:1021800031362E31352053745F42726B5F546D00CF
:102190005031362E31362053745F42726B5F4220CD
:1021A000005031362E31372053745F42726B5F49D5
:1021B00020005031362E31382053705F42726B5FF1
:1021C000546D005031362E31392053705F42726B9E
:1021D0005F4220005031362E32302053705F427201
:1021E0006B5F4968005031362E32312053705F42A8
:1021F000726B5F4973005031362E323220434320D8
:10220000502D4761696E005031362E3233204343E2
:1022100020492D4761696E005031362E32342053EB
:102220007462545F436F6E73005031362E32352026
:102230005374625F4761696E20005031362E32362A
:10224000205374625F4C696D6974005031362E32D0
:102250003720556E6974795F495F66005031362EBC
:102260003238204163635F4F435F476E0050313720
:102270002E30205370645F44745F546D20005031E1
:10228000372E31204D696E2E2053706565640050E5
:1022900031372E32204D61782E20537065656400F1
:1022A0005031372E33204F535F4C696D69742020B5
:1022B000005031372E34205273765F303420202086
:1022C00020005031372E352053746172745F466C94
:1022D0007578005031372E36204261736520466C88
:1022E000757820005031372E372053465F456E6495
:1022F0005F537064005031372E382042465F53746C
:102300005F53706420005031372E392046575F5696
:102310006F6C74616765005031372E31302046573D
:102320005F546D5F436F6E005031372E3131204363
:102330004320502D4761696E005031372E313220D5
:10234000434320492D4761696E005031372E3133A8
:10235000204343205A65726F5F53005031372E314E
:1023600034205370645F4761696E20005031372E0E
:102370003135204C6F61645F436F6D7000503137B1
:102380002E3136204C435F546D5F436F6E005031E9
:10239000372E3137204C435F467265712020005044
:1023A00031372E313820534320502D4761696E005C
:1023B0005031372E313920534320492D4761696E02
:1023C000005031372E3230205343205A65726F5FF0
:1023D00053005031372E32312047616D5F6C616D93
:1023E0002020005031372E32322052735F41646119
:1023F0005F456E005031372E32332052735F416497
:10240000615F476E005031372E32342047616D5F77
:102410007468657461005031372E32352044656C24
:102420005F6C616D2020005031372E3236204465BC
:102430006C5F7468652020005031372E3237204C95
:102440006D5F4164615F456E005031372E32382038
:1024500053746172745F46476E005031372E3239C3
:10246000205A725F486F6C645F47005031372E33DB
:1024700030205A725F486F6C645F46005031372ECF
:1024800033312042726B5F466C75782000503137D3
:102490002E33322053435F475F41646A200050313E
:1024A000372E3333205472715F525F537263005082
:1024B00031372E3334205472715F4F735F53630092
:1024C0005031372E3335205472715F4C5F53726335
:1024D000005031372E3336205370645F4C696D697C
:1024E00074005031372E333720535F4C74645F4192
:1024F0006374005031372E333820535F4C74645F5F
:102500004F6666005031372E3339205370645F4C6C
:1025100074645F47005031372E3430205472715F3D
:10252000436F6D7020005031372E3431205472715A
:102530005F465F537263005031372E34322054436C
:102540005F505F4761696E005031372E343320543D
:10255000435F495F54696D65005031372E34342034
:1025600054435F4F75744C6D74005031372E3435C1
:10257000204163746976655F4C64005031372E34B6
:10258000362052735F41647074456E005031372EAF
:10259000343720556E6974795F495F660050313772
:1025A0002E343820496E65725F54727120005031AC
:1025B000372E343920496E65724469665F54005085
:1025C00031372E35302053706443746C5F422000E5
:1025D0005031372E35312043757243746C5F422081
:1025E000005031382E30205370645F44745F546D56
:1025F00020005031382E31204D696E2E20537065E9
:102600006564005031382E32204D61782E20537091
:10261000656564005031382E33204F535F4C696D2F
:1026200069742020005031382E34205273765F3088
:102630003420202020005031382E35205374617210
:10264000745F466C7578005031382E3620426173C5
:102650006520466C757820005031382E372053465F
:102660005F456E645F537064005031382E382042ED
:10267000465F53745F53706420005031382E392008
:1026800046575F566F6C74616765005031382E3164
:10269000302046575F546D5F436F6E005031382EC7
:1026A000313120434320502D4761696E005031384D
:1026B0002E313220434320492D4761696E0050314D
:1026C000382E3133204343205A65726F5F530050D8
:1026D00031382E3134205370645F4761696E2000B9
:1026E0005031382E3135204C6F61645F436F6D700F
:1026F000005031382E3136204C435F546D5F436FAC
:102700006E005031382E3137204C435F4672657170
:102710002020005031382E313820534320502D478F
:1027200061696E005031382E313920534320492DD4
:102730004761696E005031382E3230205343205AA1
:1027400065726F5F53005031382E32312047616D12
:102750005F6C616D2020005031382E323220527370
:102760005F4164615F456E005031382E3233205234
:10277000735F4164615F476E005031382E32342000
:1027800047616D5F7468657461005031382E323571
:102790002044656C5F6C616D2020005031382E3212
:1027A000362044656C5F7468652020005031382EF7
:1027B0003237204C6D5F4164615F456E00503138A7
:1027C0002E32382053746172745F46476E00503168
:1027D000382E3239205A725F486F6C645F47005060
:1027E00031382E3330205A725F486F6C645F460078
:1027F0005031382E33312042726B5F466C75782031
:10280000005031382E33322053435F475F41646AB2
:1028100020005031382E3333205472715F525F5391
:102820007263005031382E3334205472715F4F730D
:102830005F5363005031382E3335205472715F4C32
:102840005F537263005031382E3336205370645F0B
:102850004C696D6974005031382E333720535F4C0A
:1028600074645F416374005031382E333820535FF5
:102870004C74645F4F6666005031382E33392053F4
:1028800070645F4C74645F47005031382E343020E0
:102890005472715F436F6D7020005031382E3431A7
:1028A000205472715F465F537263005031382E348A
:1028B000322054435F505F4761696E005031382EBB
:1028C00034332054435F495F54696D65005031389B
:1028D0002E34342054435F4F75744C6D7400503166
:1028E000382E3435204163746976655F4C6400503E
:1028F00031382E34362052735F41647074456E0057
:102900005031382E343720556E6974795F495F66CF
:10291000005031382E343820496E65725F54727120
:1029200020005031382E343920496E657244696672
:102930005F54005031392E30204E5F50475F507544
:102940006C7365005031392E312050475F44495235
:102950005F496E76005031392E32205370645F44E7
:1029600065745F746D005031392E33204D696E5F90
:10297000537065656420005031392E34204D6178E4
:102980005F537065656420005031392E35204F53F8
:102990005F4C696D69742020005031392E36205209
:1029A00073765F303620202020005031392E3720BA
:1029B00053746172745F466C7578005031392E38EB
:1029C00020426173655F466C757820005031392E66
:1029D000392053465F455F537064202000503139E1
:1029E0002E31302042465F53745F53706400503183
:1029F000392E31312046575F566F6C7420200050BD
:102A000031392E31322046575F546D5F436F6E006F
:102A10005031392E313320434320502D4761696EA8
:102A2000005031392E313420434320492D4761690C
:102A30006E005031392E3135204343205A65726F74
:102A40005F53005031392E31362046435F502D47B9
:102A500061696E005031392E31372046435F492D70
:102A60004761696E005031392E3138204D78466902
:102A7000656C645F49005031392E313920537064E0
:102A80005F4761696E20005031392E3230204C6F23
:102A900061645F436F6D70005031392E3231204CCC
:102AA000435F546D5F436F6E005031392E323220D8
:102AB000534320502D4761696E005031392E323317
:102AC00020534320492D4761696E005031392E3221
:102AD00034205343205A65726F5F53005031392EB2
:102AE00032352053435F475F41646A2000503139DB
:102AF0002E3236205472715F525F53726300503130
:102B0000392E3237205472715F4F735F5363005018
:102B100031392E3238205472715F4C5F537263002A
:102B20005031392E3239205370645F4C696D6974AD
:102B3000005031392E333020535F4C74645F416351
:102B400074005031392E333120535F4C74645F4F21
:102B50006666005031392E3332205370645F4C74F6
:102B6000645F47005031392E3333205472715F4314
:102B70006F6D7020005031392E3334205472715FE4
:102B8000465F537263005031392E33352054435F12
:102B9000505F4761696E005031392E3336205443FF
:102BA0005F495F54696D65005031392E33372054C9
:102BB000435F4F75744C6D74005031392E3338209B
:102BC000496E65725F54727120005031392E33396D
:102BD00020496E65724469665F54005031392E3465
:102BE0003020416461705F4374726C005031392E43
:102BF00034312041646170745F537064005032302E
:102C00002E30204E5F50475F50756C736500503218
:102C1000302E312050475F4449525F496E76005054
:102C200032302E32205370645F4465745F746D00DF
:102C30005032302E33204D696E5F537065656420CD
:102C4000005032302E34204D61785F5370656564DA
:102C500020005032302E35204F535F4C696D69741F
:102C60002020005032302E36205273765F303620CE
:102C7000202020005032302E372053746172745F50
:102C8000466C7578005032302E3820426173655F93
:102C9000466C757820005032302E392053465F45FF
:102CA0005F5370642020005032302E313020424675
:102CB0005F53745F537064005032302E31312046C0
:102CC000575F566F6C742020005032302E31322006
:102CD00046575F546D5F436F6E005032302E313374
:102CE00020434320502D4761696E005032302E3111
:102CF0003420434320492D4761696E005032302E05
:102D00003135204343205A65726F5F530050323093
:102D10002E31362046435F502D4761696E00503298
:102D2000302E31372046435F492D4761696E005090
:102D300032302E3138204D784669656C645F490029
:102D40005032302E3139205370645F4761696E20F4
:102D5000005032302E3230204C6F61645F436F6D13
:102D600070005032302E3231204C435F546D5F433F
:102D70006F6E005032302E323220534320502D4798
:102D800061696E005032302E323320534320492D7A
:102D90004761696E005032302E3234205343205A3E
:102DA00065726F5F53005032302E32352053435FCF
:102DB000475F41646A20005032302E323620547210
:102DC000715F525F537263005032302E323720549D
:102DD00072715F4F735F5363005032302E32382070
:102DE0005472715F4C5F537263005032302E32392F
:102DF000205370645F4C696D6974005032302E331B
:102E00003020535F4C74645F416374005032302E45
:102E1000333120535F4C74645F4F6666005032302C
:102E20002E3332205370645F4C74645F470050321D
:102E3000302E3333205472715F436F6D7020005019
:102E400032302E3334205472715F465F5372630008
:102E50005032302E33352054435F505F4761696EE6
:102E6000005032302E33362054435F495F54696D31
:102E700065005032302E33372054435F4F75744C09
:102E80006D74005032302E333820496E65725F54B5
:102E9000727120005032302E333920496E657244F1
:102EA00069665F54005032302E34302041646170C6
:102EB0005F4374726C005032302E343120416461B3
:102EC00070745F537064005032312E30205072693C
:102ED0005F526573203020005032312E3120507205
:102EE000695F526573203120005032312E322053F9
:102EF00065635F526573202020005032312E3320ED
:102F0000537461746F725F496E64005032312E34B5
:102F100020526F746F725F496E6420005032312E00
:102F200035204C6B675F496E6420202000503231A1
:102F30002E3620496E65727469615F546D0050329F
:102F4000312E372049726F6E5F4C6F7373200050C3
:102F500032312E38204269735F44616D7020200049
:102F60005032312E3920537461746F7220522020F8
:102F7000005032312E313020445F61786973204C2B
:102F800020005032312E313120515F617869732039
:102F90004C20005032312E3132204261636B20458B
:102FA0004D4620005032312E313320496E74657207
:102FB00069612020005032312E313420467269631D
:102FC00074696F6E20005032312E313520426173AA
:102FD000655F53706420005032322E302050726989
:102FE0005F526573203020005032322E31205072F3
:102FF000695F526573203120005032322E322053E7
:1030000065635F526573202020005032322E3320DA
:10301000537461746F725F496E64005032322E34A3
:1030200020526F746F725F496E6420005032322EEE
:1030300035204C6B675F496E64202020005032328F
:103040002E3620496E65727469615F546D0050328E
:10305000322E372049726F6E5F4C6F7373200050B1
:1030600032322E38204269735F44616D7020200037
:103070005032332E3020446561645F54696D6520A1
:10308000005032332E31204C696E5F526174696F8B
:1030900020005032332E3220565F53656E735F53DB
:1030A000636C005032332E3320495F5363616C658B
:1030B0005F4120005032332E3420495F5363616CEE
:1030C000655F4220005032332E3520495F536361E3
:1030D0006C655F4320005032332E3620495F4F66C7
:1030E00066735F413120005032332E3720495F4FE5
:1030F0006666735F423120005032332E3820495FBC
:103100004F6666735F433120005032332E392049B9
:103110005F4F6666735F413220005032332E31308C
:1031200020495F4F6666735F4232005032332E3162
:103130003120495F4F6666735F433200302044722E
:103140006976655F43616C69627261200031204D70
:103150006F746F722054756E696E67202000322084
:1031600053706565642054756E696E672020002079
:1031700050726F63657373696E672E2E2E20200068
:1031800020436F6D706C657465642E2E2E202000B8
:103190000020202030205265636F7264283029207F
:1031A000200020202031205265636F72642831296D
:1031B00020200020202032205265636F7264283264
:1031C0002920200020202033205265636F7264285C
:1031D000332920200020202034205265636F726440
:1031E00028342920200020202035205265636F726A
:1031F0006428352920200020202036205265636F66
:103200007264283629202000202020372052656350
:103210006F72642837292020002020203820526532
:10322000636F72642838292020000000000000002D
:1032300000000000000000000000005B25642E314B
:103240005D4661756C7420436F646520005B256486
:103250002E325D4D6F746F722053656C2020005BC1
:1032600025642E335D4374726C204D746864202095
:10327000005B25642E345D537065656420434D44C6
:103280002020005B25642E355D4D6F746F722053D6
:1032900070642020005B25642E365D467265717572
:1032A000656E63792020005B25642E375D54656D63
:1032B0007020202020202020005B25642E385D41D6
:1032C00063746C20546F72717565005B25642E39D0
:1032D0005D4443204C696E6B20562020005B2564C2
:1032E0002E31305D4D6F746F722043757272005BCA
:1032F00025642E31315D4D6F746F7220566F6C7482
:10330000005B305D436C72204661756C744C697370
:1033100074202020205B315D53797374656D2052D9
:103320006573657420000000005B325D506172615E
:103330006D657465722020202000000000526573C6
:1033400065742D3E5B456E7465725D200000000063
:10335000002020436F6D706C6574652E2E2E20202A
:103360002000000000496E697469616C697A696EB9
:10337000672E2E2E0000000000455252205B576140
:10338000726E696E675D0000000000000057313307
:103390002044726976652043616C2E0000000000B5
:1033A000005B305D4163636573733D4C2564202091
:1033B00020200000005B315D41646D697373696FAB
:1033C0006E20202020000000005B325D50776420DA
:1033D0004368616E676520202000000000202045C2
:1033E0006E7465723A202564256425642564202066
:1033F000202020436F6D706C6574652E2E2E20206A
:103400002000000000202050617373776F72645BAE
:103410004C25645D20200000002041646D697474B7
:1034200065642E5B4C25645D20000000004E6577CE
:103430002050617373776F72645B4C25645D00008C
:1034400000000D943C0E0D94170D0D94BB510D947E
:103450002D520D9495380D94484F0D94F5530D94BD
:10346000B7310D94BA4F0D942F4D0D94E54A0D943C
:10347000D0120D94F20B0D9466520D94F81B0D941E
:10348000814F0D94A85A0D94D6220D94610F0D947E
:10349000B1580D9486100D9480000D949F520D9498
:1034A00083530D949E500D94FB230D9449510D941C
:1034B00067540D94EF030D942C500D946D2F0D94C3
:1034C00010510D944B360D9465500D940F4F0D9483
:1034D000475A0D94482E0D94CA020D947C570D94B2
:1034E0001D1D0D9414050D94BC4D0D9407440D94B1
:1034F000A8090D9476470D94BA390D9447560D944A
:103500002E540D94D8520D9483080D94F5130D94F8
:10351000DF3A0D94E2420D9482510D9401340D94E2
:10352000D9540D94D7500D9426350D942C450D94F7
:1035300012550D9489180D94C0490D943F160D94A1
:10354000B4290D941A150D94BC530D94293D0D9476
:10355000D64E0D944E3E0D9445260D944A530D942F
:103560008F280D94F34F0D94AE190D94FE2B0D94EE
:1035700020250D94671F0D9492300D9411530D94D6
:10358000A5010D94CD0A0D94AB110D94B1210D94AC
:10359000A0540D949B480D94494E0D94D31A0D944C
:1035A00098400D94DC320D94043C0D9470370D94CA
:1035B000421E0D946A270D94232D0D9451460D94AF
:1035C0005E070D94733F0D94BD410D94D92A0D945F
:1035D000F4510D9439060D9464170D940A4C0D9412
:1035E0008C200D94E65911241FBECFEFD1E2DEBF2F
:1035F000CDBF00E00CBF14E0A0E0B2E0EAEDFFEACE
:1036000002E00BBF02C007900D92A237B107D9F7B5
:1036100016E0A2E7B4E001C01D92AF32B107E1F7B6
:103620000E94321C0D94EB570C94000083EC8093A5
:10363000740080E8809375009FEF94B915B881EF0E
:103640008AB91BB81DB81EB890BB11BA909301017E
:1036500010920201109204011092050110920701CC
:103660001092080190930A0110920B01089580E1D5
:10367000809380008CE080938100109282008EE322
:1036800090E09093890080938800109285001092BA
:10369000840082E080936F008FE286BB08951092D1
:1036A00073041092740410927504109276041092B0
:1036B00077041092780480917204882319F081E0D5
:1036C000809373041092720480917304882361F0D4
:1036D00080911E028F5F80931E028B3028F081E064
:1036E00080931E028093740430917404332361F03C
:1036F00080911F028F5F80931F028B3028F081E042
:1037000080931F028093750480917504882309F1CA
:10371000209121022F5F20932102809187049091B4
:10372000880401969093880480938704263028F0BB
:1037300081E08093210280937704809120028F5F43
:1037400080932002833028F081E0809320028093D0
:10375000760490917704992361F0809122028F5F23
:1037600080932202833028F081E0809322028093AC
:103770007804332351F080917904882319F0109252
:10378000790403C081E080937904992351F08091FA
:103790007A04882319F010927A0408958FEF8093A9
:1037A0007A04089580917804882309F44BC08091AD
:1037B0007B04882359F0809180048F5F809380047C
:1037C000823020F010927B041092800480917C045F
:1037D000882359F0809181048F5F80938104863023
:1037E00020F010927C041092810480917D04882343
:1037F00059F0809182048F5F809382048D3320F092
:1038000010927D041092820480917E04882359F0E6
:10381000809183048F5F80938304893720F0109216
:103820007E041092830480917F04882359F0809154
:1038300084048F5F809384048B3020F010927F0487
:103840001092840408951F920F920FB60F921124C4
:103850008F9381E0809372048F910F900FBE0F9031
:103860001F9018951F930E94161B88EC90E00E94F1
:10387000A91C0F94745780E860E072E00F9485579C
:1038800080EC60E172E00F94855781E00F94485717
:103890000E94A11E0E94371B0F94BE540E94921FCB
:1038A000789480E090E0FC01EE0FFF1FE050F048BC
:1038B00011821082319611821082E150F04D1182F6
:1038C000108231961182108201962DE08834920781
:1038D00051F784EF91E00E94A91C84EF91E00E94CF
:1038E000A91C84EF91E00E94A91C84EF91E00E9442
:1038F000A91C81E080937F0411E0809174048823E7
:1039000021F00E94891F0E94B71F809178048823AC
:1039100011F010938A0480917404882329F0E091B7
:103920001405F091150519950F94EA550F947F56DB
:103930000E944F1B0E94D21BE0CF90E007C00F9265
:103940000F900F920F900F920F909F5F9817B8F300
:1039500008950F931F93CF93DF938C01C0E0D0E0C5
:103960000DC08AEF0E949D1C8AEF0E949D1C8AEF69
:103970000E949D1C8AEF0E949D1C2196C017D107B2
:1039800080F3DF91CF911F910F9108959C01FB016E
:103990004330510521F14430510544F44130510583
:1039A00069F04230510509F08BC00BC0443051051D
:1039B00081F14530510509F083C051C0205D20835D
:1039C00008956AE070E00F94A257605D6083C901BA
:1039D0006AE070E00F94A257805D8183089564E6E9
:1039E00070E00F94A257605D6083C90164E670E0E7
:1039F0000F94A2579C016AE070E00F94A257605D9B
:103A00006183C9016AE070E00F94A257805D8283F0
:103A1000089568EE73E00F94A257605D6083C9015A
:103A200068EE73E00F94A2579C0164E670E00F9477
:103A3000A257605D6183C90164E670E00F94A257EC
:103A40009C016AE070E00F94A257605D6283C90137
:103A50006AE070E00F94A257805D8383089560E16F
:103A600077E20F94A257605D6083C90160E177E25D
:103A70000F94A2579C0168EE73E00F94A257605D0B
:103A80006183C90168EE73E00F94A2579C0164E65C
:103A900070E00F94A257605D6283C90164E670E034
:103AA0000F94A2579C016AE070E00F94A257605DEA
:103AB0006383C9016AE070E00F94A257805D84833C
:103AC0000895909386048093850408951F93182F7A
:103AD0008A3031F4E0918504F09186048DE01995E7
:103AE000E0918504F0918604812F19951F91089526
:103AF0002F923F924F925F926F927F928F929F92FE
:103B0000AF92BF92CF92DF92EF92FF920F931F93EB
:103B1000DF93CF93CDB7DEB72C970FB6F894DEBF07
:103B20000FBECDBF32E2C32ED12CCC0EDD1EF6016E
:103B3000419051906F0105C0882309F4E9C00E94AB
:103B4000661DF20181912F018532B1F711912F018C
:103B5000103321F0103211F022240BC0F2018191B8
:103B60002F0120ED322E380EF9E0F31520F4212E2E
:103B7000182F332404C0212EF20111912F011C367D
:103B800021F01C3411F080E004C0F20111912F01EA
:103B900081E0183509F1193570F41934F1F11A344E
:103BA00028F41334E1F0143401F537C0133511F162
:103BB0001535D9F4A7C0193681F11A3628F4133611
:103BC00071F0143691F429C0153709F49BC01837E9
:103BD00019F0133751F40EC020E130E095C0F60122
:103BE000108182E090E0C80ED91E85E20E94661D19
:103BF000812FA5CF92E0E92EF12CEC0CFD1CF601F3
:103C00000081118104C00E94661D0F5F1F4FF801E3
:103C100080818823C1F7670194CF882341F0F601A2
:103C2000E080F1800281138184E090E00AC0F60117
:103C3000808191817C010027F7FC0095102F82E0A4
:103C400090E0C80ED91E17FF0BC010950095F09498
:103C5000E094E11CF11C011D111D8DE20E94661D06
:103C60002AE030E012C0F601E080F1800281138189
:103C700084E090E008C0F601808191817C0100E041
:103C800010E082E090E0C80ED91E8CE0A82EB12C86
:103C9000AC0EBD1E1C86390188249924C801B701C9
:103CA000A40193010F94B557862F805D8A3308F0E5
:103CB000895FF50182935F01C801B701A4019301F7
:103CC0000F94B557C901DA017C018D0131103A9486
:103CD0000097A105B10511F7232DC50104C0F50119
:103CE00022925F013A943320D1F78C01021B110913
:103CF00004C00E94661D0F5F1F4FF801808188235A
:103D0000C1F71FCF2AE030E0882309F0ACCFB3CF52
:103D10002C960FB6F894DEBF0FBECDBFCF91DF91CA
:103D20001F910F91FF90EF90DF90CF90BF90AF90D9
:103D30009F908F907F906F905F904F903F902F90CB
:103D400008958FEF8093160510921705089530910E
:103D5000030120910601922F9E6F80E0232F30E017
:103D6000282B392B8FEF2F3F380719F010922302A1
:103D700003C08FEF8093230240912302809124029D
:103D8000442309F06DC0882309F063C08091870443
:103D9000909188040B9728F43093260220932502F3
:103DA000B3C089E090E09093880480938704809169
:103DB0002502909126022FEF8F3D9207A1F12FEF60
:103DC000803E9207A0F42EEF8F3F9207C1F12FEFB4
:103DD0008030920720F48A5B9E4FA9F532C02FEF06
:103DE0008F379207E1F08F5B9F4F69F526C02FEF69
:103DF0008B3F9207F1F02FEF8C3F920740F42FEFAB
:103E00008F3E9207C1F0875F9F4FE9F40EC02FEFFE
:103E10008D3F920731F08E5F9F4FA9F408C092E06A
:103E200013C091E011C093E00FC094E00DC095E085
:103E30000BC096E009C097E007C098E005C099E084
:103E400003C09EEF01C09FEF81E080938904892F1A
:103E50005EC010928804109287041092890454C0A6
:103E6000882309F051C080918904882309F04CC04F
:103E700080912502909126022FEF8F3E9207C1F18B
:103E80002FEF803F9207A0F42FEF8F37920721F199
:103E90002FEF8038920720F48F5F9E4F79F52CC06A
:103EA0002FEF8F3B920731F18F5D9F4F39F518C08F
:103EB0002FEF8B3F9207D1F02FEF8C3F920720F42A
:103EC000875F9F4FD9F40EC02FEF8D3F920731F0DF
:103ED0008E5F9F4F99F408C082E011C081E00FC04F
:103EE00083E00DC084E00BC085E009C086E007C018
:103EF00087E005C088E003C089E001C08FEF109221
:103F000088041092870401C08FEF4093240290E050
:103F100008950E94A71E80931605809189048093BE
:103F20001705089580E090E090931505809314059F
:103F300086E080937004089510928F04109290048C
:103F400010929104109292041092930408959C018F
:103F5000AFE1B5E0F90184918C93882321F41C92A0
:103F60008FE195E0089511962F5F3F4FF3CF81E0E9
:103F700080938A0480937F041092840408952F9282
:103F80003F924F925F926F927F928F929F92AF92E9
:103F9000BF92CF92DF92EF92FF920F931F93DF9326
:103FA000CF93CDB7DEB72F970FB6F894DEBF0FBE15
:103FB000CDBFF5E2CF2ED12CCC0EDD1ED601ED917A
:103FC000FD916D01FEA3EDA31D86EFE1AE2EE5E0B0
:103FD000BE2E8E01045F1F4F1F870E8722C08823CD
:103FE000E9F4D5011C928FE195E02F960FB6F89475
:103FF000DEBF0FBECDBFCF91DF911F910F91FF901C
:10400000EF90DF90CF90BF90AF909F908F907F9078
:104010006F905F904F903F902F900895F50181939E
:104020005F01ADA1BEA18D91BEA3ADA38532B9F64E
:104030008D91BEA3ADA38B3229F48D91BEA3ADA308
:10404000B1E0BD87803341F0803231F08E3221F013
:104050008F3511F066240DC0EDA1FEA19191FEA354
:10406000EDA370ED772E790EF9E0F71520F4682EA8
:10407000892F772417C0ADA1BEA12D91BEA3ADA3FA
:10408000922F90539A3018F0682E822F0BC0BAE00E
:104090007B9E702C1124790E682EEDA1FEA18191DA
:1040A000FEA3EDA38C3621F08C3411F090E006C015
:1040B000ADA1BEA18D91BEA3ADA391E08F36D1F18C
:1040C000803740F4833699F0843609F4FDC0823697
:1040D000A9F4BAC0853741F0883719F0833771F4F5
:1040E00019C020E130E02CC02AE030E029C0F60100
:1040F000808162E0E62EF12CCE0CDF1CF50155E24A
:10410000F52EF192D50111968C935F010894A11CB4
:10411000B11C87CFD601ED91FC9104C0D5018D93E0
:104120005D01319680818823C9F7E2E0F0E0CE0E90
:10413000DF1E77CFD501E0E3ED935D0128E030E0AD
:10414000FD85FF2369F530C0D6012D913D914D913C
:104150005C91E4E0F0E00AC0D6018D919C919C0155
:10416000442737FD4095542FE2E0F0E0CE0EDF1EED
:1041700057FF0AC050954095309521953F4F4F4FBE
:104180005F4FD501EDE205C0FD85FF2321F0D5018C
:10419000EBE2ED935D0179018A012AE030E018C07D
:1041A000D501EBE2ED935D01992341F0D601ED904D
:1041B000FD900D911C91E4E0F0E008C0D6018D91D6
:1041C0009C917C0100E010E0E2E0F0E0CE0EDF1E0A
:1041D0004CE0842E912C8C0E9D1E1C8619014424CB
:1041E0005524C801B701A20191010F94B557862F3C
:1041F000805D8A3308F0895FD4018E934D01C80138
:10420000B701A20191010F94B557C901DA017C01F0
:104210008D0171107A940097A105B10511F7272D32
:10422000C40104C0F40162924F017A947720D1F75F
:10423000FC01E21BF10904C0D5018D935D013196AB
:1042400080818823C9F7EDCE992359F0F60140818A
:1042500051816281738194E0E92EF12CCE0CDF1C38
:104260000AC0D6018D919C91AC0160E070E0E2E063
:10427000F0E0CE0EDF1E1C86FE013B9620E030E013
:1042800013C07A018B0104C016950795F794E79443
:104290008A95D2F7E0FE04C081E3F82EF08201C0D7
:1042A00060822F5F3F4F3197822F721651F7EE8554
:1042B000FF85E719F10904C0D5018D935D013196A1
:1042C00080818823C9F7ADCE992309F03DCF44CF33
:1042D00080911605853031F480E090E090931505CB
:1042E0008093140580918A04882351F080E867E266
:1042F00072E00F94855780EC68E372E00F94855765
:10430000089580911605813019F488EC91E204C07B
:10431000823039F48DE992E290931505809314056B
:1043200012C0863081F48FEA93E89093150580934C
:10433000140510928F041092900410929104109220
:1043400092041092930480918A04882301F189ECED
:1043500093E30E94A71FBC0180E80F94855785E076
:1043600094E30E94A71F00D00F92EDB7FEB792838F
:10437000818385E090E0948383830E94BF1FBC010A
:104380000F900F900F900F9080EC0F948557089529
:1043900080911605813019F48FE092E204C08230DA
:1043A00039F481E891E2909315058093140512C0C9
:1043B000863081F48EE495E890931505809314057A
:1043C00010928F0410929004109291041092920413
:1043D0001092930480918A04882301F189EC93E37D
:1043E0000E94A71FBC0180E80F94855785E094E3E5
:1043F0000E94A71F00D00F92EDB7FEB79283818372
:1044000084E090E0948383830E94BF1FBC010F90DF
:104410000F900F900F9080EC0F9485570895809126
:104420001605813019F486E592E204C0823039F431
:1044300088EC91E2909315058093140512C08630A4
:1044400081F48DEE96E890931505809314051092F3
:104450008F04109290041092910410929204109282
:10446000930480918A04882301F189EC93E30E94EC
:10447000A71FBC0180E80F94855785E094E30E9454
:10448000A71F00D00F92EDB7FEB79283818383E020
:1044900090E0948383830E94BF1FBC010F900F9014
:1044A0000F900F9080EC0F9485570895809116051A
:1044B000813019F48DE992E204C0823039F48FE042
:1044C00092E2909315058093140512C0863081F412
:1044D0008CE898E8909315058093140510928F044A
:1044E00010929004109291041092920410929304EE
:1044F00080918A04882301F189EC93E30E94A71F2D
:10450000BC0180E80F94855785E094E30E94A71FC3
:1045100000D00F92EDB7FEB79283818382E090E0E6
:10452000948383830E94BF1FBC010F900F900F9054
:104530000F9080EC0F948557089580911605813077
:1045400019F481E891E204C0823039F486E592E200
:10455000909315058093140512C0863081F48BE288
:104560009AE8909315058093140510928F04109289
:1045700090041092910410929204109293048091EE
:104580008A04882301F189EC93E30E94A71FBC01F0
:1045900080E80F94855785E094E30E94A71F00D020
:1045A0000F92EDB7FEB79283818381E090E0948310
:1045B00083830E94BF1FBC010F900F900F900F903C
:1045C00080EC0F948557089580911605813019F479
:1045D0008BE293E204C0823039F480E094E290935D
:1045E00015058093140512C0863081F487E09BE89E
:1045F000909315058093140510928F0410929004E7
:1046000010929104109292041092930480918A0463
:10461000882301F185EB93E30E94A71FBC0180E88A
:104620000F94855785E094E30E94A71F00D00F9256
:10463000EDB7FEB79283818385E090E09483838316
:104640000E94BF1FBC010F900F900F900F9080EC45
:104650000F948557089580911605813019F482E7EB
:1046600093E204C0823039F484EE92E2909315050F
:104670008093140512C0863081F483EE9BE89093FA
:1046800015058093140510928F04109290041092D7
:104690009104109292041092930480918A048823CA
:1046A00001F185EB93E30E94A71FBC0180E80F9402
:1046B000855785E094E30E94A71F00D00F92EDB7C5
:1046C000FEB79283818384E090E0948383830E9489
:1046D000BF1FBC010F900F900F900F9080EC0F94B4
:1046E0008557089580911605813019F489EB93E27E
:1046F00004C0823039F48BE293E2909315058093E5
:10470000140512C0863081F48FEB9CE89093150558
:104710008093140510928F041092900410929104CB
:10472000109292041092930480918A04882301F1DC
:1047300085EB93E30E94A71FBC0180E80F94855787
:1047400085E094E30E94A71F00D00F92EDB7FEB75B
:104750009283818383E090E0948383830E94BF1FD0
:10476000BC010F900F900F900F9080EC0F94855725
:10477000089580911605813019F480E094E204C018
:10478000823039F482E793E2909315058093140503
:1047900012C0863081F48BE99DE8909315058093D3
:1047A000140510928F0410929004109291041092AC
:1047B00092041092930480918A04882301F185EB7E
:1047C00093E30E94A71FBC0180E80F94855785E002
:1047D00094E30E94A71F00D00F92EDB7FEB792831B
:1047E000818382E090E0948383830E94BF1FBC0199
:1047F0000F900F900F900F9080EC0F9485570895B5
:1048000080911605813019F484EE92E204C0823062
:1048100039F489EB93E2909315058093140512C047
:10482000863081F487E79EE8909315058093140500
:1048300010928F041092900410929104109292049E
:104840001092930480918A04882301F185EB93E30D
:104850000E94A71FBC0180E80F94855785E094E370
:104860000E94A71F00D00F92EDB7FEB792838183FD
:1048700081E090E0948383830E94BF1FBC010F906E
:104880000F900F900F9080EC0F94855708958091B2
:104890001605813019F48BE694E204C0823031F4BD
:1048A0008FE894E2909315058093140580918A0413
:1048B000882381F08BE591E00E94A71FBC0180E86E
:1048C0000F94855789EC93E30E94A71FBC0180ECED
:1048D0000F948557089580911605813019F48FE85B
:1048E00094E204C0823031F487E494E29093150599
:1048F0008093140580918A04882381F08BE591E0F0
:104900000E94A71FBC0180E80F94855785EB93E3B5
:104910000E94A71FBC0180EC0F94855708958091D9
:104920001605813019F487E494E204C0823031F432
:104930008BE694E2909315058093140580918A0488
:10494000882381F08BE591E00E94A71FBC0180E8DD
:104950000F94855781EA93E30E94A71FBC0180EC66
:104960000F948557089520917C04222351F480915F
:104970009E04882331F080E090E0909315058093A9
:10498000140520939E0480918A04882381F089E293
:1049900093E30E94A71FBC0180E80F94855785E62A
:1049A00093E30E94A71FBC0180EC0F9485570895E4
:1049B00020917C04222351F480919F04882331F0BC
:1049C00080E090E0909315058093140520939F0458
:1049D00080918A04882381F085E193E30E94A71FD8
:1049E000BC0180E80F94855785E693E30E94A71FDA
:1049F000BC0180EC0F948557089580911605863090
:104A000049F488ED94E2909315058093140581E0B4
:104A100080937C0480918A04882381F085E193E36C
:104A20000E94A71FBC0180E80F9485578DE393E394
:104A30000E94A71FBC0180EC0F9485570895209118
:104A40007C04222351F48091A004882331F080E07B
:104A500090E090931505809314052093A004809115
:104A60008A04882381F081E093E30E94A71FBC01A0
:104A700080E80F94855781E593E30E94A71FBC014E
:104A800080EC0F948557089580911605813019F4B4
:104A900084E795E204C0823039F48DE995E2909381
:104AA0001505809314050BC0863049F483EB94E21E
:104AB000909315058093140581E080937C04809188
:104AC0008A04882381F08AE491E00E94A71FBC0138
:104AD00080E80F94855789E293E30E94A71FBC01E9
:104AE00080EC0F948557089580911605813019F454
:104AF0008DE995E209C0823019F484E495E204C09E
:104B0000863031F48DEF94E290931505809314056F
:104B100080918A04882381F08AE491E00E94A71F93
:104B2000BC0180E80F94855785E193E30E94A71F9D
:104B3000BC0180EC0F948557089580911605813053
:104B400019F484E495E209C0823019F484E795E20F
:104B500004C0863031F48FE195E29093150580937F
:104B6000140580918A04882381F08AE491E00E94F0
:104B7000A71FBC0180E80F94855781E093E30E9452
:104B8000A71FBC0180EC0F948557089580911605EE
:104B9000813019F487EF95E204C0823031F480EB64
:104BA00097E2909315058093140580918A048823D9
:104BB000E9F08FEE92E30E94A71F00D00F92EDB7AD
:104BC000FEB79283818389E090E0948383830E947F
:104BD000BF1FBC010F900F900F900F9080E80F94B3
:104BE000855780EC69E472E00F94855708958091B1
:104BF0001605813019F488E296E204C0823031F45F
:104C000086EC95E2909315058093140580918A04B3
:104C10008823E9F08DED92E30E94A71F00D00F9248
:104C2000EDB7FEB79283818389E090E0948383831C
:104C30000E94BF1FBC010F900F900F900F9080E853
:104C40000F94855780EC6AE572E00F9485570895BC
:104C500080911605813019F489E596E204C082300E
:104C600031F487EF95E290931505809314058091B8
:104C70008A048823E9F08BEC92E30E94A71F00D0FE
:104C80000F92EDB7FEB79283818389E090E0948321
:104C900083830E94BF1FBC010F900F900F900F9055
:104CA00080E80F94855780EC6BE672E00F9485578F
:104CB000089580911605813019F48AE896E204C0BF
:104CC000823031F488E296E29093150580931405C2
:104CD00080918A048823E9F089EB92E30E94A71F60
:104CE00000D00F92EDB7FEB79283818389E090E008
:104CF000948383830E94BF1FBC010F900F900F907D
:104D00000F9080E80F94855780EC6CE772E00F9469
:104D10008557089580911605813019F48BEB96E242
:104D200004C0823031F489E596E2909315058093B2
:104D3000140580918A048823E9F087EA92E30E94AF
:104D4000A71F00D00F92EDB7FEB79283818389E051
:104D500090E0948383830E94BF1FBC010F900F904B
:104D60000F900F9080E80F94855780EC6DE872E00B
:104D70000F948557089580911605813019F48CEEB3
:104D800096E204C0823031F48AE896E290931505E9
:104D90008093140580918A048823E9F085E992E3E1
:104DA0000E94A71F00D00F92EDB7FEB792838183B8
:104DB00089E090E0948383830E94BF1FBC010F9021
:104DC0000F900F900F9080E80F94855780EC6EE95C
:104DD00072E00F948557089580911605813019F47B
:104DE0008DE197E204C0823031F48BEB96E2909330
:104DF00015058093140580918A048823E9F083E8DF
:104E000092E30E94A71F00D00F92EDB7FEB79283E6
:104E1000818389E090E0948383830E94BF1FBC015B
:104E20000F900F900F900F9080E80F94855780ECB3
:104E30006FEA72E00F9485570895809116058130CE
:104E400019F48EE497E204C0823031F48CEE96E2DD
:104E5000909315058093140580918A048823E9F0C6
:104E600081E792E30E94A71F00D00F92EDB7FEB733
:104E70009283818389E090E0948383830E94BF1FA3
:104E8000BC010F900F900F900F9080E80F94855702
:104E900080EC6FEA72E00F948557089580911605B3
:104EA000813019F48FE797E204C0823031F48DE14C
:104EB00097E2909315058093140580918A048823C6
:104EC000E9F08FE592E30E94A71F00D00F92EDB7A3
:104ED000FEB79283818389E090E0948383830E946C
:104EE000BF1FBC010F900F900F900F9080E80F94A0
:104EF000855780EC60EC72E00F948557089580919F
:104F00001605813019F480EB97E204C0823031F449
:104F10008EE497E2909315058093140580918A049E
:104F20008823E9F08DE492E30E94A71F00D00F923E
:104F3000EDB7FEB79283818389E090E09483838309
:104F40000E94BF1FBC010F900F900F900F9080E840
:104F50000F94855780EC60EC72E00F9485570895AC
:104F600080911605813019F486EC95E204C08230F8
:104F700031F48FE797E290931505809314058091A3
:104F80008A048823E9F08BE392E30E94A71F00D0F4
:104F90000F92EDB7FEB79283818389E090E094830E
:104FA00083830E94BF1FBC010F900F900F900F9042
:104FB00080E80F94855780EC60EC72E00F94855781
:104FC000089580911605813019F482E198E204C0B9
:104FD000823031F48BEC99E290931505809314059F
:104FE00080918A048823E9F08FEE92E30E94A71F44
:104FF00000D00F92EDB7FEB79283818388E090E0F6
:10500000948383830E94BF1FBC010F900F900F9069
:105010000F9080E80F94855780EC69E472E00F945C
:105020008557089580911605813019F483E498E23C
:1050300004C0823031F481EE97E29093150580939D
:10504000140580918A048823E9F08DED92E30E9493
:10505000A71F00D00F92EDB7FEB79283818388E03F
:1050600090E0948383830E94BF1FBC010F900F9038
:105070000F900F9080E80F94855780EC6AE572E0FE
:105080000F948557089580911605813019F484E7AF
:1050900098E204C0823031F482E198E290931505E1
:1050A0008093140580918A048823E9F08BEC92E3C5
:1050B0000E94A71F00D00F92EDB7FEB792838183A5
:1050C00088E090E0948383830E94BF1FBC010F900F
:1050D0000F900F900F9080E80F94855780EC6BE64F
:1050E00072E00F948557089580911605813019F468
:1050F00085EA98E204C0823031F483E498E2909328
:1051000015058093140580918A048823E9F089EBC2
:1051100092E30E94A71F00D00F92EDB7FEB79283D3
:10512000818388E090E0948383830E94BF1FBC0149
:105130000F900F900F900F9080E80F94855780ECA0
:105140006CE772E00F9485570895809116058130C1
:1051500019F486ED98E204C0823031F484E798E2D5
:10516000909315058093140580918A048823E9F0B3
:1051700087EA92E30E94A71F00D00F92EDB7FEB717
:105180009283818388E090E0948383830E94BF1F91
:10519000BC010F900F900F900F9080E80F948557EF
:1051A00080EC6DE872E00F948557089580911605A4
:1051B000813019F487E099E204C0823031F485EA45
:1051C00098E2909315058093140580918A048823B2
:1051D000E9F085E992E30E94A71F00D00F92EDB796
:1051E000FEB79283818388E090E0948383830E945A
:1051F000BF1FBC010F900F900F900F9080E80F948D
:10520000855780EC6EE972E00F9485570895809180
:105210001605813019F488E399E204C0823031F434
:1052200086ED98E2909315058093140580918A0489
:105230008823E9F083E892E30E94A71F00D00F9231
:10524000EDB7FEB79283818388E090E094838383F7
:105250000E94BF1FBC010F900F900F900F9080E82D
:105260000F94855780EC6FEA72E00F94855708958C
:1052700080911605813019F489E699E204C08230E4
:1052800031F487E099E2909315058093140580919D
:105290008A048823E9F081E792E30E94A71F00D0E7
:1052A0000F92EDB7FEB79283818388E090E09483FC
:1052B00083830E94BF1FBC010F900F900F900F902F
:1052C00080E80F94855780EC6FEA72E00F94855761
:1052D000089580911605813019F48AE999E204C095
:1052E000823031F488E399E2909315058093140598
:1052F00080918A048823E9F08FE592E30E94A71F3A
:1053000000D00F92EDB7FEB79283818388E090E0E2
:10531000948383830E94BF1FBC010F900F900F9056
:105320000F9080E80F94855780EC60EC72E00F944A
:105330008557089580911605813019F48BEC99E218
:1053400004C0823031F489E699E290931505809388
:10535000140580918A048823E9F08DE492E30E9489
:10536000A71F00D00F92EDB7FEB79283818388E02C
:1053700090E0948383830E94BF1FBC010F900F9025
:105380000F900F9080E80F94855780EC60EC72E0EE
:105390000F948557089580911605813019F481EE98
:1053A00097E204C0823031F48AE999E290931505BE
:1053B0008093140580918A048823E9F08BE392E3BB
:1053C0000E94A71F00D00F92EDB7FEB79283818392
:1053D00088E090E0948383830E94BF1FBC010F90FC
:1053E0000F900F900F9080E80F94855780EC60EC41
:1053F00072E00F948557089580911605813019F455
:105400008DE29AE204C0823031F486EE9BE2909302
:1054100015058093140580918A048823E9F08FEEA6
:1054200092E30E94A71F00D00F92EDB7FEB79283C0
:10543000818387E090E0948383830E94BF1FBC0137
:105440000F900F900F900F9080E80F94855780EC8D
:1054500069E472E00F9485570895809116058130B4
:1054600019F48EE59AE204C0823031F48CEF99E2AF
:10547000909315058093140580918A048823E9F0A0
:105480008DED92E30E94A71F00D00F92EDB7FEB7FB
:105490009283818387E090E0948383830E94BF1F7F
:1054A000BC010F900F900F900F9080E80F948557DC
:1054B00080EC6AE572E00F94855708958091160597
:1054C000813019F48FE89AE204C0823031F48DE221
:1054D0009AE2909315058093140580918A0488239D
:1054E000E9F08BEC92E30E94A71F00D00F92EDB77A
:1054F000FEB79283818387E090E0948383830E9448
:10550000BF1FBC010F900F900F900F9080E80F9479
:10551000855780EC6BE672E00F9485570895809173
:105520001605813019F480EC9AE204C0823031F41F
:105530008EE59AE2909315058093140580918A0474
:105540008823E9F089EB92E30E94A71F00D00F9215
:10555000EDB7FEB79283818387E090E094838383E5
:105560000E94BF1FBC010F900F900F900F9080E81A
:105570000F94855780EC6CE772E00F94855708957F
:1055800080911605813019F481EF9AE204C08230CF
:1055900031F48FE89AE29093150580931405809179
:1055A0008A048823E9F087EA92E30E94A71F00D0CB
:1055B0000F92EDB7FEB79283818387E090E09483EA
:1055C00083830E94BF1FBC010F900F900F900F901C
:1055D00080E80F94855780EC6DE872E00F94855752
:1055E000089580911605813019F482E29BE204C08F
:1055F000823031F480EC9AE2909315058093140583
:1056000080918A048823E9F085E992E30E94A71F2C
:1056100000D00F92EDB7FEB79283818387E090E0D0
:10562000948383830E94BF1FBC010F900F900F9043
:105630000F9080E80F94855780EC6EE972E00F942C
:105640008557089580911605813019F483E59BE212
:1056500004C0823031F481EF9AE290931505809373
:10566000140580918A048823E9F083E892E30E947C
:10567000A71F00D00F92EDB7FEB79283818387E01A
:1056800090E0948383830E94BF1FBC010F900F9012
:105690000F900F9080E80F94855780EC6FEA72E0CE
:1056A0000F948557089580911605813019F484E888
:1056B0009BE204C0823031F482E29BE290931505B4
:1056C0008093140580918A048823E9F081E792E3AE
:1056D0000E94A71F00D00F92EDB7FEB7928381837F
:1056E00087E090E0948383830E94BF1FBC010F90EA
:1056F0000F900F900F9080E80F94855780EC6FEA21
:1057000072E00F948557089580911605813019F441
:1057100085EB9BE204C0823031F483E59BE29093F9
:1057200015058093140580918A048823E9F08FE59C
:1057300092E30E94A71F00D00F92EDB7FEB79283AD
:10574000818387E090E0948383830E94BF1FBC0124
:105750000F900F900F900F9080E80F94855780EC7A
:1057600060EC72E00F9485570895809116058130A2
:1057700019F486EE9BE204C0823031F484E89BE2A7
:10578000909315058093140580918A048823E9F08D
:105790008DE492E30E94A71F00D00F92EDB7FEB7F1
:1057A0009283818387E090E0948383830E94BF1F6C
:1057B000BC010F900F900F900F9080E80F948557C9
:1057C00080EC60EC72E00F94855708958091160587
:1057D000813019F48CEF99E204C0823031F485EB0A
:1057E0009BE2909315058093140580918A04882389
:1057F000E9F08BE392E30E94A71F00D00F92EDB770
:10580000FEB79283818387E090E0948383830E9434
:10581000BF1FBC010F900F900F900F9080E80F9466
:10582000855780EC60EC72E00F9485570895809165
:105830001605813019F488E49CE204C0823031F40A
:1058400081E09EE2909315058093140580918A046F
:105850008823E9F08FEE92E30E94A71F00D00F92F9
:10586000EDB7FEB79283818386E090E094838383D3
:105870000E94BF1FBC010F900F900F900F9080E807
:105880000F94855780EC69E472E00F948557089572
:1058900080911605813019F489E79CE204C08230BA
:1058A00031F487E19CE29093150580931405809173
:1058B0008A048823E9F08DED92E30E94A71F00D0AF
:1058C0000F92EDB7FEB79283818386E090E09483D8
:1058D00083830E94BF1FBC010F900F900F900F9009
:1058E00080E80F94855780EC6AE572E00F94855745
:1058F000089580911605813019F48AEA9CE204C06B
:10590000823031F488E49CE290931505809314056D
:1059100080918A048823E9F08BEC92E30E94A71F10
:1059200000D00F92EDB7FEB79283818386E090E0BE
:10593000948383830E94BF1FBC010F900F900F9030
:105940000F9080E80F94855780EC6BE672E00F941F
:105950008557089580911605813019F48BED9CE2EE
:1059600004C0823031F489E79CE29093150580935E
:10597000140580918A048823E9F089EB92E30E9460
:10598000A71F00D00F92EDB7FEB79283818386E008
:1059900090E0948383830E94BF1FBC010F900F90FF
:1059A0000F900F9080E80F94855780EC6CE772E0C1
:1059B0000F948557089580911605813019F48CE075
:1059C0009DE204C0823031F48AEA9CE2909315058E
:1059D0008093140580918A048823E9F087EA92E392
:1059E0000E94A71F00D00F92EDB7FEB7928381836C
:1059F00086E090E0948383830E94BF1FBC010F90D8
:105A00000F900F900F9080E80F94855780EC6DE811
:105A100072E00F948557089580911605813019F42E
:105A20008DE39DE204C0823031F48BED9CE29093D3
:105A300015058093140580918A048823E9F085E98F
:105A400092E30E94A71F00D00F92EDB7FEB792839A
:105A5000818386E090E0948383830E94BF1FBC0112
:105A60000F900F900F900F9080E80F94855780EC67
:105A70006EE972E00F948557089580911605813084
:105A800019F48EE69DE204C0823031F48CE09DE290
:105A9000909315058093140580918A048823E9F07A
:105AA00083E892E30E94A71F00D00F92EDB7FEB7E4
:105AB0009283818386E090E0948383830E94BF1F5A
:105AC000BC010F900F900F900F9080E80F948557B6
:105AD00080EC6FEA72E00F94855708958091160567
